:020000040000FA
:10000000004000205DF8000099F800009BF8000017
:1000100000000000000000000000000000000000E0
:100020000000000000000000000000009DF800003B
:1000300000000000000000009FF80000A1F8000090
:10004000A3F80000A3F8000051F70000A3F8000097
:10005000A3F800000000000091160100A3F80000C2
:10006000A3F80000A3F80000B11B0100A3F80000F2
:10007000A3F80000A3F80000A3F80000A3F8000014
:10008000A3F8000045F50000A3F80000A3F8000065
:10009000A3F80000A3F80000A3F80000A3F80000F4
:1000A000A3F80000A3F8000000000000000000001A
:1000B0000000000000000000000000000000000040
:1000C000F7B5171C146801AA051C0E1C04F0DCFD12
:1000D000402D05D1019B3C255A1EA4185B421C40B3
:1000E00023183B602A1C5A27B742BF413E3A55426B
:1000F0006A417F42231CD2B2391C19F06EFA041CEB
:100100000D1C4F2E33D0532E08D1201C1EF029FC7D
:100110000022011C201C01F093FD28E0201C662E0B
:1001200004D0642E05D1201C14F0BAF905F0D4FED9
:100130001DE0002F0FD00F4B0D4A12196B41201CF0
:10014000002B04D1002A02DB19F02AFE0FE0291C43
:1001500019F017FE0BE0201C002905D1064B9C422C
:1001600002D819F038FE02E0291C19F025FEFEBD68
:100170000000004000000000FFFFFF3FC046C046F7
:1001800038B5041C82070CD1114B02689A4208D181
:1001900006F010F9211D051C04301AF0D8FC281CAB
:1001A00011E0201C0CF0F6FCC0231B06984204D181
:1001B0000649054819F0E5FD05E0C317C018584089
:1001C00040000123184338BD00000040000000003B
:1001D00034F70100C046C046F0B541188BB0071C8B
:1001E00008920993029102998F4200D32BE138784B
:1001F0000AF0AAFF002801D00137F4E73B782B2B47
:1002000002D10137049005E004902D2B0ED101227C
:1002100001370492029B9F4208D38F4A00213D1C64
:100220000191069207910E1C002458E03A78202391
:100230001A43692A2ED10299BA1C914200D8D6E0FD
:100240007A781A436E2A00D0D1E0BA781A43662A27
:1002500000D0CCE0FA1DFD1C914200D8C3E0FA7832
:100260001A43692A00D0BEE03A791A436E2A00D0B8
:10027000B9E07A791A43692A00D0B4E0BA791A430E
:10028000742A00D0AFE0FA791343792B00D0AAE0AA
:100290000535A8E06E2AC0D10299BA1C914200D857
:1002A000A5E07A781A43612A00D0A0E0BA78134317
:1002B0006E2B00D09BE0FD1C0026684C9AE02B784A
:1002C0006A1C191C303903920591092932D8022E73
:1002D00009D1019A0A235343CB180193039D029B32
:1002E0009D42ECD354E0012E15D1059812F0DCFEAE
:1002F000069912F0BDFB011C201C12F069F8041CC9
:10030000069814F07BF8534B514A13F041FA14F05D
:10031000C7F80690E2E75249201C12F0A9FB041C22
:10032000059812F0C1FE011C201C12F051F80026A5
:10033000041CD3E7002E02D12E2B02D126E0022E80
:1003400019D020221A43652A15D1039B02998B42AA
:100350000BD26B782B2B02D10235039505E02D2BA8
:1003600003D10235012203950792039B02998B4228
:1003700062D00226B2E7089A0026B24209D02022B3
:1003800013436A2B05D1039D012602E00126A5E750
:1003900000260799002902D0019A52420192019B3E
:1003A0000393039A002A08DD201C2D4912F060FBFC
:1003B0000399041C01390391F3E70199CB43DB173F
:1003C00099430191019B002B14D0201C14F016F8C6
:1003D000204B1F4A13F0DCF914F062F8019A041C58
:1003E00001320192EEE7FF240026E40502E03D1C05
:1003F000002600240499002902D080221206A418A5
:10040000BD4219D0029B9D4206D228780AF09CFE7C
:10041000002811D00135F5E702998D420CD1002E4C
:1004200002D1099A002A02D00E480F4906E0201C8A
:1004300005F052FD0BB0F0BD0A480C4919F07EFDE5
:1004400010990BF0EFFB00230493E6E6C046C0468C
:100450009A9999999999B93FCDCCCC3D0000C07F2C
:1004600000002041ECFE0100805F02009D5F020061
:1004700008B50B4B1B78002B01D10FF09DF80FF046
:1004800043F8064B044A11F033FF4904C00B0843FC
:1004900008BDC046C046C04640420F0000000000F4
:1004A000A22D0020C046C0462F4B70B51B78061CFD
:1004B000002B01D10FF080F80FF026F8254B244ACD
:1004C00011F016FF4B04C00B002400251843CD0B80
:1004D0000023321CA4185D4180231B06984205D9D5
:1004E000002E03DB1C4A1D4BA4185D41610CEB037D
:1004F0000B43E2031A481B4980185941154B144A13
:1005000011F0D6FE194D041C2B78194E002B02D089
:10051000336898421BD00EF0F7FF201A022802DC45
:100520000EF0F2FF841C2102124BA822D200090A0D
:1005300099502A783460002A09D101222A70D221E8
:100540008022520289005A50C12189005A5070BD40
:1005500040420F0000000000000000000100000009
:100560003F420F0000000000A22D0020A32D00201C
:10057000E42700200010014073B58279061C930720
:1005800040D401231A4206D181881A1C68460FF014
:100590008DFF042037E01E22B35E2422805EC01A45
:1005A00013F0EEFE041C2223F05E1C22B35E0D1C31
:1005B000C01A13F0E5FE021C0B1C201C291C14F0B1
:1005C000CBFD144B124A13F0E3F8134A134B12F00D
:1005D000BBFD13F065FF0021041C11F041FE002853
:1005E00004D0201C104911F0F3FE041C201C13F051
:1005F00005FF021C0B1C0A480A4913F059FB13F0B3
:100600008BFE01E00320404276BDC046C046C04696
:100610000000000000806640EA2E4454FB2109409F
:1006200000000000008076400000B443C046C04691
:1006300070B5041C042015F073FE051C1648401B01
:1006400012F032FD13F0DAFE124B114A13F0A0F84B
:1006500000F026F80323061C281C9E4315F06AFEB2
:100660002368002B0AD1301C15F05AFE20600028A8
:10067000F6D1203E002EF3D1301C07E0B608B600BC
:100680009B19201C63601DF0C9FC012070BDC04691
:10069000666666666666EE3F00380020C046C04665
:1006A00038B50E4B0C4A041C0D1C13F0B9FF002882
:1006B00004D1201C291C13F02FFE38BD074B064A1D
:1006C000201C291C13F0F4FA13F026FE80231B06CD
:1006D000C018F2E7C046C046000000000000E0413C
:1006E000F0B58BB0041C0E1C14F03AFD2A4F002309
:1006F000FB56051C013304D0301C14F0E9FC002823
:1007000002D1281C0BB0F0BD201C14F0E1FC002825
:10071000F7D0301C002111F09DFD0028F1D00123FD
:1007200000931E4B201C01930023089313F066FED8
:10073000041C0D1C301C0294039513F05FFE3E78E0
:1007400004900591002E16D012491148021C0B1C72
:1007500012F0FAFC06900791022E0ED115F0B0FAB5
:1007600021230360089B002B0DD10698079913F0F5
:1007700097FE051CC5E706940795684615F0DEF957
:100780000028EFD1EAE715F09BFA089B0360ECE73D
:1007900000000000000000007E000020D02A0200BF
:1007A000F0B546464F46C0B48BB0051C0C1C14F087
:1007B0005DFDBB4E0023F3568046071C013304D079
:1007C000201C14F085FC002805D1381C0BB00CBC93
:1007D00090469946F0BD281C14F07AFC814600280A
:1007E00033D1201C002111F035FD0028EDD001236C
:1007F0000093AC4B4A46281C0193089213F0FEFD6F
:100800006F46B860F960201C13F0F8FD9D4B9C4AC0
:10081000BA61FB610023F356386179615A1C0ED02E
:10082000022B0CD0684615F089F9002800D1E5E0CC
:100830003B6A002B03D015F043FA3B6A0360B869AA
:10084000F96913F02DFE071CBFE7281C002111F0E9
:1008500001FD002832D0201C002111F0FBFC804655
:10086000002869D0012300938E4B281C019300239C
:10087000089313F0C3FD6F46B860F960201C13F0B5
:10088000BDFD814A814BBA61FB610023F35638619B
:100890007961002B04D07B4B794ABA61FB61CEE7CA
:1008A000684615F04BF9002800D1ACE03B6A002BFC
:1008B000C5D015F005FA3A6A0260C0E7404615F067
:1008C000C9F88146002867D04046002111F0C2FCDB
:1008D0004746002800D178E7281C15F0BBF84746AA
:1008E000002800D171E7201C15F0B4F8002800D1D1
:1008F0006BE7042300936B4B281C019300230893A0
:1009000013F07CFD6F46B860F960201C13F076FD93
:100910005D4A5E4BBA61FB610023F3563861796131
:10092000022B7AD0684615F009F9002875D03B6A89
:10093000002B00D183E7BCE7201C15F08BF80028C2
:1009400000D142E7201C002111F08AFC002800D1D0
:100950003BE701230093534B281C01934346089324
:1009600013F04CFD6F46B860F960201C13F046FD93
:1009700038617961317800294AD0454A454BBA61DE
:10098000FB61022934D115F09BF9212303603A6AF7
:10099000002A00D153E74EE7281C15F05BF8002829
:1009A00092D0201C15F056F800288DD0404614F047
:1009B0008FFB6F46002835D101230093394B0890F7
:1009C000281C019313F01AFDB860F960201C13F085
:1009D00015FD347838617961002C19D02A482B49EB
:1009E000021C0B1C12F0B0FBB861F961022CCAD0DA
:1009F000684615F0A3F80028C9D1C4E715F060F9DE
:100A00002123036014E715F05BF9212303604DE710
:100A10001D4A1E4BBA61FB61EAE715F051F922232A
:100A2000036084E7032300931E4B4A46281C01936E
:100A3000089213F0E3FCB860F960201C13F0DEFCB0
:100A40000023F35638617961002B2DD1124A134BE4
:100A5000281CBA61FB61002111F002FC002845D17D
:100A60000023F356022B05D0684615F067F80028DE
:100A700000D01BE715F024F92223036016E7C046D7
:100A8000000000000000F03F000000000000000037
:100A9000000000000000F0FF000000E0FFFFEF4753
:100AA0007E000020D82A02001E4B1D4A281CBA6175
:100AB000FB61002111F0D4FB0028D1D0FC21201CC7
:100AC000890511F0D5FF13F099FC041C0D1C15F0DD
:100AD00037F8021C0B1C201C291C13F07DFD00287C
:100AE000BED1114A114BBA61FB61B9E7FC21201C50
:100AF000890511F0BDFF13F081FC041C0D1C15F0DD
:100B00001FF8021C0B1C201C291C13F065FD00287B
:100B1000A6D1074A074BBA61FB61A1E7C046C046B0
:100B2000000000000000F07F000000000000F0FF67
:100B3000000000E0FFFFEFC7F0B55F464D464446BA
:100B40005646F0B4041C50420D1C1043590049088D
:100B5000C00F884601438946774985B0161C1F1C83
:100B60009B46009401958C46894527D80198410001
:100B70004908039000988946009940420843C00FF5
:100B800049460143614519D86C48C01810434BD001
:100B900099170220084082460198C10F5046084329
:100BA000824600984946084317D1504602285BD038
:100BB00011DC002811DB201C291C05E0301C391C2D
:100BC000221C2B1C17F032F805B03CBC904699460D
:100BD000A246AB46F0BD032835D04046024305D1BE
:100BE0000399002946DB3F493D48EDE7524B9845C4
:100BF0001FD0514B99453AD048464146431A1B15E0
:100C00003C2B23DD374936485346012B40D0022B7D
:100C100033D0002BD8D0344A344B13F049F8344A3F
:100C2000344B13F045F8CFE7201C291C00F088F85E
:100C3000CAE7C14535D05046012842D03CDD0228E4
:100C400012D00328D5D12C482C49BDE75A46002A9A
:100C500022DB321C3B1C201C291C12F075FA14F0FC
:100C6000F1FE00F06DF8CFE721482249ACE7039A86
:100C7000002AB8DA22482349A6E71B4A1B4B13F087
:100C800017F8021C0B1C1A481A4913F011F89BE7BD
:100C900080242406091997E73C33DADA1A481B49FD
:100CA000B2E75246012A17D00EDD022A11D0032ADC
:100CB000DDD11748174987E700289AD11248134910
:100CC00082E7154815497FE7002AD0D11448154915
:100CD0007AE71548154977E71548164974E7C0467D
:100CE000182D4454FB21F93F075C143326A6A13C80
:100CF000182D4454FB210940182D4454FB2109C0F0
:100D0000182D4454FB21F9BF000000000000000032
:100D1000D221337F7CD902C0000000000000008097
:100D2000182D4454FB21E93FD221337F7CD9024066
:100D3000182D4454FB21E9BF0000F07F000010C0D3
:100D4000F8B556464D4644465F46C54BF0B44E0096
:100D5000814688468A4676089E420CDDC14B9E42FB
:100D600000DDA7E000D1A2E05046BF4A002800DC29
:100D7000E3E0BE4BA6E0BE4B9E4200DDB8E0BD4BBB
:100D80009E4200DCA6E001246442A3464A46434654
:100D90004846414612F0FCFC061C0F1C321C3B1C52
:100DA00012F0F6FC8F4B8E4A041C0D1C12F0F0FC66
:100DB0008D4A8E4B16F03AFF221C2B1C12F0E8FCD9
:100DC0008B4A8C4B16F032FF221C2B1C12F0E0FCDD
:100DD000894A8A4B16F02AFF221C2B1C12F0D8FCE1
:100DE000874A884B16F022FF221C2B1C12F0D0FCE5
:100DF000854A864B16F01AFF321C3B1C12F0C8FCC9
:100E0000834A844B061C0F1C201C291C12F0C0FCBA
:100E1000814A824B12F04CFF221C2B1C12F0B8FCB2
:100E20007F4A804B12F044FF221C2B1C12F0B0FCB6
:100E30007D4A7E4B12F03CFF221C2B1C12F0A8FCBA
:100E40007B4A7C4B12F034FF221C2B1C12F0A0FCBE
:100E5000021C58460B1C013000D170E05946CC00F2
:100E6000301C391C16F0E2FE4A46434612F090FC54
:100E7000814D0B1C81492D19021C0C19101C191CC9
:100E80002268636812F014FF4A46434612F010FFCE
:100E9000021C0B1C2868696812F00AFF021C5046ED
:100EA0000B1C00280EDA802000060B180AE0002830
:100EB00000D159E74A4643464846414616F0B6FE39
:100EC000021C0B1C101C191C3CBC90469946A246E7
:100ED000AB46F8BD584A594B16F0A8FE584A594B34
:100EE00013F094FB002800D14DE74A464346E9E75A
:100EF00014F0A8FD624B041C0D1C9E4230DC614BBB
:100F00009E4256DC221C2B1C16F090FE4C4A4D4B88
:100F100012F0CEFE4C4A4D4B061C0F1C201C291C07
:100F200016F084FE021C0B1C301C391C12F00CF94C
:100F30008846002181468B4628E7534BC2E7301C88
:100F4000391C16F073FE4A46434612F021FC021C7F
:100F50000B1C4846414612F0ABFE021C0B1CB1E7CD
:100F60004A4B9E421ADC3A4A3A4B12F0A1FE384AEA
:100F7000384B061C0F1C201C291C12F009FC304A9F
:100F8000304B16F053FE021C0B1C301C391C12F0A7
:100F9000DBF88146022088468346F7E62E482F4933
:100FA000221C2B1C12F0D0F88846032181468B4668
:100FB000ECE6234A234B12F07BFE214A214B061C10
:100FC0000F1C201C291C16F031FE0B1C021C391CA6
:100FD000301C12F0B9F80123814688469B46D5E6BD
:100FE00011DA22E33AAD903FEB0D76244B7BA93F1B
:100FF000513DD0A0660DB13F6E204CC5CD45B73FE9
:10100000FF8300922449C23F0D5555555555D53F94
:101010002F6C6A2C44B4A2BF9AFDDE522DDEAD3F88
:101020006D9A74AFF2B0B33F711623FEC671BC3F28
:10103000C4EB98999999C93F9C7500883CE4377E28
:10104000000000000000F03F000000000000004031
:10105000000000000000F83F000000000000F0BFAA
:10106000FFFF0F440000F07F182D4454FB21F93F8F
:10107000FFFFDB3FFFFF1F3E30EF010010EF0100DD
:10108000FFFFF23FFFFFE53FFB21F9BFFF7F03407A
:1010900008B5064B064803331B1A062B00D808BDBB
:1010A000044B002BFBD09847F9E7C046980000207E
:1010B000980000200000000008B50748074B1B1AE5
:1010C0009B10DA0FD318591000D108BD044A002A2A
:1010D000FBD09047F9E7C046980000209800002018
:1010E0000000000010B5074C2378002B09D1FFF752
:1010F000CFFF054B002B02D0044800E000BF0123C6
:10110000237010BD980000200000000074770200DA
:1011100008B5094B002B03D00848094900E000BF7F
:1011200008480368002B03D0074B002B00D09847DA
:10113000FFF7C2FF08BDC046000000007477020040
:101140009C0000209800002000000000144B002BA1
:1011500000D1124B9D46402292029A1A92460021DB
:101160008B460F461148124A121A1DF004FB0D4B14
:10117000002B00D098470C4B002B00D09847002044
:10118000002104000D000B481DF0C9F915F052F8BC
:10119000200029001BF08CFC14F098FD00000800D2
:1011A0000040002000000000000000009800002027
:1011B000382F0020E55F0100032210B50240012313
:1011C000002A03D1094904688C420CD0011C194043
:1011D0000123002907D10B1C002A04D10268044B0B
:1011E000D31A5A425341181C10BDC0463012020097
:1011F00034F7010010B5041CFFF7DEFF01230028BF
:1012000007D1031CA20704D12268034BD31A5A4208
:1012100053410120184010BD14FB010008B51AF01D
:101220002CFD0349021C034805F050FC0DF077FF2C
:1012300027300200DC0302000B68032273B51A405A
:10124000051C0E1C022A05D1980869461AF0F2FB0B
:10125000041C02E09A68DC680092736803221A405A
:10126000022A05D101A998081AF0E4FB011C02E04A
:101270009A68D9680192022D02D9084809F0F0FE57
:10128000019A0098824207D8801A20181DF042FA6D
:10129000002801D1024800E0024876BD5330020028
:1012A000281202006C120200F0B587B003900868A3
:1012B0000D1C0BF091FB071C286803230340022B35
:1012C00005D1800804A91AF0B5FB041C02E083686C
:1012D000C4680493686803230340022B05D1800887
:1012E00005A91AF0A7FB061C02E08368C6680593EF
:1012F000039B201C022B07D901220092AB68381CEB
:10130000211C049A05F064FD059A041B049BA41893
:101310009C4206D8311C1DF0FDF9002801D102487D
:1013200000E0024807B0F0BD281202006C12020073
:10133000F0B58BB0059008680D1C069207930BF072
:101340004BFB041C68680BF047FB061EA64202D04C
:101350006868FFF763FF286803230340022B05D169
:10136000800808A91AF066FB041C02E08368C468C0
:101370000893686803230340022B04D109A980085D
:101380001AF058FB02E08368C0680993089A03903A
:10139000A3180493059B271C022B1BD9AB6820497B
:1013A0008B4207D001210091301C211C05F010FD5B
:1013B000071C00E0271C059B032B0BD0EB68184A89
:1013C000934207D001220092301C211C089A05F09C
:1013D000FFFC0490049B381CD91B069B039A0093C6
:1013E000099B16F078FF011E0AD1079B012040429D
:1013F000002B12D00B490C4818F0A0FD0DF08FFE09
:101400000A4B9E4205D1201C1AF070F901214000C0
:1014100002E0011B4900012008430BB0F0BDC046AB
:101420008013020065300200ECFE0100900502000E
:10143000F0B589B0049008680D1C0BF0CDFA041CBF
:1014400068680BF0C9FA071EA74202D06868FFF768
:10145000E5FE286803230340022B05D1800806A976
:101460001AF0E8FA061C02E08168C668069168680E
:1014700003230340022B04D107A980081AF0DAFAEB
:1014800002E08268C0680792069A0499B318059032
:101490000393341C02291BD9AB6820498B4207D027
:1014A00001210091381C311C05F092FC041C00E065
:1014B000341C049A032A0BD0EB6818498B4207D0DE
:1014C00001220092381C311C069A05F081FC039021
:1014D000079A002A01D0002510E0039B201C191B4D
:1014E0001AF013F901304000012514E0201C059981
:1014F0001DF010F9002807D10135341C079A039913
:10150000A6188E42F2D904E0201C1AF0E8F8061C56
:10151000F3E76D000120284309B0F0BD80130200FD
:101520000323F7B50B40061C022B05D1880801A93F
:101530001AF080FA041C02E08A68CC680192019BD0
:10154000002B01D1144826E0144B251C9E4201D1EA
:10155000002712E0124B9E42FAD0019A2B1B9342B5
:1015600018D22878B04701350028F6D1EAE7287864
:1015700009F0F6FD002805D10135019A2B1B934295
:10158000F5D305E02878B0470028DBD00127F3E742
:10159000002FD7D00348FEBD6C120200A9B1000095
:1015A000C1B100002812020008B5011C0148FFF774
:1015B000B7FF08BD49B1000008B5011C0148FFF79D
:1015C000AFFF08BD61B1000008B5011C0148FFF77D
:1015D000A7FF08BD79B1000008B5011C0148FFF75D
:1015E0009FFF08BDA9B1000008B5011C0148FFF725
:1015F00097FF08BDC1B1000010B5041C0C2019F004
:101600008AFE034B446003600023836010BDC04624
:1016100000F10100F7B58A1801930092041C0E1C1A
:101620000B1C002200998B420DD21978272904D077
:10163000223948424141C9B201E00021012201336F
:101640000029EFD002E02225002A00D127251F4FD4
:10165000201C391C2A1C1AF006FD00998E422FD23C
:101660003278AA4203D1201C19492A1C24E05C2AA2
:1016700002D1201C17491AE01F2A0AD97F2A19D043
:10168000019B002B02D053B2002B0CDB201C391C19
:1016900012E00A2A02D1201C0F4908E00D2A02D1CB
:1016A000201C0E4903E0092A04D10D49201C1AF020
:1016B00010FC03E00B49201C1AF0D5FC0136CCE7E6
:1016C000391C2A1C201C1AF0CEFCF7BD7A3002000F
:1016D000793002007D300200803002008330020049
:1016E0008630020089300200032337B50B40051C09
:1016F000022B05D1880801A91AF09CF9041C02E00C
:101700008B68CC680193281C04491AF0E2FB281C62
:10171000211C019A0123FFF77DFF37BD24730200CE
:10172000F0B58FB0099010680C1C171C0BF054F921
:101730000890012C19D078680BF04EF9089A031C18
:101740007868934201D0FFF769FD03230340022B21
:1017500004D10DA980081AF06DF902E08368C06811
:101760000D930D9A05900A9203E0324A07230A93DB
:101770000592386803230340022B04D10DA9800889
:101780001AF058F902E08368C0680D930D9A099B1E
:1017900006900492012B04D1141C5B42013C0B9374
:1017A00002E001220B920024049B0025079303957D
:1017B0002E1C079A002A22D0069B05981A1901238D
:1017C00000930A9916F087FD002812D1039A002A87
:1017D0000ED1099B002B03D1261C049C013C19E06F
:1017E000099A012A15D00123251C261C039300E029
:1017F000251C079B0B9A013BA4180793D9E7039B71
:10180000002B08D10C4B089A06209A420FD00B48A7
:101810000DE0039E251C049B0135AA1B9A4201D1B1
:10182000386804E0069B0898991916F0ADFD0FB0D2
:10183000F0BDC046203002009005020060EF0100BC
:10184000F0B58BB00C1C051C03920BF0C5F8071CFF
:10185000201C0BF0C1F8874202D0201CFFF7DEFCF1
:1018600003232B40022B05D1A80805A91AF0E2F8A2
:10187000061C02E0A968EE68059103232340022BB1
:1018800005D1A00806A91AF0D5F8021C02E0A36849
:10189000E2680693069B002B05D11A491A4818F0F6
:1018A0004DFB0DF03CFC19498F4201D1062100E0AF
:1018B00017490791089109910399002901DD0795BE
:1018C00000E009950399301C0091059916F003FD7D
:1018D000002811D0851B2A1C311C381C16F054FD21
:1018E000069A059BA9185D1B07907118AA1A381C47
:1018F000089416F049FD099007A903200AF0DAFBC5
:101900000BB0F0BD90300200ECFE0100900502002B
:1019100060EF0100F0B585B0041C0D1C171C0BF026
:101920005BF80323061C2340022B05D1A00869465F
:101930001AF080F8041C02E0A268E4680092042F08
:1019400022D10099AB0715D1114B2A689A4211D1C7
:10195000081C01AA291C07F059FB002802D10D48D8
:1019600009F07EFB019B029AE118D21A301C16F096
:101970000BFD0AE00023301C2A1C0BF0DBF9205C75
:1019800001234000184300E0002005B0F0BDC04630
:10199000C0130200A0300200184B70B5061C0C1CCE
:1019A00098420ED1886849680AF02EFA051E08D0C0
:1019B000201C19F0CAFDAD0000230220236028433B
:1019C0001AE0102019F0A7FC6168051C8160066010
:1019D000A0680AF0FDF96168226801316860A068BA
:1019E000914201D019F0BCFCE860E968AA680023C4
:1019F0008B54281CA360236070BDC0469005020074
:101A0000F0B58BB0041C01910AF0E6FF0323061C1D
:101A10002340022B05D1A00802A91AF00BF8071CDD
:101A200002E0A268E7680292019883070BD103687D
:101A3000364A934204D103A904AA1AF023F80EE00F
:101A4000334A934206D032480121C468002201ABD8
:101A5000A0470190019803A904AA18F0C0FB002434
:101A6000251C039B9C4220D2049BA2009858009204
:101A70000AF0B2FFB04205D02649274818F05EFAB6
:101A80000DF04DFB002C01D0029AAD18049B009A7A
:101A9000985803230340022B03D1800819F0C0FF9C
:101AA00000E080682D180134DBE7291C06A819F036
:101AB00039FD089C0025039B9D4220D2002D06D0B5
:101AC000201C029A391C1CF034FE029AA418049AB5
:101AD000AB00985803230340022B05D105A98008C9
:101AE00019F0A8FF011C02E08368C1680593201C5F
:101AF000059A1CF01EFE059A0135A418DBE7301C80
:101B000006A9FFF749FF0BB0F0BDC046E01E02007A
:101B10008C070200D1300200DC03020008B5011C72
:101B2000014816F032FD08BD2BB7010008B5011CB5
:101B3000014816F02AFD08BD3FB7010070B51C1C16
:101B400088B000296FD0186803230340022B05D00A
:101B5000002B26D1354A0568954222D10239012948
:101B60005BD8022B05D1800804A919F063FF051C7E
:101B700002E08268C5680492236803221A40022AA0
:101B800004D1980819F047FF041C00E05C6810209D
:101B9000049E19F0C0FB264A86600260C56044605E
:101BA00042E0012939D8012210420AD04410211CF8
:101BB00004A819F0B7FC06980021221C1CF0DBFDDC
:101BC00026E001A91AF06FF8002805D0029A0199C1
:101BD000174816F0D9FB27E020680BF0EDF8002835
:101BE00002D104A8102101E0411004A819F083FCDF
:101BF000206808F08FFC041C201C08F0D9FC002889
:101C000006D00AF0C7FFC1B204A819F000FDF3E73F
:101C100004A90748FFF7C0FE06E00649064818F089
:101C20008DF90DF07CFA054808B070BD90050200F2
:101C300090F1010016310200DC03020060EF0100A8
:101C400038B5051C0C1C002A02D00AF013F903E079
:101C50000AF0DAF8002803D080000223184304E0D9
:101C60000248291C221C16F08FFB38BD900502008B
:101C7000F0B5002589B00E1C041C1F1C081C009523
:101C8000111C03232A1C04F0FFFAAE422CD0012EB3
:101C90000ED104A802AA102109F0ECF9396802A8B3
:101CA0002A1C0AF0A9FE201C04A9FFF775FE1CE0FF
:101CB000386883070ED10E4A036893420AD18668BA
:101CC000C5684768102019F026FB04608660C5606F
:101CD00047600AE004A901220BF00AF9059904986B
:101CE0000022FFF7ADFF00E0062009B0F0BDC046BE
:101CF00090F1010008B5031C0A1C0248191C16F0DB
:101D000043FB08BD90F1010008B503230340022BFB
:101D100001D180080DE0002B09D1064B02689A42E0
:101D200005D1C3688168181C0AF0A4F801E0FFF728
:101D300075FA08BD90050200032307B50340022B86
:101D400008D0002B0BD103689A69064B9A4206D142
:101D5000C06806E001A9800819F06CFE01E0FFF7F9
:101D60005DFA0EBDA11D0000032313B503400C1C3A
:101D7000022B0AD0002B0FD103689A69074B9A42B5
:101D80000AD18368C068019303E0800801A919F0B3
:101D900051FE019B236016BDFFF740FAA11D000014
:101DA000F0B5A1B0041C0D1C0D9203260A2800D02A
:101DB000CEE10792164010D11368B64A934206D17D
:101DC000079810A90FAA19F05DFE07960BE0B24A1A
:101DD000934202D10F96109605E00DAB0F930123AD
:101DE0001093002307930F9B109A0B9303230892E1
:101DF0002B40022B05D1A80811A919F01BFE099050
:101E000003E0AA68ED681192099514AA18A8102198
:101E100009F030F9099B119A099C9B180693002739
:101E2000069B9C4200D38AE12178252903D018A87B
:101E300019F0EDFB81E1069B651C9D4202D397489A
:101E4000974916E06178252904D118A819F0DFFB1D
:101E50002C1C72E10026282919D1A01C051C00E0C9
:101E600001352B78292B08D0069A9542F8D38B4858
:101E70008C4918F063F80DF052F9291A0122FFF786
:101E8000DFFE011C079809F045FE0135061C002302
:101E900020222C1C0A9305921D1C069B9C4211D2E9
:101EA00023782D2B01D1012306E02B2B01D1022316
:101EB00002E0202B02D104231D430FE0232B0BD083
:101EC000302B05D000231293069B9C4208D31FE0C1
:101ED00040221543059301E010220A920134DCE709
:101EE00023782A2B0FD1089A3B1E934202D36E48C7
:101EF0006E49BEE70B9A9B0098580AF04BFE0137DB
:101F00001290013404E0201C12A916F0B1F9241833
:101F100001235B421393069B9C4290D223782E2B85
:101F200020D1069B621C0C929A4288D263782A2B9D
:101F30000CD1089A3B1E9342D9D20B9A9B00985819
:101F40000AF028FE01371390023407E000230C98B2
:101F500013A9139316F08CF90C9B1C18069A944243
:101F600000D36CE7002E07D1089A3B1E9342BED2E5
:101F70000B9A9B009E5801372378672B0FD8652B4F
:101F800066D2582B00D1BFE004D81A1C453A022A69
:101F90005ED9C9E0632B12D0642B42D0C4E0732B0E
:101FA00007D8722B00D38BE0692B3AD06F2B5FD010
:101FB000BAE0752B35D0782B00D1A5E0B4E003232F
:101FC0003340022B05D0002B14D1394B32689A4292
:101FD00010D11CA9301CFFF7C7FE1C9A011C012A56
:101FE00002D03148334944E720230093129B14A8C0
:101FF00001930FE0301CFFF7DFF800280ED0301CF3
:102000000AF0C8FD129A1CA92023087001920093BF
:1020100014A801222B1C0CF0F5F98EE02248264969
:1020200027E7311CB30709D13268244B9A4205D106
:10203000301C0AF013FE04F0FDF9011C059A129BF6
:102040000192139A00950392029314A80A221FE0AA
:10205000301C0AF003FE059B22780093129B011CA2
:102060000193139B14A802932B1C19F0AEFF64E09C
:102070000A9A002A02D084239B001D43059B129AD2
:102080000193139B02920095039314A8311C08221C
:10209000612346E0E01E020078160200ECFE01001B
:1020A0003031020042310200DC03020058310200EC
:1020B000900502007F3102009831020014FB0100FC
:1020C0001CA8102116AA08F0D5FF227816A8723A8B
:1020D00053425A41D2B2311C0AF08EFC139A1D9B16
:1020E000002A00DA1393139A1E999A4200D91A1CF7
:1020F00020230093129B14A801932B1C0CF082F94F
:102100001CA819F022FA18E00A9A173B1543059A01
:1021100000950192129A14A80292139A311C03920C
:1021200010220CF0D1F908E0099A5049A41A009441
:102130001A1C4F4804F0CAFC9DE6013470E6089A68
:10214000974202D04B484C4993E64C4818A978E096
:10215000081C0AF041FC2E40071C022E05D1A808DD
:1021600016A919F067FC051C02E0AB68ED68169330
:102170000D98072C1CD118A90AF04AFD0026B04280
:1021800071D01899B14205DC3C4B06269F426AD0BB
:102190003B4E68E0169A1CA8514319F0C3F91E9BE8
:1021A000281C00930121169A189B18F0A8F846E005
:1021B0000AF012FC87420FD10D9803230340022B33
:1021C00004D11CA9800819F035FC02E08268C068BF
:1021D0001C9206901C9E0DE02A4B00269F4242D185
:1021E0000D981CA9012219F05EFDB0423BD01C9B4A
:1021F0001D9E06931D2C06D8192C26D2052C0DD019
:10220000122C0BD02EE01F2C2CD101230093281C64
:102210001699069A331C16F05EF81DE0169A1CA853
:10222000B11819F07FF9291C169A1E981CF081FA32
:10223000169A1E9B06999818321C1CF07AFA381CC4
:102240001CA9FFF7A9FB061C0DE00096201C291C09
:10225000169A069B18F087F8002801D00A4E02E073
:102260000A4E00E00026301C21B0F0BDA93102006A
:10227000ECFE0100DC030200DE31020090050200EA
:1022800060EF010090F10100281202006C120200C0
:10229000F0B59DB00C90086803230B910D9203409C
:1022A000022B04D10EA9800819F0C4FB02E081685A
:1022B000C0680E910590102110AA14A808F0DAFE4B
:1022C000059A0E9B0021D218079209910599079A49
:1022D000914200D38FE0059A1178141C01347D29B6
:1022E00008D1079B9C4202D251787D2910D0B44876
:1022F000B44934E07B2903D014A819F088F976E0BA
:102300000799261E8E4236D2059A51787B2904D130
:1023100014A819F07CF9059469E07D2915D02129CC
:1023200013D03A2911D019F01BF9041C31787D29FA
:102330000CD021290AD03A2908D0201C19F067F9BD
:10234000079B01369E42F1D115E000243378212B02
:1023500057D10799731C994205D899489A4917F0A3
:10236000EDFD0CF0DCFE75782B1C723B012BF4D8D4
:1023700002368E4246D392489449F0E7089819F005
:10238000FAF8049A002A00D17FE1002F00D120271B
:102390000A9A002A00D083E1049B3D2B00D18AE1F8
:1023A0005E2B00D189E13C2B01D101231D43301C60
:1023B000FEF702FF002800D1CBE1632C00D191E1B0
:1023C00000D983E1472C00D879E1582C00D1ADE148
:1023D000622C00D0B6E10F9900230291009501977D
:1023E000039310A8311C022261230CF06DF8059BA9
:1023F000013305936AE714A97548FFF7CDFA1DB0BC
:10240000F0BD00253378002208923A2B18D1731CB6
:10241000059373787D2B0ED019F0A2F8059E0890D5
:1024200007998E42A7D231787D2909D008980136C4
:1024300019F0EDF8F4E7059A079B9A4201D39AE761
:10244000059605990B787D2B02D05D48614986E79A
:10245000002C48D00023201C189319F0C5F8061C46
:10246000007808F089FE371C00281CD0099A002A41
:1024700002DD5348584972E7301C18A915F0F8FEE0
:102480000C9A189B013A3718934237D201330B99B3
:102490009B005E5801235B4209931AE02E2B05D066
:1024A0005B2B03D001373B78002BF7D1B91B301CD5
:1024B0000122FFF7C5FB061C311C0D98002203F01A
:1024C00059F9002804D1311C444817F030FD48E781
:1024D00046683B78002B02D0414808F0C1FD201C23
:1024E00019F049F813E0099A002A02DA34483D4904
:1024F00035E70C9B0999013B994202D33A483B4985
:102500002DE7099B0B9901339A0056580993089AB5
:10251000002A03D1002D00D18BE101E0002D11D064
:1025200012AA18A81021733D08F0A4FD6A1E954157
:10253000311CEAB212A80AF05FFA254818A9FFF781
:102540002BFA061C01235B420F931293089B002B6E
:1025500000D196E0181C19F047F80778041C0020F9
:10256000874205D02248391C1CF0E5F9431E9841EA
:10257000002803D004970134002711E00490002FB5
:102580000ED061780491002904D019481CF0D3F9C9
:10259000431E9841002801D0023401E00490071C3A
:1025A00022780A922B2A05D02D2A05D00425202A2C
:1025B00020D102E0022500E0002501341CE0C046E5
:1025C000ECFE0100133202003B32020054320200E2
:1025D000900502006C32020090320200CC0402002E
:1025E000F33202001033020048000200DA32020027
:1025F0005A33020000250A952378232B02D1102399
:102600001D4301342378302B07D1049B002B01D1CB
:102610003D210491002F00D13027201C0FA915F077
:1026200027FE2018037806902C2B04D1021C2023AF
:1026300001321D43069206990B782E2B07D10C1CF4
:102640000134201C12A915F013FE20180690069ADA
:1026500000201478844205D07748211C1CF06BF9C7
:10266000431E9841002803D0069B0133069300E0E7
:10267000041C06990B78002B00D17FE66F48704947
:102680006DE6089D2C1C2F1C0A95301CFEF7B2FD30
:102690003C230493002800D177E63E21049174E6A0
:1026A000732C02D16548674959E6632C00D073E664
:1026B0006248654953E6402378E6802376E6452C58
:1026C00047D2002C19D0252C43D03BE0672C02D8F0
:1026D000652C12D33DE06F2C19D0782C26D06E2CAF
:1026E00030D10AE0301C0AF055FA0F9A18A9087088
:1026F0000192009710A801228DE00F9B0095029394
:1027000000230197039310A8311C0A226CE6E90606
:1027100002D580239B001D430F9A0023029200954F
:102720000197039310A8311C08225DE60F9900223F
:10273000231C02910392173B0095019710A8311CAE
:10274000102252E6301C19F098FA4049031C3B480D
:102750006BE0301CFEF74EFD002838D0002C1FD057
:102760006E2C1DD0472C15D8452C1AD2252C27D1DC
:10277000301C0AF073FA364910F07AF90F9A802368
:102780000192129A5B00011C02922B43009710A841
:10279000662212E0231C653BDBB2022B10D800E05E
:1027A0006724301C0AF05AFA0F9A129B011C0192FE
:1027B0000293009710A8221C2B1C19F006FC16E6A9
:1027C000301C19F05AFA2349031C1C482DE0049BC5
:1027D0003D2B02D119482049C1E5002C02D0732CB1
:1027E00006D01CE010A8311C221C0AF005F9FEE5F9
:1027F00018A9301CFFF7B8FA129B011C189A002B7D
:1028000000DA1292129B9A4200D918930F9A0097FD
:102810000192189A10A82B1C0BF0F4FDE7E5301C70
:1028200019F02BFA0D49031C0448221C04F04EF940
:1028300097E5732574E6C0465F330200ECFE0100A5
:102840006F33020088330200B4330200E733020022
:102850000000C842183402004C34020081340200E7
:10286000F0B5071C87B008680D1C0AF0B5F8009099
:10287000012F07D96C68022F05D0A8680AF08AF9E1
:10288000071C02E0484C01277F420020011C17F082
:102890008EFC0190286803230340022B05D1800899
:1028A00004A919F0C7F8051C02E08268C568049203
:1028B000049B3D4AEE18944238D1B54229D228787B
:1028C00008F042FC002824D00135F6E7002F23D081
:1028D0002C1C207808F038FC002802D10134B442C6
:1028E000F7D1291C621B009815F04EFD011C0198C0
:1028F00004F0CAFEB44254D2207808F025FC002827
:1029000002D00134B442F7D1FB17DB1BDB0FFF1AF7
:10291000251CB542DAD344E0291C721B009815F03F
:1029200033FD011C019804F0AFFE3AE0201C0AF0D0
:1029300053F8009B0290984202D0201CFEF76EFCD8
:10294000201C05A9FFF710FA059A0390002A22D14E
:102950001649174817F0F2FA0CF0E1FB201C039916
:102960001BF0D8FE002805D00134009AA3189E421F
:10297000F4D2341C291C621B029815F005FD011CC1
:10298000019804F081FEB4420BD2059BE518FB17B9
:10299000DB1BDB0FFF1A002FEBD0059B2C1C0093D9
:1029A000E3E7019807B0F0BD801302009030020009
:1029B000ECFE0100F0B50C1C8BB0022802D8FFF72A
:1029C0004FFF82E008680AF007F8059020680323AB
:1029D00065680340022B04D108A9800819F02AF881
:1029E00002E08168C06808910090A0680AF0D2F8FF
:1029F000421C041C0021101C069217F0D8FB344B1B
:102A0000061C9D4202D1334808F02AFB281C09A964
:102A1000FFF7AAF9099B0790002B05D12E492F48F3
:102A200017F08CFA0CF07BFB0099089AA300891828
:102A300002910393271C09990191002C0DD0029A51
:102A4000551A009B9D4208D3281C0799019A1BF038
:102A500061FE002820D0013DF3E7F168BC000D19AC
:102A6000029B009905985A1A15F08EFC2860002FD9
:102A700010D0069AF068D51BAF0001193A1C1BF064
:102A800061FE7368F1685A1BC819920000211BF09F
:102A900072FEB560301C18E0039BF2680598D218EE
:102AA0000492029B019A013FA9185A1B019BD21A5A
:102AB00015F06AFCE317039A1B1B0499DB0F043A19
:102AC0000860E41A03920295B5E70BB0F0BDC0466A
:102AD00080130200B334020090300200ECFE0100CB
:102AE00010B5041C082018F016FC024B446003606B
:102AF00010BDC046D8F10100F8B503780021041CD0
:102B00008B4200D18DE0402B01D1012026E04649C7
:102B100015F056FE0028F8D1201C444915F050FE4F
:102B20000028F2D1201C424915F04AFE0028ECD1C1
:102B3000201C404915F044FE0028E6D1201C3E49E7
:102B400015F03EFE0028E0D1201C3C4915F038FE6F
:102B50000028DAD1201C3A4915F032FE00231D1C52
:102B60001E1C1F1C2278002A45D0272A10D1002BBA
:102B700001D0032B08D16278272A05D1A278272A11
:102B800002D10234032216E00122012B31D812E0D7
:102B9000222A12D10422191C914309D161782229D9
:102BA00004D1A178222901D1023404E0002B01D004
:102BB000022B1ED10222D31A1BE0002B19D15B2A53
:102BC00012D006D8282A0DD0293A51424A41BF1ABC
:102BD0000FE07B2A0AD07D2A0AD05D3A51424A4151
:102BE000B61A06E0013704E0013602E0013500E0E4
:102BF000013D0134B6E70121002F12DC002E10DC6C
:102C0000002D0EDC033B8B420BD9013C23785C2B5F
:102C100007D00840111C002803D00A3B591E8B41E5
:102C2000D9B2081CF8BDC0467F6E0200C234020053
:102C3000C8340200CC340200356702005577020028
:102C4000095C0200F0B541188BB0051C0592079392
:102C500002910C1C0494013CA5420FD8207808F086
:102C60007FFA0028F6D1207808F086FA0028F1D102
:102C700023785F2BEED02E2BECD000E004957A4B1E
:102C80001E68049C029884420AD3049A029BA21AEA
:102C900003929C4209D30024271C251C029451E076
:102CA00023782E2BF1D00134ECE70025B268954251
:102CB0001ED2F268EF00D059002803D0031F5A1E1D
:102CC000934100E0031CDA0714D509A9FFF74CF87B
:102CD000039B011C099883420CD104981A1C1BF019
:102CE00047FE002806D1F368DF197868002803D171
:102CF0000020B6E00135D9E783070AD103685B4AB3
:102D0000934203D117F0BFF8061C0DE0584A9342D6
:102D100001D009F061FE866B002EE9D0B007E7D143
:102D2000544B32689A42E3D101340494A9E7F26823
:102D3000E3009858002809D0031F5A1E9341DA0770
:102D400006D40134B0688442F1D328E0031CF6E7CE
:102D500009A9FFF709F8099B019003980693984287
:102D6000EFD804980199039A1BF002FE0028E8D1DD
:102D7000002D0CD0039BBB420DD8069A93420AD873
:102D80000198E95CC25C914204D10133F3E7069FEC
:102D9000019D00E01F1C029B01330293D1E7029AC0
:102DA000002AA5D0012A06D0039B9F4203D8002009
:102DB0000290402413E0039A0798AB180360B81AF6
:102DC0004FE0029AD300F268985800280CD0031FF5
:102DD0005A1E9341DA0709D4029A01320292029BE9
:102DE000B0688342EDD336E0031CF3E709A9FEF790
:102DF000BBFF099F039B0190BB42EDD8049801994A
:102E00001A1C1BF0B5FD0028E6D1231C0F33DD177B
:102E10002D0FED182D112D012D1B012D00DC10356E
:102E20006319DF19402F0FD800270598AF4204DA45
:102E3000114919F04EF80137F7E7019919F049F8EF
:102E4000099824186419C7E705980C49019A19F0E4
:102E50000AF9099CC0E70598094919F03AF80120D8
:102E600040420BB0F0BDC046082E002084FD01009A
:102E7000E40E020078160200A75E0200D0340200C1
:102E8000B4720200F0B5051C47690C1C0068C968E3
:102E900089B0009343182B602B1C1433AB603B1C90
:102EA00003339B00EB180397281CBF00161CEB6034
:102EB0003A1C0021183001971BF05DFC0E9FB300F7
:102EC000FB18227A039F0593637AB91ACB1A05334C
:102ED0009B000293EF18E37A96420CD9980730D5FD
:102EE0000E9BB01A9200991809F0E4F80299043F79
:102EF0004851267A2BE09A0703D5824B0298043F6B
:102F000043510099002922D1E37ADA071FD4217AAC
:102F1000A37ACA1A964214D35B1A9B00E318029351
:102F2000019BEB180493331C8B4210D204989A0037
:102F3000801A844602980133821812696046426101
:102F4000F2E77149331C714803F0C0FDBCE0019900
:102F5000002349198C46B34207D00E999A0088582D
:102F600061468A1A50610133F5E7009AE37A002A34
:102F700002D1D80700D4A0E00026590704D5009854
:102F800018F0D6FC061C38602A6807A8079215F0CE
:102F900034FC2B68059F181804900020043701901A
:102FA00001980099227A88422CD03B1F1968637AD5
:102FB000D21894460023634515D0049A98001058FF
:102FC00081420ED1039A013AD31A9B00EB189869FB
:102FD000002803D08A084D484D496BE03968996153
:102FE0000BE00133E7E7E37A5A0702D4474849493F
:102FF00068E0301C3A6818F0D3FC019B08370133B5
:103000000193CDE7039FA07ABA1A06329200C61C3C
:10301000AA18B600A619111C0023984209D00F68FF
:10302000002F03D19F007F42F7590F600431013315
:10303000F3E78000121803980630800028188242B7
:1030400009D20432131F1B68002BF4D1821A92108C
:103050002E4831492EE0002614E0A17AF3180431FD
:10306000890008599900049B0430C95802F082FB7A
:10307000002817D0237A4068FF1ABF1B0637BF000D
:1030800078510136637A9E4226D2039F237A013F0C
:10309000FA1A921B063292005259002AF1D1E17AB3
:1030A000C807DAD4237A049FF618B600F2591748F5
:1030B0001A49920803F00AFD06E0627A002A05D058
:1030C0001248174916F03AFF0CF029F8580703D5B3
:1030D000009818F02DFC3860E468696864180134C1
:1030E000631E1B78FF2B09D0039E013EF61AB60023
:1030F000AE19B069FFF7F4FCB061F0E76C6009B09D
:10310000F0BDC046681F0200D4340200DC03020098
:103110000D3502003C35020065350200973502008E
:10312000C735020008B589689222024B15F07FFB73
:1031300008BDC046E143000008B589683F22024B44
:1031400015F075FB08BDC04665940100F7B50C1C71
:103150000090019200D1C4E0A10700D0C1E06568F1
:10316000EBB2AA3B022B00D8BBE02D0A01235F1C67
:10317000013BAB4208DABE000098A159019AFFF763
:10318000E5FF3B1CA051F2E720796B38122800D9EB
:10319000A7E00EF085FF13A6212EA64FA665A6A6D2
:1031A00094A6A6A6A6A6A6A60A00012D00D098E081
:1031B000A3682B4200D194E01C1C92E0022D00D0A9
:1031C0008FE0A1680120014200D18AE0E368034258
:1031D00000D186E019430AE0022D00D081E0A16809
:1031E000012001427DD0E36803427AD019400141B9
:1031F00074E0032D75D1A1680120014271D02369CB
:1032000003426ED0384AE5680141034195420CD132
:103210001F2B66DC354A1A41914262DCC02212063D
:103220001A4191425DDB994058E01F2B00DD1F23BE
:10323000194113E0032D54D1A26801210A4250D054
:1032400023690B424DD02A48E5680A410B41D11A47
:10325000854200D1D1184B004B4042D401203DE0C3
:10326000032D3ED1A76801252F423AD026692E4270
:1032700037D0E3681F4A2F412E4193420BD1381CAF
:10328000311C04F079F900282BD1311C79434B0013
:103290004B4012D525E0184A934222D0174A934258
:1032A00004D1381C311C16F0AEFE05E0002E18D0FB
:1032B000381C311C16F0B6FE011C281C0EE0E1681B
:1032C000012001420DD0A368094A0141934205D073
:1032D0000B4A934201D1494200E0C94316F022FB58
:1032E000041C201CFEBDC0467E030000FFFFFF3F04
:1032F000FE0200001E0300003E0300005E0300000B
:103300000E03000008B50B1C4179426A012904D163
:10331000101C191C16F0A2FC03E0806A014916F08B
:10332000D7FC08BD3027020008B50B1C4179426A62
:10333000012904D1101C191C16F0B0FC03E0806AAE
:10334000014916F0C5FC08BD2027020008B50B1C7A
:103350004179426A012904D1101C191C16F09EFC07
:1033600003E0806A014916F0B3FC08BD4027020063
:10337000F7B50D1C4179041C131C012903D12A1C2B
:1033800015F08EFAA861A38A00260093E38AE779F4
:10339000E6710193201C124BA682E682E9680C229A
:1033A00015F045FAA368301CB34218D1E18AB14246
:1033B00008D0A38AB34205D1A06A19F0FAF9A06A2D
:1033C00019F05BF8AD69A38A201CE28A291C15F06C
:1033D0008BFA009BE771A382019B6869E382FEBDC3
:1033E000C945000038B58368041C0D1C002B09D1A9
:1033F000111C054816F0A2FDA060201C0C30291CF1
:1034000015F0D8FA38BDC0465404020008B5024A87
:10341000FFF7E8FF08BDC046EE350200F0B54A6888
:103420008BB00024120A02900E1C03920194251CFA
:10343000039B9C4220DAA300F3189868830706D008
:103440000F270740000918F0EBFA451906E0037949
:103450000A27AA2B00D10627C368ED18002C08D034
:10346000019A974206D00298311C214AFFF7BAFF11
:103470003BE001970134DBE7029A5379042B02D039
:10348000906A1C492FE006A8291C18F04BF8089CEC
:103490000027039B9F4219DABB00F3189D68AB0716
:1034A0000BD005A9280918F0C5FA059A011C201CA3
:1034B0001BF03FF9059AA41806E0201CA968EA68E9
:1034C0001BF037F9EB68E4180137E2E7029A019B39
:1034D000946A062B01D1084800E0084806A9FEF7C7
:1034E0005BFA011C201C18F0BCFF0BB0F0BDC046FD
:1034F0000B360200801302009005020090F10100DB
:1035000010B5438B041C002B02D1054AFFF76AFF5C
:10351000A28BE38BA06A618BD21A0BF0B9FD10BDB0
:103520003236020010B5038B041C002B02D1054A71
:10353000FFF758FFA28BE38BA06A218BD21A0BF006
:10354000A7FD10BD4A360200F7B50C1C051C0F2163
:10355000201C0840022801D1210904E02079904272
:103560000ED1A3681909EA796B6A002A04D1DA8BB3
:103570000132DA83012624E01A8C01321A84F9E739
:10358000984216D10122EA71A368002B2DD0194070
:103590006B6A022905D1197F0A431A77A3681909B2
:1035A00005E0197F0A431A77A36899680909032679
:1035B00007E0A368022019096B6A05261A7F0243F7
:1035C0001A77002911D06F460737686A3A1C15F040
:1035D0009AF83B78002B05D1281C211C034AFFF7E1
:1035E00001FF02E0022303704670F7BD5F36020060
:1035F00010B54379846A042B02D0201C054905E0EC
:103600008868C968FEF776FB011C201C18F029FFAA
:1036100010BDC046801302000B1C0F2213B51340CF
:10362000041C0909062B06D00A2B08D0022B19D13D
:10363000FFF768FE1CE0806A18F007FF18E0437986
:10364000042B02D0806A0B4909E0081C01A918F07C
:10365000F1F90199A46AFEF74DFB011C201C18F03A
:1036600000FF05E0052903D0806AC9B20BF0F4FC25
:1036700013BDC0468013020038B5051C0C1E1CD0BB
:10368000CB0704D5806A491018F098FE15E08B0727
:1036900002D0FFF7C1FF10E0806A09680BF092FCCE
:1036A0002279064B9200D358281C211C002B03D1F1
:1036B000034AFFF797FE00E0984738BD48F2010043
:1036C00078360200F7B5041C0D1C161C03200542B9
:1036D00013D00F232B40022B0BD12909201C002EC5
:1036E00001D0022E02D1FFF71FFED1E0FFF70AFE44
:1036F000CEE0201C291C674AC8E06A68FF27131C1B
:103700003B407D2B73D004D8252B68D0772B05D078
:10371000B5E07F2B7AD0922B61D0B0E0022E03D09F
:10372000201CA968FFF7A8FFE9680091002900D1D3
:10373000A5E0009A0323134000D0A0E0171C5268B4
:10374000D1B2782917D1120A01921F1C022E05D17D
:10375000019B009901339B005F580CE0019B013BEA
:103760009F42F5DA009ABB00D3189968201CFFF736
:1037700083FF0137F2E73B79882B16D1022E04D163
:10378000A06A18F02BFFA06A0CE0201CB968FFF7B4
:1037900073FFA06A012E05D118F0C8FEA06A18F0C8
:1037A00098FE18E018F0ADFE15E0892B67D1A06AED
:1037B000012E07D118F0B0FEB968A06A090918F007
:1037C00066FE08E0022E01D118F0C5FEB968A06AB5
:1037D000090918F089FE2B69002B50D158E0002E02
:1037E00051D12B1C120A0833201C311C44E0AB6859
:1037F000002B44D0034201D01D1C67E75968181CF8
:103800000F40812FF8D1002E3DD114E0002E3AD187
:10381000A968002904D1201C311C321C331C2BE068
:10382000014204D14A68081C1740812F03D00022AE
:10383000201C131C20E0C668002E18D00323334040
:1038400015D17268FF21171C0F40842F03D18168A6
:103850001A1C201C10E0852F05D1331C8168120A28
:103860000833201C08E043681940A42907D0031C32
:103870000833201C0021022200F012F808E0201C6E
:10388000291C054A02E0054A201C291CFFF7AAFD55
:10389000F7BDC04690360200A8360200C3360200CB
:1038A000F0B587B005930B1C03925A1E9341DBB20F
:1038B000051C0E1C0293002B0BD003240C4008D1D6
:1038C0000B796A2B05D1806A211C039A18F0D5FF69
:1038D00001E001246442039A059B013A0492171CFB
:1038E00001937B1C1ED0019A1168002915D08B070B
:1038F00013D10B796A2B10D1013409D1049A029BA0
:10390000A86AD418E41B211C3A1C18F0B6FF04E086
:10391000281C1D4AFFF766FD34E0019A013F04327E
:103920000192DEE7621C09D1029B039AA86A9918EA
:1039300018F097FF029B002B0DD109E0029A002A94
:1039400006D0002C07D1B168281C221CFFF7BAFE54
:10395000059F00260FE0281C311C0022F6E7029A82
:10396000B318A3420BD13B68281C99680022FFF7CB
:10397000A9FE01360437039B9E42F0D102E0281CC9
:103980003968F3E707B0F0BDEF360200F0B5012368
:10399000041C0E1C427187B061620361111C806AB5
:1039A000321C0BF05DFA6379012B02D10023B38442
:1039B000F384F568002D09D0AA0707D12B79042BD1
:1039C00004D1A968201CFFF757FEB9E03378002B1B
:1039D00004D1201C291CFFF74FFE7EE06279029281
:1039E000012B14D1012A07D10023E371201CE968BF
:1039F0000C22574B14F01BFF201C6969FFF73CFE9B
:103A0000A06A18F09EFC002800D09CE065E0022B24
:103A100016D1029B012B07D10023E371201CA9685A
:103A200014224C4B14F003FFE968201CFFF724FE1E
:103A3000337F5A0700D483E0A06A18F081FD4CE080
:103A4000033B032B4BD8029BEF68012B09D16A463D
:103A5000191C1732606A14F056FE029A0223037092
:103A6000F2833378032B04D1A06A002118F0AEFE54
:103A700005E0042B03D1A06A002118F0C1FE2369E0
:103A8000201C029301330393029B01210233236123
:103A9000FFF738FCA06A039918F05CFCA06A029951
:103AA00018F023FE201CB9680022FFF70BFE00234C
:103AB000AA683969201C0093039B15F008F8A06AD6
:103AC000039918F0A0FDA06A029918F043FCA06ABF
:103AD00018F017FE3378062B32D1A06A28E0029A3C
:103AE000012A07D16A46301C0421173214F00BFE5C
:103AF00002230370201C0C21FFF704FC201C0B2167
:103B0000FFF712FCAB68A06A190918F09EFC201C94
:103B10000F21FFF709FC2969201CFFF7ADFD301CC0
:103B2000042114F0E0FD0278031CA06A022A03D1EC
:103B30000F210BF091FA03E05A88042118F09CFB46
:103B4000A06A18F0F0FEA06A0BF0FEF907B0F0BD15
:103B5000D5890100C9890100F0B589B0041C0D1C8C
:103B6000059104921E1C002924D18379002B21D0B9
:103B7000416A0B78012B1DD10421FFF7C3FB626A58
:103B80002B1C568DB34211DAD16AD800081845783B
:103B900001210D4208D04288A06A18F06DFB002276
:103BA000A06A0221131C6EE00133EBE7201C002108
:103BB000374A21E005A89C2107AA15F04AFF0027F3
:103BC00003903D1C019705E08968201C1D43FFF709
:103BD00053FD0137039B9F4248DA079ABB0099586F
:103BE000002939D08B0737D10B799E2B07D10123C0
:103BF0001D42E9D0274A201CFFF7F4FB45E09F2B2C
:103C000005D102231D42DFD0201C234AF4E7A02B5C
:103C100022D1CA68536802920093009AFF2313408E
:103C2000A22B14D18B680F221A40022A02D0201C2A
:103C30001A4AE1E71909A06A18F007FC029B201C48
:103C40009968FFF719FD019901310191C1E7201C25
:103C5000062215F027F807E0019A201C002A01D05F
:103C60000F4AC9E7FFF708FD0136B2E70499A06AD9
:103C7000002905D0311C019A2B1C18F049FE04E0E4
:103C8000019A311C2B1C18F039FE09B0F0BDC0465A
:103C900009370200273702003E370200563702007C
:103CA00077370200F0B58D6885B0041C002D04D173
:103CB000806A291C18F0A4FD4FE003262E404CD149
:103CC0002B79962B0BD1806A012118F099FD201CCD
:103CD000291CFFF7D1FCA06A18F09EFD3DE0952B52
:103CE0003BD1E868FF2342681340982B30D103AAE8
:103CF0009921083015F0ADFE011C01900131A06A38
:103D000018F07EFD201CA968FFF7B6FCA06A18F029
:103D100083FD019A964220DA039AB300995800274E
:103D2000B94205D08B0703D10F79963F7B425F41A3
:103D3000201CFFF7A1FC002F05D1201C291C084ADC
:103D4000FFF750FB09E0A06A18F066FD0136E0E7D6
:103D5000201C291C042214F0A5FF05B0F0BDC046AC
:103D600099370200F8B54B680C1C8968061C1F0ABD
:103D7000FFF782FC0225BD4217DA301C2169FFF7EC
:103D80007BFCE368094AB06A0721934208D0084ADD
:103D90000821934204D0074A0921934200D00A2106
:103DA00018F0E4FC02350834E5E7F8BD1E03000016
:103DB0004E0300003E0300004A68F8B50C1C8968F9
:103DC000061C170AFFF758FC0225BD420FDA301C0B
:103DD0002169FFF751FC064BE268B06A05219A425F
:103DE00000D0062118F0C2FC02350834EDE7F8BD1A
:103DF000FE0200004A68F8B50C1C8968061C170A08
:103E0000FFF73AFC0225BD420FDA301C2169FFF7AB
:103E100033FC064BE268B06A03219A4200D00421C9
:103E200018F0A4FC02350834EDE7F8BD7E0300006D
:103E3000F0B58B68041C0F208FB00D1C0340022BC3
:103E400044D1CB68002B41D003210B423ED11A79DB
:103E5000772A3BD19A681040022837D11209842A68
:103E600034D1DA68002A31D00A422FD15068FF21BC
:103E7000014087292AD11B69002B27D192680CA801
:103E80000C929C210DAA15F0E4FD431E061C022B8A
:103E90001CD8012808D1002115F044FD0D9B01908C
:103EA0001F68301C311C07E00D9B022808D11968DF
:103EB00001205F680191011C15F034FD061C54E0DF
:103EC0001A689E6801925F68F3074ED4638B266977
:103ED0000493A38BE08BE383634B228B33432383D5
:103EE000331D2361771CB11C03920590F21C0191D4
:103EF000201CE96867830692FFF7BEFBA06A18F0F2
:103F0000EAFBA06A391C18F025FAA06A019918F09A
:103F1000ECFB201CA9680022FFF7D4FB201C2969B8
:103F2000FFF7AAFBA06A18F00CFA002803D1A06AD8
:103F3000391C18F068FB0199A06A18F00BFAA06A06
:103F400018F0DFFB039B0498059923836083E183CA
:103F5000201C6969FFF790FBA06A311C18F0FAF980
:103F6000A06A069918F0F6F97CE0AA682B696D69D9
:103F7000079308952569618B6B1C04936383A38B5E
:103F8000208B0292E28BE3832B1D23610123099096
:103F90000B92A81CEA1CBB430A910590258306924C
:103FA000039303D0201C391CFFF766FB201C0199EA
:103FB000FFF762FBA06A069918F025FB0599A06A35
:103FC00018F0C8F9A06A18F0A7FA0022201C02997C
:103FD000FFF778FB201C0799FFF74EFBA06A0499B6
:103FE00018F0B8F9201C311CFFF746FBA06A12211B
:103FF00018F0BCFBA06A069918F0ACF90399A06A06
:10400000002905D018F092FAA06A18F0A4FA05E089
:1040100018F082FA201C391CFFF72EFBA06A002E34
:1040200001DB192100E01A2118F0A0FBA06A012190
:10403000059A18F0F4FA099A0A9B0B982283638375
:10404000E0830899201CFFF717FB291CA06A18F0D1
:1040500081F9A06A18F074FA0399002902D0A06AC5
:1040600018F06EFA0FB0F0BD0080FFFFF8B5CE6813
:10407000041C0D1C002E29D10379002B11D0436A9A
:104080001E78002E0DD11121FFF73CF9A968201CE4
:10409000FFF7F2FAA06A0121321C331C18F02EFC43
:1040A00010E0A9688B0704D00F230B40022B56D1D8
:1040B00005E0002903D00B79AA3B022B4FD9201C25
:1040C000FFF7DAFAA06A18F03BFA48E07368DAB250
:1040D000212A16D189680122FFF7F4FAF168201C21
:1040E000FFF7CAFAB36818211B094E3B0A2B01D807
:1040F0001B4AD15CA06A18F039FBA968201C022277
:104100002BE0222A23D11B0A5F1E01339B009B59FF
:104110009968FFF7B1FA002F02DDA06A18F0FCF9E8
:10412000A968201C0022FFF7CDFA0025BD4216DA4F
:104130000135BD4202DAA06A18F0EEF9AB00F318BF
:104140005B68201C99680022FFF7BCFAEEE7B168B3
:10415000FFF792FAA968201C0022FFF7B3FAF8BD16
:10416000CD380200F7B54A680F1C120A8968041C92
:104170000092FFF781FA009B032B05DD26690122DF
:10418000B3180192236102E0002301931E1C012554
:10419000009A6B1C934230DA201C3969FFF76CFAE5
:1041A000009A0235954205DAA06A18F0B5F9A06ABE
:1041B00018F014FAFB680F221A40A06A0E2A07D1E1
:1041C0001B09363B1F210B2B0BD81A4AD15C08E088
:1041D0001A792221672A04D09B682021002B00D065
:1041E000232118F0C3FA009B9D4204DAA06A002143
:1041F000321C18F025FA0837CAE7019B002B18D0AB
:104200002569A06A6B1C2361291C18F0FCF9A06ABF
:10421000311C18F09FF80121A06A18F097F8A06AE5
:1042200018F099F9A06A18F08BF9A06A291C18F007
:1042300091F8F7BDD8380200F0B5056987B01F1CAA
:10424000AB1C041C03610E1C0592291C6A1C806AAD
:10425000049218F01DFA201C14F0DFFA311C201C07
:10426000FFF70AFAA06A18F052FAA06A049918F047
:10427000CAF9A06A291C18F06DF8A06A18F08DFB25
:10428000236900220393013323610092009A059B66
:104290009A4200DB8BE03B6822690193131C0133D7
:1042A0002361019B02929E68002E0DD1009B059A0E
:1042B0000133934223D03968201C484AFFF792F813
:1042C000A38B013BA38387E00025B30706D1327996
:1042D000331C502A02D1DD68B6682D09A06A18F097
:1042E0001BF9201C311CFFF7C7F9A06A212118F027
:1042F0003DFAA06A0021029A18F091F900E0351CFD
:10430000A06A18F01DF9002D03D1A06A18F018F961
:1043100003E0201C291CFFF707F8A06A002618F00C
:104320000FF9B54209D02669A06A731C2361311CBC
:1043300018F0BAF9201C14F070FA019A201CD16808
:10434000FFF79AF9002D02D0A06A18F0E0F9A06AF0
:1043500018F0E7F9002D19D0A06A0F210AF07CFEB1
:10436000A06A311C17F0F6FFA06A0F210AF074FE54
:10437000201C291CFEF7D8FF201C291CFEF7E6FF95
:10438000A38BA06A013BA38318F09AF9A06A039952
:1043900018F039F9A06A029917F0DCFFA06A03212E
:1043A00017F0D4FF009B0437013300936EE7A38B13
:1043B000A06A013BA38318F083F9A06A18F0F1FA10
:1043C000A06A049917F0C6FF201C0C99FFF754F956
:1043D000A06A039917F0BEFF07B0F0BDBC3702001A
:1043E000F7B5051C0C1C0F232340022B04D1210917
:1043F000281CFEF7ABFF72E0002C6BD003273C4279
:1044000068D12379772B36D1281CA168FFF734F9BE
:10441000E668002E5ED037405CD17268FF21331C05
:104420001140782911D1120A0192019B013B9F4250
:1044300007DABB00F3189968281CFFF71DF901374C
:10444000F3E7019B01339B009B591A79882A07D116
:10445000281C9968FFF710F9A86A18F0C9F806E057
:10446000892A37D19968A86A090918F07EF8226963
:10447000002A2FD133E07D2B2CD1A468002CB2D0A0
:104480003C42B0D16368FF221340812BABD1E66878
:10449000002E19D03E4217D17768FBB2842B01D190
:1044A000A468A0E7852B0FD1A168281CFFF798FF0F
:1044B0003F0A0024BC4212DAA300F3189968281CB2
:1044C000FFF78EFF0134F5E7A168281CFFF788FF8E
:1044D000E46888E7281C211C014AFEF783FFF7BD2A
:1044E000DB370200F0B5041C89B0081C05910830C8
:1044F000072106AA15F0ADFA616A0490497F0027EA
:1045000003910297049A974219DA069ABB009E58C3
:104510004021301C07AA083015F09BFA079B019038
:1045200019680A09282A32D1022803D159680B09CF
:10453000292B25D0201C234AFEF754FF22E0059B9F
:10454000201CD968039A0B790A2B02D1FEF710FFC1
:1045500001E014F07CFC061C00250499029A8B1AD9
:104560009D4207DA0022A06A0121131C18F0C6F947
:104570000135F2E7201C311CFEF7D6FE09B0F0BD74
:10458000012303930299013102910137BAE7201CFC
:10459000FFF772F80125019B9D4208DA079AAB00EC
:1045A0009958A06A090917F072FF0135F3E7F1681D
:1045B0000029EAD00023A371F168201CFFF75CF802
:1045C000E3E7C046F337020070B50B1C041C00295A
:1045D00009D08A0707D10A790F2A02D10123C371B2
:1045E0003DE0102A3BD00F211940E279022903D087
:1045F0001D699E68002D0AD1002A30D1E28A002A66
:104600002DD0201C191C164AFEF7ECFE27E0002ACC
:104610001ED0A38A01339BB2A382012B0CD1E18A65
:10462000A06A002902D018F0C4F801E017F025FFB5
:10463000A06A002118F0E4F8201C291CFFF71CF8E0
:10464000A06A310917F001FFA06A18F0E5F806E04A
:10465000E38A201C0133E382291CFFF70DF870BDAB
:1046600011380200F8B5426A041C1378012B03D0FC
:10467000174AFEF7B7FE2AE08D68002D04D1806A44
:104680000F210AF0E9FC1FE003222A4018D12B7900
:104690005C2B15D10669EF68731C0361B968331C84
:1046A00014F09EF9A968201CFEF7E6FFA06A18F036
:1046B0003AF9A06A311C17F04DFEF968201C01E0A0
:1046C000201C291CFEF7D8FFA06A18F02CF9F8BDB1
:1046D0003F38020010B54379846A042B02D0201CB5
:1046E000054906E088680022C968FDF7A9FA011C9F
:1046F000201C17F0B6FE10BD8013020010B5426AF0
:10470000041C1378013B012B03D9134AFEF76AFE00
:1047100020E08968002904D1806A0F210AF09CFCFE
:1047200015E08B0710D10B79A82B0DD18968FEF706
:10473000A3FFA06A17F0CFFFA06A0F210AF08CFC3C
:10474000A06A18F01AF905E0201CFEF795FFA06A90
:1047500018F004F910BDC0465938020038B50D1CD8
:10476000C968041CFEF788FFAB68064AA06A0321EB
:10477000934204D0044A0421934200D0052117F04B
:10478000DAFF38BDFE0200000E030000F0B54379E9
:1047900085B0041C0E1C012B3ED1426A1378002BFD
:1047A00003D11E4AFEF71EFE36E0081C08304321E6
:1047B00003AA15F04EF900250190019B9D422BDACA
:1047C000039AAB009F586A463F090B32606A391C56
:1047D00013F099FF6A46D37A0090002B03D1201C76
:1047E000311C0F4A0CE0606A391C13F0BAFF002834
:1047F00003D00378023B022B05D90A4A201C311C46
:10480000FEF7F0FD06E0009A04231370606A391C7D
:1048100013F0B8FF0135D0E705B0F0BD72380200E3
:1048200097380200AF380200F0B5437985B0051C17
:104830000E1C012B2AD1081C0830432103AA15F0B5
:1048400008F900240190019B9C421FDA039AA300FF
:104850009F586A463F090B32686A391C13F053FFB0
:104860006A46D37A002B05D1281C311C084AFEF772
:10487000B9FD09E001230370686A391C13F068FF71
:10488000002801D0012202700134DCE705B0F0BD40
:1048900097380200F0B58D680F2385B0041C0E1CFC
:1048A0002B400E2B06D0002D24D0A80722D12B7927
:1048B000392B02D10295002504E0362B1AD1AA68C3
:1048C0000292ED68392102A803AA15F0C2F8039BF1
:1048D000009001930023191C009FBB420BDA019842
:1048E0009F00C2592E4FBA4201D1013100E003317D
:1048F0000133F1E700212B4BF268A06A9A4213D1F1
:1049000017F05CFDA06A022117F09FFDA06A01214B
:1049100017F04FFF201C2830291C03AA14F02DFD8E
:10492000A06A17F040FD39E017F048FD301C0C304C
:104930003E2102AA15F08DF80027061CA06AB74296
:1049400008DA029ABB009B5801379968090917F0E9
:104950007CFDF3E7311C17F02CFF201C291C2830AC
:1049600003AA14F00AFD0025A06AB54214DA029ADF
:10497000AB009F58BB681B09191C019317F007FD7A
:10498000F968002902D1201C019901E00909201CC5
:10499000FEF7CAFC0135E7E717F0D2FD05B0F0BD20
:1049A000AE0400001E030000F0B58DB004902C2072
:1049B0000D1C141C1E1C16F0C0FC05600025231CD9
:1049C000049A0671291C8560071C13F069FF291CD5
:1049D000061C786209A814F0E8FEF16809AA381CE0
:1049E000FEF7B4FBF06009A814F0FEFE17F093FC8C
:1049F0003C6A0490B8620795002C01D13B6A5BE0E9
:104A0000B8680028FAD1381C211C0122FEF7BEFF2D
:104A10003B69079D9D4200D20793A468ECE7B86804
:104A2000002800D0B0E01A7FD10723D55A8D9446D4
:104A3000021C60451ED07D4CDD6A211C6144091AB0
:104A4000C90069184D78AC0739D5002A12D01578FD
:104A5000507806955568548802900195081CA44624
:104A600030C830C20698029A019D644608704A70A8
:104A70004C804D6000215984588D0390814225DB84
:104A80000022039882423EDB5868002813D0418DF3
:104A900000220591944605998C4543DB002A0AD0F3
:104AA00000210398814261DBD98B92B25118D983DE
:104AB000598C52185A849B68002BB0D164E0002AAC
:104AC00002D1012D00D10A1C0130B2E7D86ACA0018
:104AD00082181878072802D15468042C11D00138A4
:104AE000052804D81078002801D101201070107812
:104AF000022802D05078C50703D5588C441C5C842A
:104B000050800131B8E7DC6AD100611808780328C9
:104B100006D14878C50703D4588C488001305884A2
:104B20000132AEE76446C16AE5004D1929780024D8
:104B30000339012917D802940299039CA14212DA81
:104B4000029CE100DC6A611801910978042907D10F
:104B500001996C6849688C4202D101994A800132FE
:104B6000029C0134E7E70125AC4494E7DC6AC80005
:104B700020180478042C02D14478E50702D5448833
:104B80001419448001318CE70498079917F0C8FB89
:104B90003C6ABB68002C1AD0002B18D1049D381C2D
:104BA000BD62211C0222FEF7F1FEB868002804D184
:104BB000381C211C0322FEF7E9FEB968002904D144
:104BC000381C211C0422FEF7E1FEA468E1E7002B5B
:104BD0000CD07B6A381CD9680C3013F0EBFE7B6A72
:104BE000B8685B693968FA6801F0DEFF049817F06D
:104BF0009FFBF06800F004FFB569B468301C13F047
:104C000069FD002C01D0261CF7E7BC68381C16F0A3
:104C1000B8FB002C02D0201C0AF081FA281C211CB1
:104C2000221C16F0B0FD0DB0F0BDC046FFFFFF1F07
:104C300008B5406818F0DEFA002801D0014800E00D
:104C4000014808BD281202006C12020008B5406835
:104C50000BF0BAFB004808BD8013020008B540689D
:104C600018F0CCFA002801D0014800E0014808BD46
:104C7000281202006C12020008B5406818F0C2FA4F
:104C8000004808BD801302003E2803D0402809D008
:104C90003C280ED14239C9B22F290AD8084B585C9A
:104CA000012308E0712904D8064B585C064B5B567B
:104CB00001E001230020002A00D013607047C046A5
:104CC000E43802001439020086390200F0B587B0DA
:104CD000151C03AA071C0E1C01931C68FFF7D4FFC8
:104CE0000090402F05D1039B3C275A1EA4185B421D
:104CF0001C40009A3E3FA318019A1360642E09D00D
:104D0000662E02D04F2E22D141E0281C07F0A6FFCC
:104D1000051C3CE0281C07F0A1FF0FF06FFB7D4253
:104D20007D41EDB204900591AB0006AAD318083B73
:104D30001B68291C221C042014F075FC01235D4013
:104D4000AD0006AB5D19083D04342D681FE0AA07CD
:104D50000CD1154B2A689A4208D179427941C9B2DF
:104D6000281C009A231C14F0FAFF1BE0281C07F0F3
:104D700011FF009B051C042B09D95A2E07D90028C6
:104D800005DA1A1C201D043AFF2119F0F4FC0098E2
:104D9000042800D9042079427941C9B2221C2B1C75
:104DA00014F041FC07B0F0BD34F7010070B5061CEB
:104DB0000D1C141C181C642E0CD0662E04D04F2E13
:104DC00011D19400635127E094000D1907F046FFBC
:104DD000286021E0D4000D1907F040FF0FF00EFB12
:104DE0002860696018E020233343712B0CD1032124
:104DF000014009D1094B02689A4205D1E4002B1900
:104E0000082214F0ACFF07E007F0C4FE291C031CC5
:104E1000221C301C14F01DFC70BDC04634F701008C
:104E200008B5024818F077F8014808BD04280020AA
:104E30008013020008B507F0ADFE011C024818F00F
:104E40006BF8024808BDC046042800208013020009
:104E500008B507F09FFE011C024818F06AF814F02C
:104E60009FFF08BD0428002008B503480BF002F995
:104E700001234000184308BD0428002010B5031C7E
:104E8000064C02D1201C191C04E0086807F082FEC1
:104E9000011C201C0BF0F4F8014810BD0428002070
:104EA00080130200004870478013020010B588B0DC
:104EB00001AA6946041C01F0AFFE009A022A2AD911
:104EC00004A8322102AA06F0D5F8019B13495A68BA
:104ED00002A817F0C8F8201C07F07EFD104BC2682E
:104EE0009A4210D1236802A85A680E4917F0BBF8FD
:104EF000E368002B07D05A68002A04D0996802A8FA
:104F0000002207F079FD04A816F06EFB06F0A6FA61
:104F100004A816F01AFB08B010BDC046F83902000C
:104F2000B5690000013A020070B5031C0A1C8CB080
:104F3000191C0A20002303F013FF051E03D1174894
:104F400011F012FC27E068460AF0CEF8041E17D1D3
:104F50002E68281C012100F07FFD221C231C311C1F
:104F6000FFF722FD041C032006F006FA201C16F0B1
:104F700010FA0120404206F0FFF90AF0CBF80AE0EF
:104F80000120404206F0F8F90548019907F058FD64
:104F90000198FFF78BFF0CB070BDC046053A0200C8
:104FA0002C26020007B5184BE12001AAC0001A60A8
:104FB00004F016F9154898239B01C11808F06EF803
:104FC00005F0C4F806F0B6F9F8239B021988104AD8
:104FD000914203D159880F48FFF7A6FF0E4B1B786B
:104FE000002B0DD109F040F90028F7D00B4816F03E
:104FF000F6FB0B4B00221A605A6016F0C6F907BD8B
:1050000009F08CF9F0E7C046B4260020B400002077
:105010004D50000004E003007C000020323A020002
:105020006C2E002007B508F0BDF8054B01A81968E3
:10503000091A890808F074F808F0C8F807BDC046D6
:10504000B4260020F0B58BB0089310AB40CB039092
:1050500006911B78062A10D8012A04D93F230B7029
:105060000131069101E0002A02D006980023037066
:105070000120904292415042FCE10399069C002994
:1050800008DA039806992D230B7043005B0801345E
:10509000039304E0002B02D0069901340B70039FA8
:1050A000FF21C905381C0840202388421AD1089ADC
:1050B0007E021340E01C4E22002E08D15A404921A6
:1050C00062704622594053402170A37005E041218F
:1050D0001A434B4022706370A2700699002303703C
:1050E000401AC7E1002E00DA0626089818430490FB
:1050F000672804D1002E00D0B4E10126B2E1002FD0
:105100000BD10499652900D1A1E1662900D0E7E01F
:10511000751C029101970597F3E00698013A031B6D
:10512000D3180293C04B00259F427BD820270195BE
:10513000BE4B0399E8580DF0A7F8002808D0019954
:10514000BB4BC91901910398E9580DF091FC0390EC
:1051500004357F10182DEBD1FE2103988905019F9E
:105160000DF07EF800280DD00398B2490DF096F8A6
:10517000002807D0002F10D0FE2292052D23039285
:1051800001930FE00398AC490DF072FC019F03906E
:105190002D2001370190302305E0FE2189052B22C7
:1051A0000391019231230498662803D067282DD1FA
:1051B000042F2BDC02992370F3198B4201DBCB1BEC
:1051C0005E1E049A672A01D17B1EF618002E08D1B4
:1051D00001235B42059366230134351C019602933B
:1051E0008FE02E236370351CA31C013F1C1C002F75
:1051F00059D0002D04D030221A70013D0133F4E75C
:1052000001235B420195059366201EE1029B053B4D
:10521000B34200DD21E1049967294BD0029E02913F
:10522000063E4AE0202201922F1C814B0399E85848
:105230000DF020F8002807D0019B0398FF187B4B46
:10524000E9580DF015FC03900198043540100190C9
:10525000182DEAD1049966290BD1029A97420BDAEC
:10526000BB190133934216DBD31B9E1E13D55E1E62
:1052700011E0049B652B07D1029B053BB34200DD87
:10528000DEE0029E063EDBE00498672817D1B742B5
:105290001FDAFB43F618F519002166220135059740
:1052A0000191029211E001235B420593662301976D
:1052B00002930AE004981E1C0290002504E0049961
:1052C0002B220291002501920595F343DB171E4026
:1052D0000BE0049B2B2000210293019005910CE030
:1052E000049B3D1C029301970597029A652A01D100
:1052F000751C06E0029B672B03D1002E00D101260E
:10530000351C00200790079B0398AB421FDA0DF075
:105310004FFE031C30332370059A079B611C0991D3
:105320009A4205D1002E03D0A11C2E23099163704F
:105330000DF05EFE011C03980DF0C4FC3E490DF01B
:1053400097FB079A039001320792099CDBE73B49E0
:105350000CF0A4FF621E00283AD01178131C2E29ED
:1053600001D1013AF9E7081C3038092801D9013385
:1053700009E0392902D00131117004E0069830218A
:1053800011708242EDD11A78302A18D159782E291D
:105390000AD10298662807D0197001995A702D29F0
:1053A00001D1013F00E001370134221C9A4204D9A7
:1053B000511E087810700A1CF8E731221A701A4B37
:1053C000039A9A4204D8029B663B5A425341F61A0A
:1053D000049B672B0AD1002E08DD631E1A78302A41
:1053E00001D11C1CF9E72E2A00D11C1C01980028B1
:1053F00014D00899202345220B401343237060707A
:105400000A21381C0CF0B8FE3030A0700A21381C7C
:105410000CF008FF251D3031E1702C1C069A00238A
:105420002370A01A26E0C046FFFF7F3F00F701006F
:10543000E8F60100F8FF7F3F000020410000A04097
:1054400000252B2301930595652002903DE70499E3
:105450002B220291019205974AE7049800250290B9
:10546000059542E7002F00D057E66721029101978A
:10547000059742E70BB0F0BD7FB54B680E1C5C1082
:105480006846211C16F04EF8029D0021281C221CA3
:1054900019F071F930680121014004D1221C2B1C44
:1054A00014F05DFC08E0042C00D904244310002112
:1054B000201C2A1C14F0B7F869460248FCF76CFA65
:1054C00004B070BD90F10100F0B5002585B00C1C52
:1054D0001E1C081C0095111C02232A1C00F0D4FE7F
:1054E000AC423BD03168081C012C28D1214236D176
:1054F00003230B40AB4204D10B681A4A934203D1F9
:105500002DE0022B14D103E0174A9C69944207D185
:10551000081C03A9FCF728FC00220399131C1AE0BD
:10552000124A934204D114F063FB00F083FF16E0AB
:10553000081C07F02FFB0123400018430FE003A9CC
:10554000FCF712FC071C7068039C07F023FB211C6E
:10555000021C2B1C381C06F077FB00E0012005B074
:10556000F0BDC04634F70100A11D000014FB01008E
:10557000F0B58DB0099214AA1278051C0B9215AAE9
:1055800012780E1C0892D90706D5181C07F002FBEA
:10559000041E1BDB00221BE0990710D1574A196833
:1055A00091420CD1129A1399009201910B9A089989
:1055B00002920391099A311C14F0A8FB9CE02A681E
:1055C00000230999137028680B6095E044422D224E
:1055D000129B0021023B079205911E2B1DD8484BC0
:1055E000129A2020995C0CF079FD089BC0B20690BD
:1055F000059F002B04D0013003210CF06FFD071C28
:105600001399002903D0081C19F0ABF900E0139896
:10561000069B0333DF193F180597059A33689A42B2
:1056200005D9101C15F077FE0599286031602A68AD
:10563000059B0692D618771E00233B709C4203D12F
:10564000023E302333702EE00A97201C12990CF092
:10565000E9FD201C0E1C12990CF08EFD331C041C5D
:105660003033092E02DD0B9B0A3BF31808997E1E8E
:105670003370002912D0002C15D0069A964212D908
:105680000A998B1B032B01D0371CDEE7089A069B77
:10569000BE1E32709E4206D90A96F5E706998E42E2
:1056A00001D9002CF0D1139A002A0ED0101C19F049
:1056B00058F9069B301A984207D900231399CA5CFF
:1056C000002A14D0C2540133F8E7079A002A05D003
:1056D000069B9E4202D90799013E31702F68059AB8
:1056E000099BBF18BF1B013F1F60301C04E00799D6
:1056F000061C0029EFD1F1E70DB0F0BD34F7010031
:10570000403A020038B50D1C111C144A914202D1D6
:10571000291C012204E0124A914204D1291C0322CF
:1057200004F086FF19E0072816D103220A40022A56
:105730000FD00020824210D10C680A4A944208D04F
:10574000094A944205D0094A944202D0084A944238
:1057500003D107202A1CE3E7002038BD6C120200A9
:10576000281202009005020090F10100E01E0200E4
:105770008C070200F0B5037887B00192DA07D20FE8
:10578000D2B2041C0D1C0392002A0ED003220A4040
:10579000022A0AD0002A03D16D492868884203D022
:1057A0000199012901D0CEE003925A074CD5980700
:1057B00003D50199002900D0C5E02268A668D70862
:1057C000FF00F719BE4211D23068A84204D1019BF4
:1057D000022B00D08DE08EE00399002904D1291C12
:1057E00007F088F90028F2D10836EBE7019A012A80
:1057F00000D0A8E023686068D908814210D1043144
:105800006160A068C90015F0ABFD2168A060CB08FD
:105810006168CA1ADB00D200C018002118F0ABFF83
:1058200023680721DE08721CD2000B401343A268D4
:10583000F60023609619032335601D40022D58D0D1
:105840002378012293432FE06368002B05D1019850
:10585000012878D1201C00F07DF8291C022004F0DA
:1058600007FD6168401005900CF07CFC0027029158
:1058700004910299A268CE0096193068002815D1CB
:10588000019B012B5FD123680721DA080132D20086
:105890000B40134323600323356070601D40022DCD
:1058A00027D0237801988343237022E0042803D172
:1058B000002F22D1371C20E0A84203D101990229F0
:1058C00017D108E0039A002A17D1291C07F012F912
:1058D000002812D0F2E723680298083B23600130C9
:1058E00061680CF03FFCA368C900CB58002B02D1C3
:1058F0003360301C2AE00423FAE702986168013023
:105900000CF030FC049B02919942B2D1019801281D
:1059100019D1002F0DD023680833236000237B604A
:1059200003233D601D40022D0FD023788343237055
:105930000BE0201C00F00EF8059861680CF012FCDA
:105940000291049195E7002000E0381C07B0F0BDFB
:1059500090050200F7B542688768111C041C01928B
:1059600001310023164A9A588A4205D204335C2B2F
:10597000F8D10120084300E0101C226807231340DF
:1059800001222360134360602370C00015F0D5FC32
:105990003D1CA0600026019A96420DD0296800297E
:1059A00007D0042905D0201C0122FFF7E3FE6B6815
:1059B000436001360835EEE7381C15F0E2FCF7BD10
:1059C00094F701000278031C002010B5824206D132
:1059D0005869034C9B690219511A8900C85810BDB7
:1059E000FFFFFF3F08B5C369044A9B6B0905890C9B
:1059F0008A58191C002313F06AFF08BDF0F7010054
:105A000070B5041E24D00325054021D14668F3B2A9
:105A10001A1CAA3A012A03D8806815F0B2FC14E0D7
:105A2000AC2B12D00B4A9B009B587F225B78360A26
:105A30009A429B415B42F61AB54206D0AB00E3188E
:105A40009868FFF7DDFF0135F6E7201C15F099FC9B
:105A500070BDC046F0F70100F0B58FB00024071C00
:105A600068460476802040238000049107930894C0
:105A700015F05EFC2023099080200A930B9415F00A
:105A800057FC09990C900D97A14202D1B448B54931
:105A9000B4E10028FAD0049A002A04D00423022A90
:105AA00002D0012300E0049BAF4A9B009A5806A84D
:105AB000B96B002313F00BFF0025089B002B00D1CE
:105AC0006AE16846017E002900D065E1013B099A40
:105AD0000893DB00D318D8785C681B68A24A800062
