:020000040000FA
:1000000000400020051F0100411F0100431F0100A7
:1000100000000000000000000000000000000000E0
:10002000000000000000000000000000451F01006B
:100030000000000000000000471F0100491F0100F0
:100040004B1F01004B1F0100F91D01004B1F010058
:100050004B1F010000000000154501004B1F01006F
:100060004B1F01004B1F0100354A01004B1F0100CF
:100070004B1F01004B1F01004B1F01004B1F0100D4
:100080004B1F0100D91B01004B1F01004B1F01003A
:100090004B1F01004B1F01004B1F01004B1F0100B4
:1000A0004B1F01004B1F010000000000000000007A
:1000B0000000000000000000000000000000000040
:1000C00008B50FF023F817F0FDFB0A4B084A16F0AD
:1000D000C3FD094A094B16F09BFA17F045FC0323B0
:1000E000984302231843064BC01808BDC046C046BB
:1000F0000000000000806640182D4454FB21094098
:1001000000008080C046C04608B50EF0FFFF17F023
:10011000D9FB0A4B084A16F09FFD094A094B16F015
:1001200077FA17F021FC0323984302231843064B68
:10013000C01808BDC046C046182D4454FB210940D4
:10014000000000000080664000008080C046C0467D
:10015000F7B5171C146801AA051C0E1C05F0D6F88B
:10016000402D05D1019B3C255A1EA4185B421C4022
:1001700023183B602A1C5A27B742BF413E3A5542DA
:100180006A417F42231CD2B2391C1EF01AFB041CA8
:100190000D1C4F2E3DD0532E08D1201C23F08DFF77
:1001A0000022011C201C01F0ADFC32E0662E06D1BD
:1001B00003239C4302201A4B0443E01829E0642ED9
:1001C00009D1201C17F0D0FB032398430224144BC1
:1001D0002043C0181DE0002F0FD0104B0E4A1219FB
:1001E0006B41201C002B04D1002A02DB1FF015F903
:1001F0000FE0291C1FF002F90BE0201C002905D19B
:10020000084B9C4202D81FF023F902E0291C1FF082
:1002100010F9FEBDC046C0460000004000000000CE
:1002200000008080FFFFFF3F38B5041C82070CD11F
:10023000114B02689A4208D106F0A4FF211D051C4B
:10024000043020F097FB281C11E0201C0EF0FAFE71
:10025000C0231B06984204D1064905481FF0CEF87A
:1002600005E0C317C018584040000123184338BDAB
:100270000000004000000000A0510200C046C0463F
:10028000F7B5041C0191081C002114F02BFF002875
:1002900005D0234923481FF0A9F911F07CFA2379EE
:1002A000D90702D4A079617901E00520011C09F089
:1002B000CBFA0026071C22790523D10700D4A379A5
:1002C0009E4226DA002522790523D10700D4A3799E
:1002D0009D421CDA2A1C311C201C1FF0BBFC15F0AF
:1002E000C9FD019915F006FB17F0ECFA0B4B0A4A11
:1002F00015F06CFE17F074FA0923082800DC031CC3
:100300002A1C381C311C1FF088FC0135DBE7013644
:10031000D1E7381CFEBDC046000000000000E03FF1
:1003200073B50200E857020010B5041C081C8A07C8
:1003300003D1134B0A689A4202D00EF083FE09E003
:100340000EF0E4FE17F0BEFA0C4B0B4A15F03EFE21
:1003500017F046FA0B4B011C994205D90A490B4884
:100360001FF044F911F017FA606813F06BFD0848AC
:1003700010BDC046C046C046000000000000E03F7F
:1003800070550200FF030000DAB80200E8570200CF
:10039000547B0200C046C046F0B541188BB0071C24
:1003A00008920993029102998F4200D32EE1387886
:1003B0000CF08EFE002801D00137F4E73B782B2BA0
:1003C00002D10137049005E004902D2B0ED10122BB
:1003D00001370492029B9F4208D3914A00213D1CA1
:1003E0000191069207910E1C002458E03A782023D0
:1003F0001A43692A2ED10299BA1C914200D8D6E03C
:100400007A781A436E2A00D0D1E0BA781A43662A65
:1004100000D0CCE0FA1DFD1C914200D8C3E0FA7870
:100420001A43692A00D0BEE03A791A436E2A00D0F6
:10043000B9E07A791A43692A00D0B4E0BA791A434C
:10044000742A00D0AFE0FA791343792B00D0AAE0E8
:100450000535A8E06E2AC0D10299BA1C914200D895
:10046000A5E07A781A43612A00D0A0E0BA78134355
:100470006E2B00D09BE0FD1C00266A4C9AE02B7886
:100480006A1C191C303903920591092932D8022EB1
:1004900009D1019A0A235343CB180193039D029B70
:1004A0009D42ECD354E0012E15D1059815F03EFD88
:1004B000069915F01FFA011C201C14F0CBFE041C39
:1004C000069817F0FFF9554B534A16F0C5FB17F085
:1004D0004BFA0690E2E75449201C15F00BFA041C75
:1004E000059815F023FD011C201C14F0B3FE002616
:1004F000041CD3E7002E02D12E2B02D126E0022EBF
:1005000019D020221A43652A15D1039B02998B42E8
:100510000BD26B782B2B02D10235039505E02D2BE6
:1005200003D10235012203950792039B02998B4266
:1005300065D00226B2E7089A0026B24209D02022EE
:1005400013436A2B05D1039D012602E00126A5E78E
:1005500000260799002902D0019A52420192019B7C
:100560000393039A002A08DD201C2F4915F0C2F9D5
:100570000399041C01390391F3E70199CB43DB177D
:1005800099430191019B002B14D0201C17F09AF97C
:10059000224B214A16F060FB17F0E6F9019A041C81
:1005A00001320192EEE7FF240026E40502E03D1C43
:1005B000002600240499002902D080221206A418E3
:1005C000BD421CD0029B9D4206D228780CF080FDD3
:1005D000002814D00135F5E702998D420FD1002E85
:1005E00002D1099A002A02D01048114909E00323D8
:1005F0009C4302200F4B0443E0180BB0F0BD0B48A6
:100600000D491EF0F3FF10990DF050FD00210491EB
:10061000E3E6C046C046C0469A9999999999B93F70
:10062000CDCCCC3D0000C07F00002041E857020047
:10063000E0BC020000008080FDBC0200C046C04655
:1006400008B50B4B1B78002B01D111F0FFFA11F00C
:10065000A5FA064B044A14F08DFD4904C00B08436B
:1006600008BDC046C046C04640420F000000000022
:100670007B2E0020C046C0462F4B70B51B78061C51
:10068000002B01D111F0E2FA11F088FA254B244A2F
:1006900014F070FD4B04C00B002400251843CD0B53
:1006A0000023321CA4185D4180231B06984205D903
:1006B000002E03DB1C4A1D4BA4185D41610CEB03AB
:1006C0000B43E2031A481B4980185941154B144A41
:1006D00014F030FD194D041C2B78194E002B02D05C
:1006E000336898421BD011F059FA201A022802DC14
:1006F00011F054FA841C2102124BA822D200090ADC
:1007000099502A783460002A09D101222A70D22116
:100710008022520289005A50C12189005A5070BD6E
:1007200040420F0000000000000000000100000037
:100730003F420F00000000007B2E00207C2E002096
:100740009C2800200010014073B58279061C930795
:1007500040D401231A4206D181881A1C684612F03F
:10076000FFFB234837E01E22B35E2422805EC01ABE
:1007700017F06AF8041C2223F05E1C22B35E0D1CE5
:10078000C01A17F061F8021C0B1C201C291C18F061
:1007900031FA124B104A16F05FFA114A114B15F05C
:1007A00037FF17F0E1F80021041C14F09BFC00282F
:1007B00004D0201C0F4914F04DFD041C201C17F020
:1007C00081F8021C0B1C0848084916F0D5FC17F0EC
:1007D00007F800E0084876BD000000000080664091
:1007E000EA2E4454FB2109400000000000807640BE
:1007F00014FCFFFF0000B44315FCFFFFC046C046D9
:1008000070B5041C04201BF029F8051C1648401B79
:1008100015F08CFB17F056F8124B114A16F01CFA23
:1008200000F026F80323061C281C9E431BF020F82A
:100830002368002B0AD1301C1BF010F82060002820
:10084000F6D1203E002EF3D1084807E0B608B600E6
:100850009B19201C636022F01EFF002070BDC04663
:10086000666666666666EE3F0038002013FCFFFF92
:1008700038B50E4B0C4A041C0D1C17F035F9002836
:1008800004D1201C291C16F0ABFF38BD074B064ACB
:10089000201C291C16F070FC16F0A2FF80231B06FA
:1008A000C018F2E7C046C046000000000000E0416A
:1008B000F0B58BB0061C18F09DFD374D0023EB56AC
:1008C000041C013336D0301C1AF0CEFB002831D086
:1008D000301C324914F01AFC071E2ED1301C30494E
:1008E00014F000FC002825D0042300932D4B301C6D
:1008F0000193089716F0E6FF224B214A6C46A2614D
:10090000E3610023EB5620616161A060E160022B8E
:100910002FD068461AF0B6FB00282AD0236A002B95
:1009200003D01AF06BFC236A0360A069E16917F039
:100930001BF8041C201C0BB0F0BD03230093194BC3
:10094000301C01930023089316F0BCFF6C46206115
:100950006161A060E1602978002904D10A4A0B4B4B
:10096000A261E361D5E70A4A0A4BA261E361022969
:10097000CFD11AF043FC22230360CFE7C046C04624
:100980000000000000000000000000E0FFFFEF4753
:10099000000000000000F07FD20000208071B14212
:1009A000B5F1CFC200980200F0B58BB0041C0E1C4C
:1009B00018F022FE2A4F0023FB56051C013304D0F9
:1009C000301C17F099FF002802D1281C0BB0F0BD95
:1009D000201C17F091FF0028F7D0301C002114F0E4
:1009E0007BFB0028F1D0012300931E4B201C0193B8
:1009F0000023089316F066FF041C0D1C301C0294A3
:100A0000039516F05FFF3E7804900591002E16D0F6
:100A100012491148021C0B1C15F0FAFD06900791B3
:100A2000022E0ED11AF0EAFB21230360089B002B53
:100A30000DD10698079916F097FF051CC5E7069497
:100A4000079568461AF01EFB0028EFD1EAE71AF076
:100A5000D5FB089B0360ECE70000000000000000ED
:100A6000D20000200898020070B58AB0041C18F06B
:100A700049FE354E0022B256051C031C01320CD033
:100A8000201C17F039FF2B1C002806D0201C002149
:100A900014F03CFB2B1C002802D0181C0AB070BDBF
:100AA0002A4B0890201C019316F00CFF3578049017
:100AB000059102900391002D2AD1204B1E4A0692E7
:100AC0000793201C002114F007FB002811D00223FB
:100AD0000093022D26D068461AF0D4FA002821D0BF
:100AE000089B002B23D10698079916F03DFF031CA5
:100AF000D3E701230093022D0FD068461AF0C2FA03
:100B000000280AD0124800F0F7FC06900791E7E7AA
:100B10000B4A0C4B06920793D3E71AF06FFB212385
:100B20000360EFE71AF06AFB22230360D8E71AF0AC
:100B300065FB089B0360D6E7000000E0FFFFEFC7FE
:100B4000000000000000F0FFD2000020109802001A
:100B500014980200C046C046F0B546464F46C0B4A1
:100B60008BB0051C0C1C18F02BFFBB4E0023F3565A
:100B70008046071C013304D0201C17F0BDFE00285E
:100B800005D1381C0BB00CBC90469946F0BD281C12
:100B900017F0B2FE8146002833D1201C002114F04A
:100BA0009BFA0028EDD001230093AC4B4A46281C49
:100BB0000193089216F086FE6F46B860F960201C1B
:100BC00016F080FE9D4B9C4ABA61FB610023F356F0
:100BD000386179615A1C0ED0022B0CD068461AF08D
:100BE00051FA002800D1E5E03B6A002B03D01AF04F
:100BF00005FB3B6A0360B869F96916F0B5FE071C8E
:100C0000BFE7281C002114F067FA002832D0201C0E
:100C1000002114F061FA8046002869D00123009376
:100C20008E4B281C01930023089316F04BFE6F4651
:100C3000B860F960201C16F045FE814A814BBA610C
:100C4000FB610023F35638617961002B04D07B4BA4
:100C5000794ABA61FB61CEE768461AF013FA0028B8
:100C600000D1ACE03B6A002BC5D01AF0C7FA3A6A53
:100C70000260C0E740461AF0F7F98146002867D0C5
:100C80004046002114F028FA4746002800D178E7B2
:100C9000281C1AF0E9F94746002800D171E7201C0A
:100CA0001AF0E2F9002800D16BE7042300936B4BA4
:100CB000281C01930023089316F004FE6F46B860C9
:100CC000F960201C16F0FEFD5D4A5E4BBA61FB61C7
:100CD0000023F35638617961022B7AD068461AF006
:100CE000D1F9002875D03B6A002B00D183E7BCE71F
:100CF000201C1AF0B9F9002800D142E7201C00217D
:100D000014F0F0F9002800D13BE701230093534B86
:100D1000281C01934346089316F0D4FD6F46B86033
:100D2000F960201C16F0CEFD386179613178002918
:100D30004AD0454A454BBA61FB61022934D11AF0C9
:100D40005DFA212303603A6A002A00D153E74EE797
:100D5000281C1AF089F9002892D0201C1AF084F976
:100D600000288DD0404617F0C7FD6F46002835D1CA
:100D700001230093394B0890281C019316F0A2FD23
:100D8000B860F960201C16F09DFD347838617961F7
:100D9000002C19D02A482B49021C0B1C15F038FCDA
:100DA000B861F961022CCAD068461AF06BF90028C4
:100DB000C9D1C4E71AF022FA2123036014E71AF01C
:100DC0001DFA212303604DE71D4A1E4BBA61FB61EA
:100DD000EAE71AF013FA2223036084E7032300935F
:100DE0001E4B4A46281C0193089216F06BFDB86012
:100DF000F960201C16F066FD0023F3563861796116
:100E0000002B2DD1124A134B281CBA61FB61002123
:100E100014F068F9002845D10023F356022B05D0C1
:100E200068461AF02FF9002800D01BE71AF0E6F9FF
:100E30002223036016E7C046000000000000F03FD8
:100E40000000000000000000000000000000F0FFB3
:100E5000000000E0FFFFEF47D200002018980200DA
:100E60001E4B1D4A281CBA61FB61002114F03AF99F
:100E70000028D1D0FC21201C890514F03BFD16F080
:100E800021FD041C0D1C1AF0FFF8021C0B1C201C79
:100E9000291C16F005FE0028BED1114A114BBA617B
:100EA000FB61B9E7FC21201C890514F023FD16F035
:100EB00009FD041C0D1C1AF0E7F8021C0B1C201C79
:100EC000291C16F0EDFD0028A6D1074A074BBA6190
:100ED000FB61A1E7C046C046000000000000F07FB3
:100EE000000000000000F0FF000000E0FFFFEFC77F
:100EF00070B58AB0041C19F06DFA274E0023F35622
:100F0000051C01330AD0201C17F0F6FC002805D080
:100F1000201C002114F0E6F8002802D1281C0AB099
:100F200070BD012300931D4B201C019300230893E7
:100F300016F0C8FC34780490059102900391002CBF
:100F400011D1144B124A0692079368461AF09AF888
:100F5000002812D0089B002B14D10698079916F090
:100F600003FD051CDAE70B490948021C0B1C15F0B0
:100F70004FFB06900791022CE7D11AF03FF921238D
:100F80000360E7E71AF03AF9089B0360E5E7C0461B
:100F90000000000000000000D200002020980200A5
:100FA000F0B55F464D4644465646F0B4041C5042E8
:100FB0000D1C104359004908C00F8846014389465B
:100FC000774985B0161C1F1C9B46009401958C46E2
:100FD000894527D80198410049080390009889461F
:100FE000009940420843C00F49460143614519D862
:100FF0006C48C01810434BD0991702200840824615
:101000000198C10F5046084382460098494608435C
:1010100017D1504602285BD011DC002811DB201CC0
:10102000291C05E0301C391C221C2B1C14F0CEFF9F
:1010300005B03CBC90469946A246AB46F0BD03289D
:1010400035D04046024305D10399002946DB3F498C
:101050003D48EDE7524B98451FD0514B99453AD04A
:1010600048464146431A1B153C2B23DD3749364879
:101070005346012B40D0022B33D0002BD8D0344A1A
:10108000344B16F079F8344A344B16F075F8CFE744
:10109000201C291C00F088F8CAE7C14535D050460D
:1010A000012842D03CDD022812D00328D5D12C489B
:1010B0002C49BDE75A46002A22DB321C3B1C201C6F
:1010C000291C15F0A5FA19F0C5FF00F06DF8CFE75F
:1010D00021482249ACE7039A002AB8DA224823497A
:1010E000A6E71B4A1B4B16F047F8021C0B1C1A48BC
:1010F0001A4916F041F89BE780242406091997E75E
:101100003C33DADA1A481B49B2E75246012A17D0B3
:101110000EDD022A11D0032ADDD11748174987E7CF
:1011200000289AD11248134982E7154815497FE7EC
:10113000002AD0D1144815497AE71548154977E7B0
:101140001548164974E7C046182D4454FB21F93F51
:10115000075C143326A6A13C182D4454FB210940FA
:10116000182D4454FB2109C0182D4454FB21F9BF0C
:101170000000000000000000D221337F7CD902C0B3
:101180000000000000000080182D4454FB21E93FBE
:10119000D221337F7CD90240182D4454FB21E9BF72
:1011A0000000F07F000010C0F8B556464D4644469A
:1011B0005F46C54BF0B44E00814688468A467608A5
:1011C0009E420CDDC14B9E4200DDA7E000D1A2E0B3
:1011D0005046BF4A002800DCE3E0BE4BA6E0BE4B11
:1011E0009E4200DDB8E0BD4B9E4200DCA6E001243B
:1011F0006442A3464A4643464846414615F02CFD04
:10120000061C0F1C321C3B1C15F026FD8F4B8E4A12
:10121000041C0D1C15F020FD8D4A8E4B14F0D6FEDB
:10122000221C2B1C15F018FD8B4A8C4B14F0CEFEA3
:10123000221C2B1C15F010FD894A8A4B14F0C6FEA7
:10124000221C2B1C15F008FD874A884B14F0BEFEAB
:10125000221C2B1C15F000FD854A864B14F0B6FEAF
:10126000321C3B1C15F0F8FC834A844B061C0F1CF7
:10127000201C291C15F0F0FC814A824B15F07CFFE4
:10128000221C2B1C15F0E8FC7F4A804B15F074FFE4
:10129000221C2B1C15F0E0FC7D4A7E4B15F06CFFE8
:1012A000221C2B1C15F0D8FC7B4A7C4B15F064FFEC
:1012B000221C2B1C15F0D0FC021C58460B1C0130C4
:1012C00000D170E05946CC00301C391C14F07EFE71
:1012D0004A46434615F0C0FC814D0B1C81492D192F
:1012E000021C0C19101C191C2268636815F044FFBD
:1012F0004A46434615F040FF021C0B1C28686968EB
:1013000015F03AFF021C50460B1C00280EDA802014
:1013100000060B180AE0002800D159E74A46434668
:101320004846414614F052FE021C0B1C101C191CAE
:101330003CBC90469946A246AB46F8BD584A594B2C
:1013400014F044FE584A594B16F0C4FB002800D153
:101350004DE74A464346E9E719F07CFE624B041C20
:101360000D1C9E4230DC614B9E4256DC221C2B1C25
:1013700014F02CFE4C4A4D4B15F0FEFE4C4A4D4BE2
:10138000061C0F1C201C291C14F020FE021C0B1C28
:10139000301C391C15F03CF98846002181468B46EB
:1013A00028E7534BC2E7301C391C14F00FFE4A46A5
:1013B000434615F051FC021C0B1C4846414615F0F3
:1013C000DBFE021C0B1CB1E74A4B9E421ADC3A4A78
:1013D0003A4B15F0D1FE384A384B061C0F1C201C26
:1013E000291C15F039FC304A304B14F0EFFD021C7B
:1013F0000B1C301C391C15F00BF981460220884665
:101400008346F7E62E482F49221C2B1C15F000F9C5
:101410008846032181468B46ECE6234A234B15F090
:10142000ABFE214A214B061C0F1C201C291C14F06A
:10143000CDFD0B1C021C391C301C15F0E9F80123F2
:10144000814688469B46D5E611DA22E33AAD903FC5
:10145000EB0D76244B7BA93F513DD0A0660DB13FEB
:101460006E204CC5CD45B73FFF8300922449C23F53
:101470000D5555555555D53F2F6C6A2C44B4A2BF18
:101480009AFDDE522DDEAD3F6D9A74AFF2B0B33FE0
:10149000711623FEC671BC3FC4EB98999999C93F58
:1014A0009C7500883CE4377E000000000000F03F9F
:1014B0000000000000000040000000000000F83FB5
:1014C000000000000000F0BFFFFF0F440000F07FAD
:1014D000182D4454FB21F93FFFFFDB3FFFFF1F3E68
:1014E000A846020088460200FFFFF23FFFFFE53FEB
:1014F000FB21F9BFFF7F0340024901487047C04606
:10150000000000000000F87F08B5064B06480333D2
:101510001B1A062B00D808BD044B002BFBD09847A4
:10152000F9E7C046E8000020E800002000000000C5
:1015300008B50748074B1B1A9B10DA0FD318591030
:1015400000D108BD044A002AFBD09047F9E7C04605
:10155000E8000020E80000200000000010B5074C63
:101560002378002B09D1FFF7CFFF054B002B02D0CA
:10157000044800E000BF0123237010BDE8000020F4
:101580000000000008EF020008B5094B002B03D053
:101590000848094900E000BF08480368002B03D051
:1015A000074B002B00D09847FFF7C2FF08BDC0468D
:1015B0000000000008EF0200EC000020E80000201E
:1015C00000000000144B002B00D1124B9D4640221E
:1015D00092029A1A924600218B460F461148124AEF
:1015E000121A22F074FC0D4B002B00D098470C4BC4
:1015F000002B00D098470020002104000D000B486C
:1016000022F03FFB1AF0B4F82000290021F0A2F9E3
:1016100019F0FAFD00000800004000200000000062
:1016200000000000E8000020E02F002021B50100AC
:1016300008B50DF06BFD034B184002231843024B15
:10164000C01808BDFCFFFF7F0000808008B50DF0CA
:101650005DFD17F051F9002801D1024800E0024871
:1016600008BDC046FC790200407A020008B50DF0C2
:101670004DFD17F041F9012801D1024800E0024870
:1016800008BDC046FC790200407A020008B50DF0A2
:101690003DFD17F031F9012801D9024800E0024868
:1016A00008BDC046FC790200407A02001FB5002345
:1016B00001930DF02BFD01A917F08CF90323021CF7
:1016C000084902209A43024352180292019A9A430F
:1016D000131C03435B1802A903930CF025FF05B00C
:1016E00000BDC0460000808038B50D1C0DF00EFD19
:1016F000041C281C0DF00AFD14F09CFB011C201C8E
:1017000017F044F90323984302231843014BC018F0
:1017100038BDC046000080801FB5002301930DF046
:10172000F5FC01A917F006F9032302249843074B9F
:101730002043C018029001981DF06FFE02A903908B
:10174000201C0CF0F1FE04B010BDC04600008080EB
:1017500038B50D1C0DF0DAFC041C281C0DF0D6FC6D
:10176000011C201CFFF720F9032398430223184390
:10177000014BC01838BDC0460000808038B50D1C34
:101780000DF0C4FC041C281C0DF0C0FCC30F60004D
:10179000DB0740081843032398430224014B2043EE
:1017A000C01838BD0000808038B50D1C0DF0AEFCAF
:1017B000041C281C0DF0AAFC011C201C17F0BEFA0A
:1017C0000323984302231843014BC01838BDC04679
:1017D0000000808008B50DF099FC16F091FE0323FF
:1017E000984302231843014BC01808BD00008080B5
:1017F00008B50DF08BFC17F051FA03239843022330
:101800001843014BC01808BD0000808008B50DF0DA
:101810007DFC17F0F3F90323984302231843014B8F
:10182000C01808BD0000808008B50DF06FFC17F0EF
:10183000BBF90323984302231843014BC01808BD8A
:101840000000808008B50DF061FC17F06DF90323EE
:10185000984302231843014BC01808BD0000808044
:1018600008B50DF053FC16F0B9FF0323984302238B
:101870001843014BC01808BD0000808070B5061CDD
:1018800008680D1C0DF042FCFFF7EEF8041C012E59
:1018900006D103239C430220094B0443E0180EE0C9
:1018A00068680DF033FCFFF7DFF8011C201C13F013
:1018B0003DFE032398430224014B2043C01870BD12
:1018C0000000808008B50DF021FCFEF7F1FF032336
:1018D000984302231843014BC01808BD00008080C4
:1018E00038B50D1C0DF012FC041C281C0DF00EFC6C
:1018F000011C201CFFF730F90323984302231843EF
:10190000014BC01838BDC0460000808008B50DF0FE
:10191000FDFBFFF7EDFA0323984302231843014B25
:10192000C01808BD00008080032210B502400123CA
:10193000002A03D1094904688C420CD0011C1940CB
:101940000123002907D10B1C002A04D10268044B93
:10195000D31A5A425341181C10BDC046047A0200E3
:10196000A051020010B5041CFFF7DEFF0123002880
:1019700009D103222240031C022A04D1034B1C403C
:10198000A31F5C1EA3410120184010BD070080FF6B
:1019900008B520F0ACF80349021C034806F02EF805
:1019A0000FF0F9FEB3A10200D85C020010B5041CD0
:1019B0000C201FF043FB034B446003600023836053
:1019C00010BDC046AC4A0200F7B58A1801930092D8
:1019D000041C0E1C0B1C002200998B420DD219789E
:1019E000272904D0223948424141C9B201E00021EF
:1019F000012201330029EFD002E02225002A00D184
:101A000027251F4F201C391C2A1C20F054FA00994E
:101A10008E422FD23278AA4203D1201C19492A1CA7
:101A200024E05C2A02D1201C17491AE01F2A0AD997
:101A30007F2A19D0019B002B02D053B2002B0CDB64
:101A4000201C391C12E00A2A02D1201C0F4908E090
:101A50000D2A02D1201C0E4903E0092A04D10D49A8
:101A6000201C20F05EF903E00B49201C20F023FA33
:101A70000136CCE7391C2A1C201C20F01CFAF7BDCB
:101A8000E0A10200DFA10200E3A10200E6A1020042
:101A9000E9A10200ECA10200EFA10200184B70B511
:101AA000061C0C1C98420ED1886849680CF0ECFBAF
:101AB000051E08D0201C1FF0BDFBED0000230620F2
:101AC000236028431AE010201FF0B8FA6168051C53
:101AD00081600660A0680CF0BBFB61682268013180
:101AE0006860A068914201D01FF0CDFAE860E96813
:101AF000AA6800238B54281CA360236070BDC046D5
:101B0000A85E020038B5051C0C1C002A02D00CF09F
:101B1000F1FB03E00CF0B8FB002803D0C000062363
:101B2000184304E00248291C221C1BF062FB38BD4C
:101B3000A85E020008B5031C0A1C0248191C1BF011
:101B400058FB08BD304B020008B50A4B0340062B7A
:101B500001D1C0080DE0820709D1074B02689A4203
:101B600005D1C3688168181C0CF0C4FB01E0FFF7C5
:101B70000FFF08BD070080FFA85E020008B5064BF6
:101B80000340062B03D1C0081FF08EFE02E08368DD
:101B9000C0680B6008BDC046070080FFF0B5002696
:101BA00089B00F1C051C1C1C081C0096111C03236B
:101BB000321C05F02BFAB74238D0012F0ED104A801
:101BC00002AA10210BF01AFA216802A8321C0DF0AB
:101BD00069F9281C04A9FFF761FF28E0206804A91F
:101BE00082071AD1134B02689A4216D1FFF7C6FF3B
:101BF000114B061C20680340062B04D1C0081FF0BF
:101C000044FE041C00E044681020049F1FF016FAF4
:101C100005608760C660446009E001220DF0D8FBD2
:101C2000059904980022FFF76DFF00E00E2009B02F
:101C3000F0BDC046304B0200070080FFF0B58BB00E
:101C4000049008680D1C069207930DF011F9041C0E
:101C500068680DF00DF9061EA64202D06868FFF70D
:101C600097FE08A92868FFF789FF09A9041C68687E
:101C7000FFF784FF089A0590A3180393049B271C81
:101C8000022B1BD9AB6820498B4207D00121009160
:101C9000301C211C06F0DCFB071C00E0271C049B09
:101CA000032B0BD0EB68184A934207D00122009215
:101CB000301C211C089A06F0CBFB0390039B381CB8
:101CC000D91B069B059A0093099B1BF072FA011E13
:101CD0000AD1079B01204042002B12D00B490C482F
:101CE0001DF084FC0FF057FD0A4B9E4205D1201CCD
:101CF0001FF0AFFB0121400002E0011B4900012061
:101D000008430BB0F0BDC046547B0200F6A10200B0
:101D1000E8570200A85E0200F0B58DB0041C0391E4
:101D20000DF0A6F804A9061C201CFFF727FF02905F
:101D3000039882070BD10368314A934204D105A965
:101D400006AA1FF0D9FD10E02E4A934208D02D4874
:101D50000121C36800220193019C03ABA0470390BB
:101D6000039805A906AA1DF0B2FE0024251C059BB8
:101D70009C421ED2069AA700D0590DF079F8B042C5
:101D800005D0214921481DF031FC0FF004FD002C45
:101D900001D0049BED18069A1D4BD0590340062B29
:101DA00003D1C0081FF076FD00E080682D180134D3
:101DB000DDE7291C08A81FF02AFA0A9C0025059ACD
:101DC000954217D2002D06D0201C049A029922F0C9
:101DD0005CF8049AA418069AAB00985807A9FFF774
:101DE000CDFE079A011C201C22F04FF8079B0135FD
:101DF000E418E4E7301C08A9FFF750FE0DB0F0BD71
:101E0000A4890200586202000AA20200D85C020003
:101E1000070080FFF0B5071C87B008680C1C0DF0A8
:101E200027F804A9061C2068FFF7A8FE05A9051CD1
:101E30006068FFF7A3FE0390281C022F07D9012238
:101E40000092A368301C291C049A06F001FB059A35
:101E5000451B049BAD189D4206D8039922F006F855
:101E6000002801D1024800E0024807B0F0BDC0469A
:101E7000FC790200407A020073B50C1C061C08684D
:101E80006946FFF77BFE01A9051C6068FFF776FE37
:101E9000011C022E02D908480BF0A6F8019A009BFB
:101EA0009A4207D89B1AE81821F0E0FF002801D1D8
:101EB000024800E0024876BD4FA20200FC79020011
:101EC000407A0200F0B58FB0079010680C1C171C08
:101ED0000CF0CEFF0690012C10D078680CF0C8FFF3
:101EE000069A031C7868934201D0FFF751FD0DA9B3
:101EF000FFF744FE0D9B0890099303E02D4B07224A
:101F00000992089338680DA9FFF738FE0D9A079BD0
:101F10000B900492012B04D1141C5B42013C0A93E8
:101F200002E001220A920024049B002505930395F8
:101F30002E1C059A002A22D00B9B08981A190123FF
:101F4000009309991BF035F9002812D1039A002A51
:101F50000ED1079B002B03D1261C049C013C19E0E9
:101F6000079A012A15D00123251C261C039300E0A3
:101F7000251C059B0A9A013BA4180593D9E7039BEE
:101F8000002B08D10C4B069A0E209A420FD00B481A
:101F90000DE0039E251C049B0135AA1B9A4201D12A
:101FA000386804E00B9B069899191BF022F90FB0D2
:101FB000F0BDC046ACA10200A85E020000490200CC
:101FC000F0B589B0049008680D1C0CF051FF041C9A
:101FD00068680CF04DFF071EA74202D06868FFF743
:101FE000D7FC06A92868FFF7C9FD07A9061C686881
:101FF000FFF7C4FD069A049BB11805900391341CA9
:10200000022B1BD9AB6820498B4207D001210091DC
:10201000381C311C06F01CFA041C00E0341C049A25
:10202000032A0BD0EB6818498B4207D0012200929B
:10203000381C311C069A06F00BFA0390079A002A06
:1020400001D0002510E0039B201C191B1FF010FA83
:1020500001304000012514E0201C059921F006FF05
:10206000002807D10135341C079A0399A6188E421F
:10207000F2D904E0201C1FF0E5F9061CF3E76D001F
:102080000120284309B0F0BD547B0200F0B58BB0AD
:102090000E1C071C03920CF0EBFE041C301C0CF011
:1020A000E7FE844202D0301CFFF772FC05A9381C01
:1020B000FFF764FD06A9051C301CFFF75FFD069BBA
:1020C000021C002B05D11A491A481DF08FFA0FF097
:1020D00062FB19498C4201D10E2100E0174907919A
:1020E000089109910399002901DD079700E00997FC
:1020F0000399281C009105991BF05BF8002811D06A
:10210000471B3A1C291C201C1BF073F8069A059BE0
:10211000B918DF1B07906918BA1A201C08961BF023
:1021200068F8099007A903200CF0FEF90BB0F0BD88
:1021300061A20200E8570200A85E02000049020006
:1021400008B5011C01481BF06AF908BD9114020092
:1021500008B5011C01481BF062F908BDA514020076
:10216000F7B5061C081C01A9FFF708FD019A051C1C
:10217000002A01D1144826E0144B041C9E4201D1D0
:10218000002712E0124B9E42FAD0019A631B934241
:1021900018D22078B04701340028F6D1EAE7207839
:1021A0000AF0A2FF002805D10134019A631B934273
:1021B000F5D305E02078B0470028DBD00127F3E70E
:1021C000002FD7D00348FEBD407A020031D1000075
:1021D00049D10000FC79020008B5011C0148FFF755
:1021E000BFFF08BDD1D0000008B5011C0148FFF7B2
:1021F000B7FF08BDE9D0000008B5011C0148FFF792
:10220000AFFF08BD01D1000008B5011C0148FFF770
:10221000A7FF08BD31D1000008B5011C0148FFF738
:102220009FFF08BD49D10000F0B585B0051C0C1C0E
:10223000171C0CF01DFE6946061C281CFFF79EFCAF
:10224000051C042F22D10099A20715D1114B226839
:102250009A4211D1081C01AA211C04F0E7FD0028B4
:1022600002D10D480AF0C0FE019B029AE918D21A69
:10227000301C1AF0BEFF0AE00023301C221C0CF0B8
:10228000BFFF285C01234000184300E0002005B098
:10229000F0BDC046947B020071A2020070B51C1C08
:1022A00088B0002968D01868354D031C2B40062BD8
:1022B00005D082071ED1334B02689A421AD10239E7
:1022C000012953D804A9FFF759FC061C20680540D2
:1022D000062D04D1C0081FF0D8FA041C00E04468A1
:1022E0001020049D1EF0AAFE274A85600260C66089
:1022F000446042E0012939D8012210420AD044103A
:10230000211C04A81EF083FF06980021221C21F046
:10231000DEFD26E001A91FF000FC002805D0029A8E
:10232000019919481AF065FF27E020680CF0AAFF10
:10233000002802D104A8102101E0411004A81EF0D9
:102340004FFF20680AF094F8041C201C0AF0DEF805
:10235000002806D00CF076FEC1B204A81EF0E6FFFD
:10236000F3E704A90848FFF799FB06E00749084886
:102370001DF03CF90FF00FFA064808B070BDC046DA
:10238000070080FFA85E0200304B0200A2A20200FC
:10239000D85C02000049020037B5041C081C01A9E2
:1023A000FFF7ECFB0549051C201C1FF0BAFC291C9B
:1023B000201C019A0123FFF707FB37BD6DCF0200F8
:1023C0001D4BF7B5021C051C0C1C1A401F1C062ACD
:1023D0000BD10B40062B03D1401A4442604128E048
:1023E000C0081FF052FA061C00E046682740062F7E
:1023F00003D1E0081FF049FA00E06068002E05D024
:10240000002803D0864201D0002013E0281C694632
:10241000FFF7B4FB01A9051C201CFFF7AFFB009AD6
:10242000019B011C9A42EFD1281C21F01FFD434261
:102430005841C0B2FEBDC046070080FF084B07B53B
:102440000340062B06D0830708D103689A69054B21
:102450009A4203D101A9FFF791FB0EBDFFF798FA4D
:10246000070080FF9D2400000A4B13B503400C1C9D
:10247000062B06D083070AD103689A69064B9A4255
:1024800005D101A9FFF77AFB019B236016BDFFF779
:102490007FFAC046070080FF9D240000F0B5A1B080
:1024A000041C0D1C0D920A2800D0CFE103240792D2
:1024B000144010D11368B64A934206D1079810A968
:1024C0000FAA1FF019FA07940BE0B24A934202D107
:1024D0000F94109405E00DAB0F930123109300238C
:1024E00007930F9B109A11A9281C0A930892FFF7D3
:1024F00045FB14AA0B90102118A80AF07FFD0B9A37
:10250000119B0B9CD21806920027069B9C4200D37D
:1025100093E12178252903D018A81EF007FF8AE14E
:10252000069A651C954202D39B489C4916E0617847
:10253000252904D118A81EF0F9FE2C1C7BE10026E9
:10254000282919D1A01C051C00E001352B78292B66
:1025500008D0069B9D42F8D38F4891491DF046F85C
:102560000FF019F9291A0122FFF7CCFA011C07987C
:102570000BF014FD0135061C002220232C1C0992AF
:102580000593151C069A944211D223782D2B01D164
:10259000012306E02B2B01D1022302E0202B02D1E4
:1025A00004231D430FE0232B0BD0302B05D0069ABC
:1025B00000231293944208D31FE040221543059351
:1025C00001E0102309930134DCE723782A2B0FD193
:1025D000089A3B1E934202D372487349BEE70A9A97
:1025E0009B0098580CF02EFD01371290013404E046
:1025F000201C12A91AF0C6FD241801235B42139374
:10260000069B9C4290D223782E2B20D1069B621CE5
:102610000C929A4288D263782A2B0CD1089A3B1EDE
:102620009342D9D20A9A9B0098580CF00BFD0137BF
:102630001390023407E000230C9813A913931AF0A7
:10264000A1FD0C9B1C18069A944200D36CE7002E47
:1026500007D1089A3B1E9342BED20A9A9B009E580D
:1026600001372378672B0FD8652B6ED2582B00D1FA
:10267000C8E004D81A1C453A022A66D9D2E0632B76
:1026800012D0642B42D0CDE0732B07D8722B00D32D
:1026900094E0692B3AD06F2B67D0C3E0752B35D00F
:1026A000782B00D1AEE0BDE0404B3340062B05D087
:1026B000B30714D13E4B32689A4210D11CA9301C8A
:1026C000FFF7D2FE1C9A011C012A02D03548394975
:1026D00044E720230093129B14A801930FE0301CC1
:1026E000FFF722F900280ED0301C0CF0ABFC129A38
:1026F0001CA9202308700192009314A801222B1C0E
:102700000EF0A6F997E027482B4927E7032232402D
:102710000023022A04D1254B3340063B5A1E934125
:10272000311C002B07D0FF23DB05F018032398434F
:1027300004F068FD011C059A129B0192139A009502
:102740000392029314A80A221FE0301C0CF0DEFC56
:10275000059B22780093129B011C0193139B14A8E4
:1027600002932B1C1FF059FB65E0099A002A02D046
:1027700084239B001D43059B129A0193139B029295
:102780000095039314A8311C0822612347E0C0463A
:10279000A4890200B47E0200E8570200BCA2020035
:1027A000CEA20200D85C0200E4A20200070080FF73
:1027B000A85E02000BA3020024A302001CA81021A3
:1027C00016AA0AF01BFC227816A8723A53425A4104
:1027D000D2B2311C0CF066FB139A1D9B002A00DA62
:1027E0001393139A1E999A4200D91A1C202300931E
:1027F000129B14A801932B1C0EF02AF91CA81EF0A2
:1028000019FD18E0099A173B1543059A00950192A6
:10281000129A14A80292139A311C039210220EF0FD
:1028200079F908E00B9A4849A41A00941A1C474801
:1028300005F0E4F894E6013467E6089A974202D07E
:10284000434844498AE6444818A968E0081C0CF04B
:102850000FFB16A9061C281CFFF790F9071C0D9802
:10286000072C1CD118A90CF02BFC0025A84268D01D
:102870001899A94205DC384B0E259E4261D0374D90
:102880005FE0169B1CA859431EF0C1FC1E9A381C21
:1028900000920121169A189B1CF041FB3DE00CF0C0
:1028A000E7FA864206D10D981CA9FFF767F91C9D2F
:1028B00006900DE02A4B00259E4242D10D981CA99E
:1028C00001221FF02AF9A8423BD01C9B1D9D0693B4
:1028D0001D2C06D8192C26D2052C0DD0122C0BD06D
:1028E0002EE01F2C2CD101230093381C1699069A38
:1028F0002B1C1AF05EFC1DE0169A1CA8A9181EF0ED
:1029000086FC391C169A1E9821F0BFFA169A1E9B57
:10291000069998182A1C21F0B8FA301C1CA9FFF758
:10292000BDF8051C0DE00095201C391C169A069B6D
:102930001CF029FB002801D00A4D02E00A4D00E0FE
:102940000025281C21B0F0BD35A30200E857020085
:10295000D85C02006AA30200A85E020000490200DF
:10296000304B0200FC790200407A0200F0B59FB0C3
:102970000D9109680E900591081C10A90F92FFF7A0
:10298000FDF81021079012AA16A80AF037FB079A43
:10299000109B0021D21809920B910799099A914234
:1029A00000D38FE0079A1178141C01347D2908D1D7
:1029B000099B9C4202D251787D2910D0B348B4497A
:1029C00034E07B2903D016A81EF0B0FC76E009990C
:1029D000261E8E4236D2079A51787B2904D116A83A
:1029E0001EF0A4FC079469E07D2915D0212913D09D
:1029F0003A2911D01EF029FC041C31787D290CD015
:102A000021290AD03A2908D0201C1EF08FFC099BEE
:102A100001369E42F1D115E000243378212B57D1A5
:102A20000999731C994205D898489A491CF0DEFD13
:102A30000EF0B1FE75782B1C723B012BF4D80236D8
:102A40008E4246D391489449F0E70A981EF008FC5C
:102A5000069A002A00D17EE1002F00D120270C9A8F
:102A6000002A00D082E1069B3D2B00D189E15E2B3C
:102A700000D188E13C2B01D101231D43301CFEF71E
:102A800053FF002800D1CAE1632C00D190E100D9A6
:102A900082E1472C00D878E1582C00D1ACE1622CBF
:102AA00000D0B5E11199002302910095019703939D
:102AB00012A8311C022261230EF02CF8079B01336F
:102AC00007936AE716A97548FEF7E8FF1FB0F0BD47
:102AD0000025337800220A923A2B18D1731C0793F1
:102AE00073787D2B0ED01EF0B0FB079E0A900999DB
:102AF0008E42A7D231787D2909D00A9801361EF07E
:102B000015FCF4E7079A099B9A4201D39AE70796C6
:102B100007990B787D2B02D05C48614986E7002C31
:102B200048D00023201C1A931EF0EDFB061C0078F1
:102B30000AF0E6FA371C00281CD00B9A002A02DDA6
:102B40005248584972E7301C1AA91AF01BFB0E9A1A
:102B50001A9B013A3718934237D201330D999B00E3
:102B60005E5801235B420B931AE02E2B05D05B2BA2
:102B700003D001373B78002BF7D1B91B301C012261
:102B8000FEF7C0FF061C311C0F98002203F022F94B
:102B9000002804D1311C44481CF021FD48E7466858
:102BA0003B78002B02D041480AF01EFA201C1EF090
:102BB00057FB13E00B9A002A02DA34483C4935E708
:102BC0000E9B0B99013B994202D33A483A492DE7B3
:102BD0000B9B0D9901339A0056580B930A9A002AC1
:102BE00003D1002D00D18AE101E0002D11D014AAFB
:102BF0001AA81021733D0AF001FA6A1E9541311C92
:102C0000EAB214A80CF04EF924481AA9FEF746FFC0
:102C1000061C01235B42119314930A9B002B00D1E5
:102C200095E0181C1EF06FFB0778041C00208742FB
:102C300005D02248391C21F02AFA431E9841002869
:102C400003D006970134002711E00690002F0ED024
:102C500061780691002904D0184821F018FA431E23
:102C60009841002801D0023401E00690071C227828
:102C70000C922B2A05D02D2A05D00425202A1FD1FD
:102C800002E0022500E0002501341BE0E8570200C5
:102C90009FA30200C7A30200E0A30200A85E0200F7
:102CA000F8A302001CA40200C85D02007FA4020079
:102CB0009CA402004459020066A40200E6A402009B
:102CC00000250C952378232B02D110231D430134BA
:102CD0002378302B07D1069B002B01D13D21069193
:102CE000002F00D13027201C11A91AF04BFA201810
:102CF000037808902C2B04D1021C202301321D43A1
:102D0000089208990B782E2B07D10C1C0134201C3B
:102D100014A91AF037FA20180890089A002014789D
:102D2000844205D07748211C21F0B1F9431E984117
:102D3000002803D0089B0133089300E0041C089985
:102D40000B78002B00D180E66F4870496EE60A9D33
:102D50002C1C2F1C0C95301CFEF704FE3C23069304
:102D6000002800D178E63E21069175E6732C02D149
:102D7000654867495AE6632C00D074E662486549A5
:102D800054E6402379E6802377E6452C47D2002C91
:102D900019D0252C43D03BE0672C02D8652C12D3E8
:102DA0003DE06F2C19D0782C26D06E2C30D10AE063
:102DB000301C0CF047F9119A1AA90870019200977B
:102DC00012A801228DE0119B009502930023019728
:102DD000039312A8311C0A226DE6E90602D580236E
:102DE0009B001D43119A00230292009501970393C3
:102DF00012A8311C08225EE611990022231C0291C0
:102E00000392173B0095019712A8311C102253E63C
:102E1000301C1EF06CFE4049031C3B486BE0301C2C
:102E2000FEF7A0FD002838D0002C1FD06E2C1DD03E
:102E3000472C15D8452C1AD2252C27D1301C0CF044
:102E400065F9364912F056FD119A80230192149AC1
:102E50005B00011C02922B43009712A8662212E02D
:102E6000231C653BDBB2022B10D800E06724301C2A
:102E70000CF04CF9119A149B011C019202930097DB
:102E800012A8221C2B1C1EF0C8FF17E6301C1EF0D7
:102E90002EFE2349031C1C482DE0069B3D2B02D12E
:102EA00019482049C2E5002C02D0732C06D01CE042
:102EB00012A8311C221C0BF0F5FFFFE51AA9301CEB
:102EC000FFF7D2FA149B011C1A9A002B00DA149215
:102ED000149B9A4200D91A93119A009701921A9A58
:102EE00012A82B1C0DF0B4FDE8E5301C1EF0FFFD10
:102EF0000D49031C0448221C04F080FD98E573254D
:102F000075E6C046EBA40200E8570200FBA40200ED
:102F100014A5020040A5020073A502000000C842EB
:102F2000A4A50200D8A502000DA60200F0B5071C5A
:102F300087B008680D1C0BF09BFF0090012F07D98C
:102F40006C68022F05D0A8680CF07CF8071C02E022
:102F5000444C01277F420020011C1CF0A0FD04A965
:102F600001902868FEF70AFE049A3E4B051C86185D
:102F70009C4238D1B54229D228780AF0A9F8002815
:102F800024D00135F6E7002F23D02C1C20780AF03E
:102F90009FF8002802D10134B442F7D1291C621BEA
:102FA00000981AF026F9011C019806F01FF8B442A7
:102FB00054D220780AF08CF8002802D00134B442B0
:102FC000F7D1FB17DB1BDB0FFF1A251CB542DAD349
:102FD00044E0291C721B00981AF00BF9011C01989F
:102FE00006F004F83AE0201C0BF042FF009A029031
:102FF000904202D0201CFEF7CBFC201C05A9FFF755
:1030000033FA059B0390002B22D1174917481CF077
:10301000EDFA0EF0C0FB201C039920F027FF0028DA
:1030200005D00134009AA3189E42F4D2341C291C06
:10303000621B02981AF0DDF8011C019805F0D6FF1A
:10304000B4420BD2059BE518FB17DB1BDB0FFF1A05
:10305000002FEBD0059A2C1C0092E3E7019807B0F3
:10306000F0BDC046547B020061A20200E857020096
:10307000F0B50C1C8BB0022802D8FFF757FF7AE09E
:1030800008680BF0F5FE08A9059020686568FEF752
:1030900075FD0090A0680BF0D5FF411C0691041C43
:1030A000081C00211CF0FBFC344B061C9D4202D185
:1030B000334809F099FF281C09A9FFF7D5F9099AA7
:1030C0000790002A05D12F492F481CF08FFA0EF0E7
:1030D00062FB009B0899A2005B1802930392271CD5
:1030E000099B0193002C0DD00299CD1A009A9542AC
:1030F00008D3281C0799019A20F0B8FE002821D097
:10310000013DF3E7F368BC0002991D19009B059887
:10311000CA1A191C1AF06DF82860002F10D00699F1
:10312000F068CD1BAF0001193A1C20F0B7FE7368A0
:10313000F1685A1BC8199200002120F0C8FEB56042
:10314000301C18E0039BF2680598D2180492029B89
:10315000019A013FA9185A1B019BD21A1AF049F88B
:10316000E317039A1B1B0499DB0F043A0860E41A67
:1031700003920295B4E70BB0F0BDC046547B020049
:103180003FA6020061A20200E857020010B5041C2D
:1031900008201DF053FF024B4460036010BDC04681
:1031A000784B0200F8B503780021041C8B4200D153
:1031B00099E0402B01D1012026E04C491AF00AFA8F
:1031C0000028F8D1201C4A491AF004FA0028F2D14C
:1031D000201C48491AF0FEF90028ECD1201C464971
:1031E0001AF0F8F90028E6D1201C44491AF0F2F947
:1031F0000028E0D1201C42491AF0ECF90028DAD16D
:10320000201C40491AF0E6F900231D1C1E1C1F1C3F
:103210002278002A51D0272A10D1002B01D0032B6D
:1032200008D16278272A05D1A278272A02D1023450
:10323000032216E00122012B3DD812E0222A12D1EE
:103240000422191C914309D16178222904D1A17863
:10325000222901D1023404E0002B01D0022B2AD113
:103260000222D31A27E05C2A09D16178272901D0EC
:10327000222904D11A1C511E8A41A4181BE0002BDC
:1032800019D15B2A12D006D8282A0DD0293A5142EA
:103290004A41BF1A0FE07B2A0AD07D2A0AD05D3A44
:1032A00051424A41B61A06E0013704E0013602E015
:1032B000013500E0013D0134AAE70121002F12DCB5
:1032C000002E10DC002D0EDC033B8B420BD9013CA1
:1032D00023785C2B07D00840111C002803D00A3B40
:1032E000591E8B41D9B2081CF8BDC046D7D2020086
:1032F0004EA6020054A6020058A60200BCC402005A
:10330000E8EE020045B80200F0B541188BB0051C8C
:103310000592079302910C1C0494013CA5420FD81E
:10332000207809F0E1FE0028F6D1207809F0E8FEC7
:103330000028F1D123785F2BEED02E2BECD000E0CB
:1033400004957A4B1E68049C029884420AD3049A1E
:10335000029BA21A03929C4209D30024271C251C1D
:10336000029451E023782E2BF1D00134ECE70025B4
:10337000B26895421ED2F268EF00D059002803D0FF
:10338000031F5A1E934100E0031CDA0714D509A954
:10339000FFF76AF8039B011C099883420CD104983B
:1033A0001A1C20F091FE002806D1F368DF19786816
:1033B000002803D10020B6E00135D9E783070AD100
:1033C00003685B4A934203D11CF078F8061C0DE0B9
:1033D000584A934201D00BF04BFD866B002EE9D08A
:1033E000B007E7D1544B32689A42E3D101340494D8
:1033F000A9E7F268E3009858002809D0031F5A1E75
:103400009341DA0706D40134B0688442F1D328E04E
:10341000031CF6E709A9FFF727F8099B0190039819
:1034200006939842EFD804980199039A20F04CFE35
:103430000028E8D1002D0CD0039BBB420DD8069A82
:1034400093420AD80198E95CC25C914204D10133ED
:10345000F3E7069F019D00E01F1C029B01330293CE
:10346000D1E7029A002AA5D0012A06D0039B9F42E9
:1034700003D800200290402413E0039A0798AB1869
:103480000360B81A4FE0029AD300F26898580028F7
:103490000CD0031F5A1E9341DA0709D4029A013255
:1034A0000292029BB0688342EDD336E0031CF3E73F
:1034B00009A9FEF7D9FF099F039B0190BB42EDD8F4
:1034C000049801991A1C20F0FFFD0028E6D1231C66
:1034D0000F33DD172D0FED182D112D012D1B012D93
:1034E00000DC10356319DF19402F0FD8002705982D
:1034F000AF4204DA11491EF014FC0137F7E70199D5
:103500001EF00FFC099824186419C7E705980C49A8
:10351000019A1EF0D0FC099CC0E7059809491EF0ED
:1035200000FC012040420BB0F0BDC046A82E002098
:10353000245602004C730200B47E0200DFB4020085
:103540005CA602002FAD0200F0B5041C91B08069AA
:103550000B9109908968151C0B986268C0680493E8
:103560008B185A1C6260A0609A1C19786260DA1C81
:103570005F7862609A78201C0A921A1D6260DB787C
:1035800003910693231C1833E360099B0021033346
:103590009B00E31804332361099B1C309B001A1C19
:1035A000059320F094FC169809990A9AAB00C31869
:1035B000C91B08938B1A05339B00E3180D911E1D40
:1035C00001220398BD420FD9104203D1884889498E
:1035D0003A1C2EE0E81B169DB90069181E1C0AF063
:1035E000A3FF3D1C706029E0104202D01E1C824BDC
:1035F00073600499002921D1039A12071ED4069BF7
:10360000FA1A954213D3D91B0B98890041180791D8
:1036100005992B1C6018BB4210D29A00811A8C4667
:10362000079901338A18126961468A61F3E7704885
:1036300070492B1C04F0E2F90EF0ADF8059A002356
:1036400012199446AB4207D016999A0088586146E1
:103650008A1A90610133F5E7049D002D03D1039D83
:103660002D0700D49BE0039D02231D400C950025EF
:1036700005950C9D002D04D004981EF093F805903C
:103680003060A56800260795089D0435049B9E427E
:1036900029D02B1F196800230A98C219934215D20A
:1036A00007989A00825891420ED1099A013AD31A8A
:1036B0009B00E318DA69002A03D0CA084C484F4936
:1036C0006AE02868D8610BE00133E5E70C9A002A2C
:1036D00002D147484A4967E005982A681EF09AF8DF
:1036E00001360835D2E70D9B069806339B00E31898
:1036F00003300B9D043380002818191C0022069DFE
:10370000954209D00D68002D03D195006D424559B1
:103710000D6004310132F2E7069DAA009B18099A58
:1037200006329200A2180432934209D20433191FC0
:1037300009680029F3D1D21A92102D4831492BE0A3
:103740000D9E079D0536B600BB00EB18A619043682
:103750000493002510E0069B0B9904339B005858F6
:10376000049BA9000430595802F034FB00280CD007
:10377000406830600135043E0A998D421ED232689D
:10378000002AF7D103980007E5D40798ED19AD009A
:103790002A581D491648D20804F030F94CE70A9D12
:1037A000002D04D0124819491BF020FF44E7039D67
:1037B000AD0703D50A981DF0F5FF306065680FA8C6
:1037C00025600F9519F023FF2D1801356B1E1B780E
:1037D000FF2B09D0099E013EF61AB600A619F06922
:1037E000FFF7D4FCF061F0E7656011B0F0BDC046B2
:1037F000D85C020060A602002C8A020099A6020092
:10380000C8A60200F1A6020023A7020053A70200E7
:1038100008B50B1C4179C26A012904D1101C191C7E
:103820001BF030FC03E0006B01491BF065FC08BD98
:103830009893020008B50B1C4179C26A012904D192
:10384000101C191C1BF03EFC03E0006B01491BF02F
:1038500053FC08BD8893020008B50B1C4179C26A6D
:10386000012904D1101C191C1BF02CFC03E0006B77
:1038700001491BF041FC08BDA893020008B53F2296
:10388000014B19F057FF08BD27E1010008B591224F
:10389000014B19F04FFF08BD3D48000038B5836863
:1038A000041C0D1C002B09D1111C05481BF09EFEA9
:1038B000A060201C0C30291C19F056FF38BDC046F2
:1038C000505D0200F0B50123041C4271E162036106
:1038D0000B788BB00D1C0092012B02D00021844A82
:1038E00088E00099012906D9836B2A1C1E68231CD5
:1038F000406B0833B047A86802901BF033FA637935
:103900000290032B0FD107900C2107A81BF043FA5C
:10391000A36B021C9B68606B07999847A268688339
:10392000002A00D0DDE002981BF01CFA02901BF088
:1039300019FA5A21029002A81BF02DFA029D01905B
:103940004CE0281C03A91BF017FA0378061C912BE6
:103950004DD11BF007FA039B984248D1301C03A9B4
:103960001BF00AFA0378071C0A3B0F2B3FD81BF009
:10397000F9F90399061E8E4239D00378A02B36D16F
:103980001BF0F0F9039A904231D104A9381C19F0C8
:1039900056FE301C1BF0EBF99B21059005A81BF08F
:1039A000FAF9011C05981BF0D1F9049B061C2D2B7C
:1039B00036D1012821D1059803780A3B0F2B1CD85A
:1039C0002669731C2361009B012B1AD8A16800296A
:1039D00000D086E0281C1BF0C5F9051C019A954211
:1039E00075D002952B78432BF4D0392BA9D00299AE
:1039F000404A201CFFF752FF78E0201C02993E4A03
:103A0000F8E707A919F01BFEA36B606BDB68311C9C
:103A1000079A98470028D9D1201C0299374AE9E72C
:103A20002E2B15D1012803D105980378032B03D041
:103A3000201C0299324ADDE700990129C6D9A36BFF
:103A4000666B1F691BF07CF9011C301CB847BDE791
:103A50002F2B27D1012803D905980378032B03D0F6
:103A6000201C0299274AC5E7009A012AAED906A967
:103A70001BF056F90127059005980378032B03D016
:103A8000201C0299204AB5E707A91BF049F9A36B4E
:103A900005905B69606B0699079A01379847B742B2
:103AA000EAD193E7009B012B90D903289FD8059872
:103AB00007901BF057F908901BF054F9A36B09907D
:103AC0009F69606B0499321C07ABB8477EE7637946
:103AD000012B03D9A36B606B5B689847A368002B2D
:103AE00004D0201C0C30029919F03EFE0BB0F0BD42
:103AF00085A70200A9A70200CCA70200E8A7020040
:103B0000F8A7020014A8020039A8020008B5024A6A
:103B1000FFF7C4FE08BDC0465BA8020030B50B78B5
:103B2000041C85B00D1C481C002B78D0032B09D138
:103B3000081C03A91BF0F4F80399051C206B1EF068
:103B400086FB49E0012B07D14978052902D0206B7B
:103B50000DF0BEFDA81C62E0042B07D189786B78BC
:103B60000902206B19431EF0B9FB16E0052B18D192
:103B70006379042B02D0206B2A490CE088784B78BB
:103B80000002184303A91DF08FFE0399246BFDF773
:103B9000D1FF011C201C1EF0ADFB281C1BF0E2F81D
:103BA0003DE01A1C0A3A081C0F2A08D803A919F08C
:103BB00046FD0399051C201CFFF72AFE0CE0082B8C
:103BC0000CD103A91BF0A2F80399236A8A00051CF3
:103BD000D158206B1EF08EFB281C20E002AA03ABFC
:103BE00001A91BF0F0F80299051C206B0DF026FDD1
:103BF000019B201C9A000C4B291CD358002B03D18D
:103C00000A4AFFF74BFE09E0039A9847A16800298A
:103C100004D0E268002A01D1029BE360039805B05A
:103C200030BDC046547B0200E84B020078A8020079
:103C3000F0B587B00593151C0A1C531E9A410291DA
:103C4000061C0599281C04921BF080F8049B039025
:103C5000029C002B09D023780024842B05D1211C41
:103C6000306B039A1EF026FD029C039A2F1C013A2A
:103C70000192059A97421DD03B78842B12D1002CDB
:103C80000AD10499039B019A0139C918891A306B2A
:103C90001EF010FD3C1C05E0301C391C1E4AFFF7CD
:103CA000FDFD36E0381C1BF05DF8019B071C013B55
:103CB0000193DEE7002C05D1039B049A306B991821
:103CC0001EF0ECFC049B002B1CD0029AA24205D1F2
:103CD000201C1BF04CF8011C301C01E00299301C28
:103CE000002200F01BF80DE0A5420FD1281C1BF0AC
:103CF0003EF8011C301C002200F010F8281C1BF0BC
:103D000031F8051C059B9D42EED102E0301C291CB8
:103D1000F1E707B0F0BDC04690A80200F0B5041C62
:103D200085B00D1C161C2B781A1C0A3A0F2A0FD8C6
:103D300003A9281C19F083FC0399201C002E01D034
:103D4000022E02D1FFF776FDDFE0FFF761FDDCE038
:103D5000192B03D8201C291C6D4AD4E01A3B7C2B5C
:103D60007CD004D8252B75D0772B06D0C8E07E2BCD
:103D700000D186E0912B6DD0C2E0281C02A91AF078
:103D8000FBFF071C022E03D0201C391CFFF7C6FEC8
:103D9000381C1AF0E7FF0299071C19F048FC0028AC
:103DA00000D0ADE03B78922B14D1381C03A91AF057
:103DB000E3FF071C381C1AF0D5FF039A01909042CC
:103DC00008D2022E01D1019FF4E7201C391CFFF715
:103DD000A5FEF8E73B78A12B19D1022E04D1206B68
:103DE0001EF019FB206B0FE0381C1AF0C0FF011CFD
:103DF000201CFFF793FE206B012E05D11EF0DFFA89
:103E0000206B1EF0AFFA1CE01EF0C4FA19E0A22BE2
:103E100076D1381C1AF0ABFF03A919F010FC206B07
:103E2000012E06D11EF0C1FA206B03991EF078FA1C
:103E300007E0022E01D11EF0D7FA206B03991EF085
:103E40009CFA381C1AF08EFF029919F0F0FB00283A
:103E50005BD155E0281C002E4ED13AE003A9281C66
:103E60001AF08AFF0399071C19F0E1FB002847D1DB
:103E70003B789A2B03D1002E3ED13D1C18E03D1C0F
:103E800051E7002E38D1281C03A91AF075FF0399B9
:103E9000051C19F0CCFB002802D0201C311C04E0CA
:103EA0002B789A2B04D0201C291C321C331C20E0B8
:103EB00003A9281C1AF060FF061C1AF053FF0378B0
:103EC0009D2B04D10022201C311C131C11E09E2BC1
:103ED00007D103A91AF050FF311C021C039B201CC0
:103EE00007E0BD2B0CD01AF03DFF0021031C321C53
:103EF000201CFFF79DFE08E0201C291C054A02E05B
:103F0000054A201C291CFFF7C9FC05B0F0BDC046BE
:103F1000AAA80200DDA80200C2A80200F0B50B7832
:103F200091B00A3B041C019104920F2B00D9DCE0F4
:103F3000081C1AF017FF0378912B00D0D5E00198E8
:103F40001AF010FF0DA91AF017FF037842780A3B08
:103F50001B021343892B00D0C7E01AF003FF03783C
:103F6000051CA02B00D0C0E01AF041FF002800D0B3
:103F7000BBE0281C1AF0F6FE0D9A904200D0B4E087
:103F8000281C1AF0F4FE9B210E900EA81AF003FFD5
:103F90000E9B061C0293029801230F931AF0E2FE77
:103FA000071C0E90B04210D01AF0DCFE0E90B0420A
:103FB0000ED00378032B00D097E00FA91AF0B0FEC3
:103FC0000E90B04200D090E002E0714A029F02924F
:103FD0000D9B181C05931AF0C5FE049A051C831A44
:103FE0005A1E93415B421D400F9B26690693638BCB
:103FF000228B0A93731C63830793A38B0992E28B32
:10400000E383331D268323613B780B92B21C03921A
:10401000033BF21C08925A1E9341DBB20493002B1F
:1040200003D0201C391CFFF779FD0299201CFFF7F3
:1040300075FD206B08991EF003FA0399206B1EF0A2
:10404000D2F8206B1EF0B1F90022201C0199FFF775
:1040500065FE0599201CFFF761FD206B07991EF096
:10406000C2F8206B06991EF0F2F8206B12211EF0A8
:104070009AFA206B08991EF0B6F8049B206B002B6F
:1040800005D01EF09CF9206B1EF0AEF905E01EF085
:104090008CF9201C391CFFF741FD069A206B002A81
:1040A00001DB192100E01A211EF07DFA039A206B32
:1040B00001211EF0D1F9099B0A9A23830B9B62838D
:1040C000E383002D03D0201C291CFFF727FD206B64
:1040D000311C1EF088F8206B1EF07BF9049A002A30
:1040E00053D0206B1EF075F94FE0238B25690593A3
:1040F000E38B628B0793A38B6E1CE383254B0692A5
:104100002B432383EB1CAA1C236166830198029234
:104110001AF028FE011C201CFFF700FD071C206B75
:104120001EF0F6F9206B311C1EF05DF8206B029931
:104130001EF0F8F9201C01990022FFF7EFFD391C51
:10414000201CFFF7EBFC071C206B1EF043F8002837
:1041500003D1206B311C1EF073F9206B02991EF005
:1041600042F8206B1EF0EAF9059B069A23836283CE
:10417000079B049AE383974203D0201C391CFFF766
:10418000CDFC206B291C1EF02EF811B0F0BDC046EE
:10419000B9AD02000080FFFFF0B5041C85B0081C1B
:1041A000171C0D1C1AF0DEFD391C061C19F03FFA15
:1041B000019000281CD02379201C002B11D0E36A29
:1041C0001E78002E0DD11221FFF722FB291C201C86
:1041D000FFF7A4FC206B0121321C331C1EF0ABFA4C
:1041E00002E0291CFFF79AFC206B1EF0F2F858E061
:1041F00033783B2B1BD1291C201C0122FFF78EFD9D
:10420000301C1AF0B4FD4378811C4E3BDBB21826FB
:104210000A2B01D8244AD65C201CFFF77FFC206BB8
:10422000311C1EF0C0F9201C291C022237E03C2B57
:104230002ED1301C03A91AF09FFD061C071C039BFE
:104240009F4205D0381C1AF08DFD0197071CF6E738
:104250000199201CFFF762FC206B1EF0A6F8201CC1
:10426000291C0022FFF75AFD019B9E4219D0301CE9
:104270001AF078FD019B051E9D4202D0206B1EF0B6
:1042800094F8311C201C0022FFF748FD2E1CEBE7A0
:10429000311C201CFFF742FC019A201C291CFFF74F
:1042A0003DFD05B0F0BDC0467AA70200F0B589B06B
:1042B000041C0D1C059104921F1C002924D1837934
:1042C000002B27D0C16A02950B78012B23D1052141
:1042D000FFF79EFAE36A188D854211DAD96AEA007F
:1042E0008A18567801210E4208D05288206B1DF0A2
:1042F000F2FE0022206B0221131C9AE00135EBE74D
:10430000201C00214D4A22E005A89B211AF043FD04
:10431000029000E002930022059D00920392161C79
:10432000019208E0281C1E431AF021FD0390281C6E
:104330001AF018FD051C029A954256D02B78B72B1F
:1043400008D101231E42EDD03D4A201C291CFFF755
:10435000A5FA70E0B82B0CD102231E4203D0201C1A
:10436000291C384AF3E7281C1E431AF000FD009070
:10437000DDE7B92B2CD1281C1AF0F9FC051C1AF02A
:10438000F1FC0378BD2B09D1201C291C062219F051
:1043900028FA281C01371AF0E5FCC9E72B780A3BFC
:1043A0000F2B03D9201C291C274AD0E7281C07A95A
:1043B00019F045F90799051C206B1DF08FFF291C8A
:1043C000201CFFF7ABFB019B051C01330193B2E7F7
:1043D0000199201C002902D0291C1C4AB7E7291C7E
:1043E000FFF79CFB0137051CA5E7002E15D0039BAA
:1043F000002B03D1206B1DF089FF03E0201C0399E3
:10440000FFF78CFB0099002903D1206B1DF07EFF84
:1044100003E0201C0099FFF781FB049A206B391CF4
:10442000002A04D0019A331C1EF08FF903E0019A90
:10443000331C1EF080F909B0F0BDC04609A9020086
:1044400027A902003EA9020056A9020077A902008E
:10445000F7B50B78041C0E1C292B01D0312B02D18F
:104460000123E37163E02A2B61D0322B5FD01A1C49
:104470000A3A0F2A1CD9081C282B12D101A91AF0BC
:104480007BFC071C1AF06EFC019A904211D01AF0C6
:1044900069FC019A051C831A5A1E93415B421D4018
:1044A00008E01AF064FC071C1AF05CFC051C01E033
:1044B0000F1C0025381C01A919F0C1F8E379002D63
:1044C00002D02A78002A0AD1002B30D1E38A002BAF
:1044D0002DD0201C311C164AFFF7E0F927E0002BF5
:1044E0001ED0A38A01339BB2A382012B0CD1E18A97
:1044F000206B002902D01EF079F801E01DF006FFC4
:10450000206B00211EF099F8291C201CFFF706FBE8
:10451000206B01991DF0E2FE206B1EF09AF806E078
:10452000E38A201C0133E382291CFFF7F7FAF7BD69
:1045300099A90200F0B5056987B003936B1C02933B
:10454000AB1C041C03610E1C006B291C171C1DF006
:10455000BCFF201C19F07BF8311C201CFFF7DEFA91
:10456000206B1DF0F1FF206B02991DF069FF206B9D
:10457000291C1DF038FE206B1EF02CF92669731CD7
:104580002361039B9F4200D191E0381C1AF0EFFB9E
:10459000002305932369051C0193013323610378EC
:1045A000002B0FD11AF0DEFB1AF0DCFB039B9842C4
:1045B00023D0201C291C4B4AFFF770F9A38B013B29
:1045C000A3838CE0071C6A2B07D11AF0D0FB071CD1
:1045D0001AF0C8FB05A919F032F8206B1DF0E5FEB2
:1045E000391C201CFFF79AFA206B21211DF0DBFFFC
:1045F000206B0021019A1DF02FFF281C1AF0B2FB3E
:10460000071C206B1DF0E5FE0599002903D1206BE6
:104610001DF0DFFE02E0201CFFF70CF9206B1DF0FF
:10462000D8FE059B0025AB4209D02569206B6B1C89
:104630002361291C1DF055FF201C19F008F8391CB6
:10464000201CFFF76BFA059B071C002B02D0206B88
:104650001DF07AFF206B1DF081FF059B002B19D008
:10466000206B0F210DF034F8206B291C1DF0BBFDD1
:10467000206B0F210DF02CF8201C0599FFF7DAF8BC
:10468000201C0599FFF7E8F8A38B206B013BA3835F
:104690001DF033FF206B311C1DF0D2FE206B019901
:1046A0001DF0A1FD206B03211DF099FD69E7A38B8F
:1046B000206B013BA3831DF020FF206B1EF08EF8C2
:1046C000206B02991DF08FFD0C9B002B03D0201C4A
:1046D000191CFFF723FA206B311C1DF084FD07B075
:1046E000F0BDC046C7A90200F0B585B0019143797D
:1046F000041C012B3FD1C26A0D1C1378002B03D17F
:104700001E4AFFF7CBF836E001A843211AF043FB1D
:1047100000900198009B98422DD003A918F08FFFBC
:10472000039E6A4601900B32E06A311C18F0F5FED8
:104730006A46D37A071C002B06D10378042B03D0DA
:10474000201C291C0E4A0CE0E06A311C18F013FFF3
:10475000002803D00378023B022B05D9094A201C0C
:10476000291CFFF79BF8D4E704233B70E06A311C57
:1047700018F012FFCDE705B0F0BDC046E6A9020073
:104780000BAA02002CAA0200F0B585B00191437972
:10479000041C012B2AD1009101A843211AF0FBFA35
:1047A000071C0198B84221D003A918F048FF6D46B4
:1047B000039E0B350190311CE06A2A1C18F0ADFEF7
:1047C0002B78002B08D10378012B05D0201C0099F1
:1047D000074AFFF763F8E4E701250570E06A311C3A
:1047E00018F0C0FE0028DCD00570DAE705B0F0BD97
:1047F0004AAA020010B5438B041C002B02D1054AC3
:10480000FFF74CF8A28BE38B206B618BD21A0CF074
:104810007BFF10BD69AA020010B5038B041C002B9E
:1048200002D1054AFFF73AF8A28BE38B206B218B6C
:10483000D21A0CF069FF10BD81AA0200F7B50B78FF
:10484000041C1A1C0A3A0D1C0F2A08D8081C01A9BE
:1048500018F0F5FE201C0199FEF7FEFF77E0912B82
:104860003FD1081C69461AF087FA011C201CFFF78B
:1048700055F90378061C922B10D101A91AF07CFA85
:10488000061C301C1AF06EFA019B071E9F4205D0D1
:10489000311C201CFFF742F93E1CF2E73378A12BB4
:1048A0000BD1301C1AF063FA011C201CFFF736F9FB
:1048B000061C206B1DF0B9FD0CE0A22B42D1301C70
:1048C0001AF055FA01A918F0BAFE0199061C206BDE
:1048D0001DF094FD301C009918F0A9FE002831D07D
:1048E00035E0962B2ED1081C1AF041FA0378051CEE
:1048F0009A2B22D11AF03BFA061C311C201CFFF720
:104900009DFF301C1AF02EFA0378011C9D2B1ED03F
:104910009E2B0ED101A91AF02FFA019B051E9D4274
:1049200015D0201C291CFFF789FF281C1AF01AFA41
:10493000F3E7201CBD2B05D001E0201C291CFFF74C
:104940007DFF04E0201C291C014AFEF7A7FFF7BDEC
:1049500096AA0200F7B50C1C002101912178051CD4
:10496000081C0A380F2801D8201C05E01A32914291
:1049700012D1201C1AF0FBF901A918F060FEEA79A7
:10498000EB6A002A04D15A8B01325A83012633E0A4
:104990009A8B01329A83F9E71A33994220D1012781
:1049A000EF71201C1AF023FA0326002824D1201CC2
:1049B0001AF0DDF90278EB6A0A3A0F2A04D81A7E57
:1049C000201C17431F7605E01A7E201C17431F7614
:1049D0001AF0CDF91AF0CBF901A918F030FE0BE06E
:1049E000201C1AF0C4F901A918F029FEEB6A022173
:1049F0001A7E05260A431A760199002911D06F46BE
:104A00000337E86A3A1C18F088FD3B78002B05D183
:104A1000281C211C034AFEF741FF02E00223037019
:104A20004670F7BDAEAA020038B50D1CC16A041C61
:104A30000B78012B04D000210B4AFEF72FFF11E069
:104A4000281C111C18F0F3FD002804D0206B0F2146
:104A50000CF03EFE03E0201C291CFFF75FF8206BE2
:104A60001DF07EFE38BDC046C7AA020038B50D1C39
:104A7000C16A041C0B78013B012B04D90021164AA2
:104A8000FEF70CFF26E0281C111C18F0D0FD0028B2
:104A900004D0206B0F210CF01BFE18E02B78C12BEB
:104AA00011D1281C1AF063F9011C201CFFF736F8FD
:104AB000206B1DF02DFD206B0F210CF009FE206BEB
:104AC0001DF078FE06E0201C291CFFF727F8206B5C
:104AD0001DF061FE38BDC046E1AA0200F7B5041C16
:104AE0000D1C081C111C18F0A2FD002804D0206B1E
:104AF00000211DF0A2FD50E02B78AF2B0BD1206BD5
:104B000001211DF09AFD201C291CFFF707F8206BDE
:104B10001DF09FFD41E0AE2B3FD1281C1AF027F974
:104B2000051C1AF01FF900900378B12B30D101A9B0
:104B30001AF022F9019B0090984203D06846982110
:104B40001AF029F901990098266B1AF0FFF8411C18
:104B5000301C1DF072FD291C201CFEF7DFFF206BAE
:104B60001DF077FD009E019B9E4216D0311C201C3B
:104B70003778FEF7D3FF061CAF2F05D0201C291C69
:104B8000064AFEF78BFE08E0206B1DF062FDEAE7A7
:104B9000201C291C042218F024FEF7BDFAAA0200EA
:104BA0007FB5041C081C03A9161C1AF0B9F8627919
:104BB000051C012A05D10096201C03992B1C18F016
:104BC00050FD281C1AF0CEF8039A011C9300A26A2B
:104BD000201C9D580023E371A382E3820C22064B24
:104BE00018F0A8FDA368002B03D1201C291C19F084
:104BF000BDF9286904B070BD51440000F0B589B01A
:104C0000041C039103A807211AF0C5F8E26A029078
:104C10000023567E01930398029B98424BD005A92E
:104C20001AF0AAF84021039003A81AF0B4F806A9D4
:104C3000051C039818F003FD069A071C292A18D1B1
:104C4000A8420CD21AF08EF8A84208D1381C07A945
:104C500018F0F5FC079B2A2B07D02C2B07D0201C23
:104C60000021264AFEF71AFE22E0012620E0042653
:104C70001EE0019B201C013303990193FEF74EFFB8
:104C800003900398A84208D007A918F0D8FC079908
:104C90000390206B1DF044FBF3E7281C059918F0E6
:104CA000C6FC002804D1A071291C201CFEF736FF89
:104CB000059A0392AFE7181C1AF059F8029A03906C
:104CC0001378011C321C201C242B04D1FFF768FF31
:104CD000061C019D02E018F0B0FFF9E7002D07DD8A
:104CE0000022206B0121131C1DF025FD013DF5E77D
:104CF000201C311CFEF79EFD09B0F0BD1DAB02006B
:104D0000F0B50123041C0D1C427187B0E162036100
:104D1000111C006B2A1C0CF0C9FB6379012B02D11A
:104D200000236B84AB84AE6833781E2B07D1301C14
:104D30001AF01DF8011C201CFEF7F0FEDBE02B78BA
:104D4000002B04D1201C311CFEF7E8FE99E0012B5A
:104D50001ED1301C1AF006F86379051C012B07D10F
:104D60000023E371201C291C0C22674B18F0E2FC85
:104D7000281C19F0F7FF19F0F5FF011C201CFEF7A5
:104D8000CDFE206B1DF026FA002800D0B6E078E0BA
:104D9000022B19D16379012B07D10023E371201C69
:104DA000311C1422594B18F0C5FC301C19F0DAFFE5
:104DB000011C201CFEF7B2FE2B7E5A0700D49AE09D
:104DC000206B1DF006FB5CE0033B032B5BD8301C23
:104DD00019F0C8FF05A919F0CFFF19F0C3FF6779D3
:104DE0000390012F08D16A46E06A391C133218F08B
:104DF00094FB022303706F832B78032B04D1206B69
:104E000000211DF000FC05E0042B03D1206B0021E4
:104E10001DF013FC2769201C7B1C0293BB1C236123
:104E20000121FEF7F5FC206B02991DF0DCF9206BE7
:104E3000391C1DF077FB03990022201CFEF76EFF42
:104E4000039819F08FFF19F08DFF059A011C831A42
:104E50005A1E93415B4219400023321C0093201CD0
:104E6000029B19F02AFA206B02991DF0E9FA206BD7
:104E7000391C1DF0B8F9206B1DF060FB2B78062B58
:104E800039D1206B2FE06379012B06D1281C052135
:104E900005AA18F042FB0223037005A9A86818F0C0
:104EA000CEFB201C0D21FEF7B3FC201C0C21FEF7CD
:104EB000C1FC206B29691DF011FA1021201CFEF79E
:104EC000B9FCA86819F04EFF19F04CFF011C201C1A
:104ED000FEF724FE281C052118F00FFB0278031CA6
:104EE000206B022A03D10F210CF0F2FB03E05A8859
:104EF00005211DF0F0F8206B1DF032FC206B0CF04A
:104F000063FB07B0F0BDC0465FDE010053DE010069
:104F10007FB5041C081C03A919F002FF6379051C66
:104F2000012B08D1E26A201C537E039900930222D0
:104F30002B1C18F096FB039A201C9300A26A291CD4
:104F40009E580022E271A282E282064B142218F0DF
:104F5000F1FBA368002B03D1201C311C19F006F8CB
:104F60007FBDC04651440000F0B59BB00BAC071CA0
:104F7000151C06913C220021201C1E1C1EF0A7FFC0
:104F8000069879680B9038682162267119F0EAFE5C
:104F900019F0D6FE606280001CF062F80021A06269
:104FA0000095201C0A1C3B6818F05BFB1DF0FCF808
:104FB00000250990206306950026331C606A86420E
:104FC00003D3002BF8D105932DE0A1680029F8D177
:104FD000A06AB2001558002D16D06969002913D1B6
:104FE0001CF079FA6B7E6861291C201C0122042BBD
:104FF00002D1FEF767FC01E0FFF782FE2369069D00
:105000009D4200D2069301230136D7E70D98002870
:1050100000D0B4E0059C159BA200D358002B07D10B
:10502000059E01360596059814998842EED3A6E0B0
:105030001A7ED50727D51C8D021CA04223D08F4E87
:10504000DD6AA119091AC90069184D78AE0713D590
:10505000002A18D010785478558808900494039545
:105060000E1C506830CE30C2089E049A039C0E700D
:105070004A704C80486006E0002A02D1012D00D120
:105080000A1C0130D9E7002119841D8DAC46A942C4
:105090001CDADD6A1878CA00AA18072802D15668F7
:1050A000052E11D00138052804D81078002801D128
:1050B000012010701078022802D05078C40703D560
:1050C000188C441C1C8450800131DEE700226245AC
:1050D0000EDADE6AD10071180878032806D1487804
:1050E000C40703D4188C4880013018840132EEE7DD
:1050F0005C68002C94D0258D002107950A1C079D23
:10510000A94220DAE06ACE008619307800250338FB
:10511000012816D804950498604512DA049DE80029
:10512000DD6A281803900078042807D10398756871
:105130004068854202D1039842800132049D0135C6
:10514000E8E70131DBE7002A00D169E7002161458A
:105150000DDADE6AC80030180478042C02D14478D5
:10516000E50702D54488141944800131EFE7598BD3
:1051700092B251185983198C52181A8450E7099821
:1051800006991DF016F80026351C149B9E420FD37D
:105190000D9C002C49D0169B0EA8996818F0E4FAD3
:1051A000169B0D981B690B990E9A02F095FC3CE03A
:1051B0000D980028ECD1159AB3009C58002C32D0E1
:1051C000637E042B18D1002D03D106981AF087FABC
:1051D000051C002317932A4B0BA8211C03221993AB
:1051E0001895FEF76FFB0D9B002B1CD10BA8211C03
:1051F0000422FEF767FB16E00998211C1790022293
:105200000BA8FFF77DFD0D99002904D10BA8211CE7
:105210000322FFF775FD0D9A002A04D10BA8211C6B
:105220000422FFF76DFD0136AFE709981CF0C9FFB6
:10523000002D02D0281C1AF063FA381C19F0E1FD89
:10524000159B00241B685D69149915988C4207D240
:10525000A2008058002801D018F046F90134F3E785
:105260001BF022FF0D9A002A02D0101C0CF093FABA
:10527000281C111C1CF03AF91BB0F0BDFFFFFF1FEA
:10528000505E020008B540681DF09DFE002801D068
:10529000014800E0014808BDFC790200407A0200A4
:1052A00008B540680DF0D6FD004808BD547B0200EB
:1052B00008B540681DF08BFE002801D0014800E0D1
:1052C000014808BDFC790200407A020008B5406838
:1052D0001DF081FE004808BD547B0200F8B5094D61
:1052E0002B78002B0CD1084C2778FFB2002F07D168
:1052F00000680126036826705B68984727702E7047
:10530000F8BDC046322E0020332E00203E2803D0A8
:10531000402809D03C280ED14239C9B22F290AD8D9
:10532000084B585C012308E0712904D8064B585CEF
:10533000064B5B5601E001230020002A00D01360D9
:105340007047C0461FAC02003BAB0200ADAB020091
:1053500008B5512836D00FD8492827D006D842287A
:105360001CD048281FD000284BD117E04F2840D030
:1053700042D84C281AD044E0682811D007D86428B5
:105380002AD0662825D062283BD188563AE06C287E
:1053900032D071280FD0692833D12DE0885C31E0FC
:1053A0005200505E2EE05200505A2BE092005058AE
:1053B0001AF04EF829E0D2008918086849681AF0F6
:1053C0001DF822E0D2008918086849681AF031F8FF
:1053D0001BE09200505805E0D2008918086849681F
:1053E00012F0C2FA0323984302231843074BC01854
:1053F0000BE09200505808E0920050581AF00DF857
:1054000003E0002040000123184308BD0000808015
:10541000F0B587B0151C03AA071C0E1C01931C686D
:10542000FFF774FF0090402F05D1039B3C275A1EC5
:10543000A4185B421C40009A3E3FA318019A1360D7
:10544000642E09D0662E02D04F2E22D141E0281CB6
:1054500009F05CFE051C3CE0281C09F057FE12F028
:1054600031FA7D427D41EDB204900591AB0006AA70
:10547000D318083B1B68291C221C042019F0C7F90B
:1054800001235D40AD0006AB5D19083D04342D6875
:105490001FE0AA070CD1154B2A689A4208D179421D
:1054A0007941C9B2281C009A231C19F095FF1BE012
:1054B000281C09F0C7FD009B051C042B09D95A2E96
:1054C00007D9002805DA1A1C201D043AFF211EF016
:1054D000FEFC0098042800D9042079427941C9B221
:1054E000221C2B1C19F093F907B0F0BDA05102004B
:1054F00070B5061C0D1C141C181C642E0CD0662ED6
:1055000004D04F2E11D19400635127E094000D195F
:1055100009F0FCFD286021E0D4000D1909F0F6FD2A
:1055200012F0D0F92860696018E020233343712B12
:105530000CD10321014009D1094B02689A4205D1DF
:10554000E4002B19082219F047FF07E009F07AFD63
:10555000291C031C221C301C19F06FF970BDC046B9
:10556000A051020008B502480DF0B2F8014808BD8C
:10557000BC280020547B020008B509F063FD002818
:1055800001DD0AF03BF8014808BDC046547B02002B
:1055900008B509F057FD011C02480DF0B9F819F0E3
:1055A0003CFF08BDBC28002008B503480DF03AF9BF
:1055B00001234000184308BDBC28002010B5031C7F
:1055C000064C02D1201C191C04E0086809F03AFDC1
:1055D000011C201C0DF02CF9014810BDBC28002036
:1055E000547B020000487047547B020010B588B01D
:1055F00001AA6946041C02F0A7FA009A022A2AD9D5
:1056000004A8322102AA07F0F9FC019B13495A6849
:1056100002A81CF050FC201C09F02AFC104BC268A8
:105620009A4210D1236802A85A680E491CF043FC24
:10563000E368002B07D05A68002A04D0996802A8B2
:10564000002209F02FFC04A81BF05DFE09F0C8FF42
:1056500004A81BF0EFFD08B010BDC0464FAC02001F
:10566000E578000058AC020070B5031C0A1C90B02D
:10567000191C0B20002305F069FA051E03D11848F8
:1056800016F010FB29E004A80CF06AF8041E19D1EA
:105690002E6801A8291C012200F0C0FD221C231C39
:1056A000311C01A8FFF760FC041C032009F01CFF5B
:1056B000201C1BF001FD0120404209F015FF0CF0F9
:1056C00065F80AE00120404209F00EFF05480599FF
:1056D00009F00CFC0598FFF789FF10B070BDC046BB
:1056E0005CAC02009492020013B51E4BE12001AAAB
:1056F000C0001A6005F0DAFB1B4B1C48C1180AF009
:10570000C5F806F0B1FC09F0CDFE00F0B9FFF823B2
:105710009B021988164A174C914204D159881648A1
:10572000FFF7A2FF09E02278012A06D118201349C9
:10573000FF3007F08FFB1BF0E9FC2378002B0ED124
:1057400000F0C6F80028F8D00D481CF015FA00212A
:105750000C220C481EF0BBFB1BF0AAFC13BD00F092
:1057600011F9EFE7602700205C260000040100200B
:105770004D500000BA00002004E003002C8A020013
:1057800089AC0200102F002007B50AF003F9054B81
:1057900001A81968091A89080AF0BAF80AF00EF97E
:1057A00007BDC04660270020F0B585B003900526F0
:1057B000039809F023FF0125B54224DA0024144F91
:1057C000211C381C2A1C08F0CDF9C3B20190002B13
:1057D00013D06A1E381C211C029208F0C3F9031E64
:1057E0000BD1381C211C2A1C08F082F9019A381CA4
:1057F000D3B2211C029A08F07BF90134052CDED1CA
:105800000135EDB2D8E7013E002ED1D105B0F0BD93
:105810000C00002008B5C820FFF7C6FF004808BDEF
:10582000547B0200F0B593B0061C06A80F1C141C94
:105830000BF096FF051E22D13368311C03A83A1CD9
:105840000126019300F0EAFCA3082A1C33400199C9
:1058500003A8FFF789FB051C032009F045FE281C5F
:105860001BF02AFC704209F03FFE0BF08FFF344220
:1058700003D01448311C09F06BFE012518E001200B
:10588000404209F031FE01210C4202D00D4809F0DE
:105890005FFE079809F0ECFA0B4905F0C1FE051E02
:1058A00004D10799094809F021FB01E080256D002A
:1058B00001210C4202D0034809F04AFE281C13B013
:1058C000F0BDC046C2AC020008590200949202002A
:1058D0001FB5202168461BF083FC24481CF04CF9BE
:1058E00068461BF0CAFC22481CF046F909F018FE75
:1058F0000128F2D002280AD11E481CF03DF9684662
:105900001BF098FC1C4B01221A7000202CE003288D
:1059100003D168461BF0B1FCE8E7042804D0C1B20B
:1059200068461BF003FDE1E714481CF025F9019AD5
:10593000002A08D10F481CF01FF968461BF07AFCBA
:105940008020400010E0FB200299002305F0FEF8C3
:10595000002803D10A4816F04FF9C1E701210A1CBB
:10596000FFF760FFC305BBD505B000BD97AC0200D3
:10597000C5AF02002EAD0200BA000020B2AC02009A
:10598000B5AC020030B587B002A820211BF028FC7E
:1059900044481CF0F1F844481CF0EEF802A81BF053
:1059A0006CFC02A8414919F09CFF012809D140482C
:1059B0001CF0E2F802A81BF03DFC3E4B00201870E2
:1059C0006DE0022803D13A481CF0D6F8E0E703283E
:1059D0001AD0042808D136481CF0CEF802A81BF0D3
:1059E00029FC802040005AE0052825D132481CF0CF
:1059F000C3F802A81BF041FC09F092FD6C46C1B24D
:105A000007342170032901D12948C5E7042904D1AD
:105A100027481CF0B1F8012427E002A81BF086FCFF
:105A200023780D2B03D125481CF0A6F8E4E7201CB1
:105A3000012109F08DFDDFE702A81BF031FC0028F1
:105A4000ACD002A81BF05FFCFDF7ACFB00280BD02C
:105A500002A80A211BF06AFC02A8194919F041FFAB
:105A60000328D1D00428ECD1002402A81BF011FC9B
:105A7000051C02A81BF014FC291C021C0023FB209F
:105A800005F064F8002803D10E4816F00BF985E7FD
:105A9000211C0622FFF7C6FEC30500D47EE707B02F
:105AA00030BDC046C4AC02000BAD020031AD0200F7
:105AB0002EAD0200BA00002036AD020066AD020035
:105AC0006DAD02005AC002007FB54B680E1C5C1021
:105AD0006846211C1BF09BFB029D0021281C221CF8
