:020000040000FA
:10000000004000204D190100891901008B190100E1
:1000100000000000000000000000000000000000E0
:100020000000000000000000000000008D19010029
:1000300000000000000000008F190100911901006C
:10004000931901009319010041180100931901004F
:1000500093190100000000005D3F010093190100A9
:1000600093190100931901007D44010093190100C7
:1000700093190100931901009319010093190100CC
:100080009319010021160100931901009319010031
:1000900093190100931901009319010093190100AC
:1000A00093190100931901000000000000000000F6
:1000B0000000000000000000000000000000000040
:1000C000F7B5171C146801AA051C0E1C04F0FCFDF2
:1000D000402D05D1019B3C255A1EA4185B421C40B3
:1000E00023183B602A1C5A27B742BF413E3A55426B
:1000F0006A417F42231CD2B2391C1CF089F8041CCF
:100100000D1C4F2E38D0532E08D1201C21F0EDFBB2
:100110000022011C201C01F0D7F92DE0662E03D12E
:1001200003239C43022007E0642E07D1201C17F014
:100130003FF903239843022420431DE0002F0FD0F2
:10014000104B0F4A12196B41201C002B04D1002ABE
:1001500002DB1CF086FE0FE0291C1CF073FE0BE096
:10016000201C002905D1084B9C4202D81CF094FEAB
:1001700002E0291C1CF081FEFEBDC046C046C04600
:100180000000004000000000FFFFFF3FC046C046E7
:1001900038B5041C82070CD1114B02689A4208D171
:1001A00006F02CFB211D051C04301DF0FEFF281C51
:1001B00011E0201C0EF02CFCC0231B06984204D139
:1001C000064905481CF03EFE05E0C317C01858401C
:1001D00040000123184338BD00000040000000002B
:1001E000B0270200C046C046F7B5041C0191081CA8
:1001F000002114F09BFC002805D0234923481CF063
:1002000019FF10F0ECFF2379D90702D4A0796179A6
:1002100001E00520011C08F087FE0026071C22795A
:100220000523D10700D4A3799E4226DA002522793E
:100230000523D10700D4A3799D421CDA2A1C311C66
:10024000201C1DF098F915F039FB019915F076F88E
:1002500017F05CF80B4B0A4A15F0DCFB16F0E4FFD4
:100260000923082800DC031C2A1C381C311C1DF043
:1002700065F90135DBE70136D1E7381CFEBDC04624
:10028000000000000000E03F9A820200E82D02001A
:1002900010B5041C081C8A0703D1134B0A689A4244
:1002A00002D00EF0B5FB09E00EF016FC17F02EF8A8
:1002B0000C4B0B4A15F0AEFB16F0B6FF0B4B011CB6
:1002C000994205D90A490B481CF0B4FE10F087FF8B
:1002D000606813F067FA084810BDC046C046C046C3
:1002E000000000000000E03F802B0200FF03000040
:1002F00001860200E82D0200A84E0200C046C0465A
:10030000F0B541188BB0071C08920993029102992D
:100310008F4200D32CE138780CF0D0FA002801D0BD
:100320000137F4E73B782B2B02D10137049005E02D
:1003300004902D2B0ED1012201370492029B9F4283
:1003400008D38F4A00213D1C0191069207910E1C93
:10035000002458E03A7820231A43692A2ED10299C2
:10036000BA1C914200D8D6E07A781A436E2A00D09F
:10037000D1E0BA781A43662A00D0CCE0FA1DFD1C01
:10038000914200D8C3E0FA781A43692A00D0BEE04F
:100390003A791A436E2A00D0B9E07A791A43692A69
:1003A00000D0B4E0BA791A43742A00D0AFE0FA79E9
:1003B0001343792B00D0AAE00535A8E06E2AC0D1FE
:1003C0000299BA1C914200D8A5E07A781A43612AB2
:1003D00000D0A0E0BA7813436E2B00D09BE0FD1C48
:1003E0000026684C9AE02B786A1C191C303903925D
:1003F0000591092932D8022E09D1019A0A235343C3
:10040000CB180193039D029B9D42ECD354E0012E37
:1004100015D1059815F0AEFA069914F08FFF011C5E
:10042000201C14F03BFC041C069816F06FFF534B85
:10043000514A16F035F916F0BBFF0690E2E7524933
:10044000201C14F07BFF041C059815F093FA011C86
:10045000201C14F023FC0026041CD3E7002E02D13C
:100460002E2B02D126E0022E19D020221A43652A13
:1004700015D1039B02998B420BD26B782B2B02D1A7
:100480000235039505E02D2B03D10235012203959A
:100490000792039B02998B4263D00226B2E7089A27
:1004A0000026B24209D0202213436A2B05D1039DB6
:1004B000012602E00126A5E700260799002902D0BF
:1004C000019A52420192019B0393039A002A08DD8C
:1004D000201C2D4914F032FF0399041C01390391AB
:1004E000F3E70199CB43DB1799430191019B002B63
:1004F00014D0201C16F00AFF204B1F4A16F0D0F82B
:1005000016F056FF019A041C01320192EEE7FF2417
:100510000026E40502E03D1C002600240499002981
:1005200002D080221206A418BD421AD0029B9D421E
:1005300006D228780CF0C2F9002812D00135F5E770
:1005400002998D420DD1002E02D1099A002A02D0C3
:100550000E480F4907E003239C43022020430BB0C1
:10056000F0BD0A480B491CF065FD10990DF072FAB8
:1005700000230493E5E6C0469A9999999999B93F61
:10058000CDCCCC3D0000C07F00002041E82D020012
:10059000198A0200368A020008B50B4B1B78002B23
:1005A00001D111F077F811F01DF8064B044A14F050
:1005B00005FB4904C00B084308BDC046C046C04601
:1005C00040420F0000000000712E0020C046C046CF
:1005D0002F4B70B51B78061C002B01D111F05AF877
:1005E00011F000F8254B244A14F0E8FA4B04C00B34
:1005F000002400251843CD0B0023321CA4185D41B4
:1006000080231B06984205D9002E03DB1C4A1D4B94
:10061000A4185D41610CEB030B43E2031A481B492C
:1006200080185941154B144A14F0A8FA194D041CAE
:100630002B78194E002B02D0336898421BD010F053
:10064000D1FF201A022802DC10F0CCFF841C21020A
:10065000124BA822D200090A99502A783460002A45
:1006600009D101222A70D2218022520289005A50D7
:10067000C12189005A5070BD40420F0000000000A7
:1006800000000000010000003F420F0000000000D9
:10069000712E0020722E00209828002000100140AA
:1006A00073B58279061C930740D401231A4206D100
:1006B00081881A1C684612F077F9234837E01E2219
:1006C000B35E2422805EC01A16F0E2FD041C2223D1
:1006D000F05E1C22B35E0D1CC01A16F0D9FD021C80
:1006E0000B1C201C291C17F0BFFC124B104A15F0E4
:1006F000D7FF114A114B15F0AFFC16F059FE00213F
:10070000041C14F013FA002804D0201C0F4914F024
:10071000C5FA041C201C16F0F9FD021C0B1C08482D
:10072000084916F04DFA16F07FFD00E0084876BD46
:100730000000000000806640EA2E4454FB2109407E
:10074000000000000080764014FCFFFF0000B4436E
:1007500015FCFFFFC046C04670B5041C042018F00D
:1007600067FD051C1648401B15F004F916F0CEFD78
:10077000124B114A15F094FF00F026F80323061CD3
:10078000281C9E4318F05EFD2368002B0AD1301C04
:1007900018F04EFD20600028F6D1203E002EF3D147
:1007A000084807E0B608B6009B19201C636020F0DB
:1007B00088FB002070BDC046666666666666EE3FD2
:1007C0000038002013FCFFFF38B50E4B0C4A041C08
:1007D0000D1C16F0ADFE002804D1201C291C16F0BB
:1007E00023FD38BD074B064A201C291C16F0E8F9EA
:1007F00016F01AFD80231B06C018F2E7C046C0465B
:10080000000000000000E041F0B58BB0041C0E1C9D
:1008100017F02EFC2A4F0023FB56051C013304D091
:10082000301C17F0DDFB002802D1281C0BB0F0BDF6
:10083000201C17F0D5FB0028F7D0301C002114F045
:100840006FF90028F1D0012300931E4B201C019367
:100850000023089316F05AFD041C0D1C301C029452
:10086000039516F053FD3E7804900591002E16D0A6
:1008700012491148021C0B1C15F0EEFB0690079163
:10088000022E0ED118F0A4F921230360089B002B3F
:100890000DD10698079916F08BFD051CC5E7069447
:1008A0000795684618F0D2F80028EFD1EAE718F06B
:1008B0008FF9089B0360ECE70000000000000000D7
:1008C000D8000020206A0200F0B546464F46C0B46A
:1008D0008BB0051C0C1C17F051FCBB4E0023F356CB
:1008E0008046071C013304D0201C17F079FB002838
:1008F00005D1381C0BB00CBC90469946F0BD281CA5
:1009000017F06EFB8146002833D1201C002114F023
:1009100007F90028EDD001230093AC4B4A46281C70
:100920000193089216F0F2FC6F46B860F960201C43
:1009300016F0ECFC9D4B9C4ABA61FB610023F35618
:10094000386179615A1C0ED0022B0CD0684618F021
:100950007DF8002800D1E5E03B6A002B03D018F0B9
:1009600037F93B6A0360B869F96916F021FD071C85
:10097000BFE7281C002114F0D3F8002832D0201C37
:10098000002114F0CDF88046002869D0012300939F
:100990008E4B281C01930023089316F0B7FC6F467A
:1009A000B860F960201C16F0B1FC814A814BBA6135
:1009B000FB610023F35638617961002B04D07B4B37
:1009C000794ABA61FB61CEE7684618F03FF8002823
:1009D00000D1ACE03B6A002BC5D018F0F9F83A6AB8
:1009E0000260C0E7404617F0BDFF8146002867D08F
:1009F0004046002114F094F84746002800D178E7DB
:100A0000281C17F0AFFF4746002800D171E7201CD3
:100A100017F0A8FF002800D16BE7042300936B4B6D
:100A2000281C01930023089316F070FC6F46B860F1
:100A3000F960201C16F06AFC5D4A5E4BBA61FB61EE
:100A40000023F35638617961022B7AD0684617F09B
:100A5000FDFF002875D03B6A002B00D183E7BCE77F
:100A6000201C17F07FFF002800D142E7201C002146
:100A700014F05CF8002800D13BE701230093534BAE
:100A8000281C01934346089316F040FC6F46B8605B
:100A9000F960201C16F03AFC386179613178002940
:100AA0004AD0454A454BBA61FB61022934D118F05E
:100AB0008FF8212303603A6A002A00D153E74EE7FA
:100AC000281C17F04FFF002892D0201C17F04AFF77
:100AD00000288DD0404617F083FA6F46002835D1A4
:100AE00001230093394B0890281C019316F00EFC4B
:100AF000B860F960201C16F009FC3478386179611F
:100B0000002C19D02A482B49021C0B1C15F0A4FA02
:100B1000B861F961022CCAD0684617F097FF002827
:100B2000C9D1C4E718F054F82123036014E718F082
:100B30004FF8212303604DE71D4A1E4BBA61FB614C
:100B4000EAE718F045F82223036084E703230093C3
:100B50001E4B4A46281C0193089216F0D7FBB8603A
:100B6000F960201C16F0D2FB0023F356386179613E
:100B7000002B2DD1124A134B281CBA61FB610021B6
:100B800013F0D4FF002845D10023F356022B05D0E3
:100B9000684617F05BFF002800D01BE718F018F834
:100BA0002223036016E7C046000000000000F03F6B
:100BB0000000000000000000000000000000F0FF46
:100BC000000000E0FFFFEF47D8000020286A020085
:100BD0001E4B1D4A281CBA61FB61002113F0A6FFC1
:100BE0000028D1D0FC21201C890514F0A7FB16F0A9
:100BF0008DFB041C0D1C17F02BFF021C0B1C201C72
:100C0000291C16F071FC0028BED1114A114BBA61A3
:100C1000FB61B9E7FC21201C890514F08FFB16F05D
:100C200075FB041C0D1C17F013FF021C0B1C201C71
:100C3000291C16F059FC0028A6D1074A074BBA61B7
:100C4000FB61A1E7C046C046000000000000F07F45
:100C5000000000000000F0FF000000E0FFFFEFC711
:100C6000F0B55F464D4644465646F0B4041C50422B
:100C70000D1C104359004908C00F8846014389469E
:100C8000774985B0161C1F1C9B46009401958C4625
:100C9000894527D801984100490803900098894662
:100CA000009940420843C00F49460143614519D8A5
:100CB0006C48C01810434BD0991702200840824658
:100CC0000198C10F504608438246009849460843A0
:100CD00017D1504602285BD011DC002811DB201C04
:100CE000291C05E0301C391C221C2B1C14F092FE20
:100CF00005B03CBC90469946A246AB46F0BD0328E1
:100D000035D04046024305D10399002946DB3F49CF
:100D10003D48EDE7524B98451FD0514B99453AD08D
:100D200048464146431A1B153C2B23DD37493648BC
:100D30005346012B40D0022B33D0002BD8D0344A5D
:100D4000344B15F03DFF344A344B15F039FFCFE7F3
:100D5000201C291C00F088F8CAE7C14535D0504650
:100D6000012842D03CDD022812D00328D5D12C48DE
:100D70002C49BDE75A46002A22DB321C3B1C201CB2
:100D8000291C15F069F917F0E5FD00F06DF8CFE7C3
:100D900021482249ACE7039A002AB8DA22482349BD
:100DA000A6E71B4A1B4B15F00BFF021C0B1C1A4835
:100DB0001A4915F005FF9BE780242406091997E7D7
:100DC0003C33DADA1A481B49B2E75246012A17D0F7
:100DD0000EDD022A11D0032ADDD11748174987E713
:100DE00000289AD11248134982E7154815497FE730
:100DF000002AD0D1144815497AE71548154977E7F4
:100E00001548164974E7C046182D4454FB21F93F94
:100E1000075C143326A6A13C182D4454FB2109403D
:100E2000182D4454FB2109C0182D4454FB21F9BF4F
:100E30000000000000000000D221337F7CD902C0F6
:100E40000000000000000080182D4454FB21E93F01
:100E5000D221337F7CD90240182D4454FB21E9BFB5
:100E60000000F07F000010C0F8B556464D464446DD
:100E70005F46C54BF0B44E00814688468A467608E8
:100E80009E420CDDC14B9E4200DDA7E000D1A2E0F6
:100E90005046BF4A002800DCE3E0BE4BA6E0BE4B54
:100EA0009E4200DDB8E0BD4B9E4200DCA6E001247E
:100EB0006442A3464A4643464846414615F0F0FB85
:100EC000061C0F1C321C3B1C15F0EAFB8F4B8E4A94
:100ED000041C0D1C15F0E4FB8D4A8E4B14F09AFD9A
:100EE000221C2B1C15F0DCFB8B4A8C4B14F092FD62
:100EF000221C2B1C15F0D4FB894A8A4B14F08AFD66
:100F0000221C2B1C15F0CCFB874A884B14F082FD69
:100F1000221C2B1C15F0C4FB854A864B14F07AFD6D
:100F2000321C3B1C15F0BCFB834A844B061C0F1C77
:100F3000201C291C15F0B4FB814A824B15F040FEA1
:100F4000221C2B1C15F0ACFB7F4A804B15F038FEA1
:100F5000221C2B1C15F0A4FB7D4A7E4B15F030FEA5
:100F6000221C2B1C15F09CFB7B4A7C4B15F028FEA9
:100F7000221C2B1C15F094FB021C58460B1C013044
:100F800000D170E05946CC00301C391C14F042FDF1
:100F90004A46434615F084FB814D0B1C81492D19AF
:100FA000021C0C19101C191C2268636815F008FE3D
:100FB0004A46434615F004FE021C0B1C286869686B
:100FC00015F0FEFD021C50460B1C00280EDA802096
:100FD00000060B180AE0002800D159E74A464346AC
:100FE0004846414614F016FD021C0B1C101C191C2F
:100FF0003CBC90469946A246AB46F8BD584A594B70
:1010000014F008FD584A594B16F088FA002800D110
:101010004DE74A464346E9E717F09CFC624B041C47
:101020000D1C9E4230DC614B9E4256DC221C2B1C68
:1010300014F0F0FC4C4A4D4B15F0C2FD4C4A4D4BA0
:10104000061C0F1C201C291C14F0E4FC021C0B1CA9
:10105000301C391C15F000F88846002181468B466B
:1010600028E7534BC2E7301C391C14F0D3FC4A4626
:10107000434615F015FB021C0B1C4846414615F073
:101080009FFD021C0B1CB1E74A4B9E421ADC3A4AF8
:101090003A4B15F095FD384A384B061C0F1C201CA6
:1010A000291C15F0FDFA304A304B14F0B3FC021C39
:1010B0000B1C301C391C14F0CFFF814602208846DF
:1010C0008346F7E62E482F49221C2B1C14F0C4FF40
:1010D0008846032181468B46ECE6234A234B15F0D4
:1010E0006FFD214A214B061C0F1C201C291C14F0EB
:1010F00091FC0B1C021C391C301C14F0ADFF0123A9
:10110000814688469B46D5E611DA22E33AAD903F08
:10111000EB0D76244B7BA93F513DD0A0660DB13F2E
:101120006E204CC5CD45B73FFF8300922449C23F96
:101130000D5555555555D53F2F6C6A2C44B4A2BF5B
:101140009AFDDE522DDEAD3F6D9A74AFF2B0B33F23
:10115000711623FEC671BC3FC4EB98999999C93F9B
:101160009C7500883CE4377E000000000000F03FE2
:101170000000000000000040000000000000F83FF8
:10118000000000000000F0BFFFFF0F440000F07FF0
:10119000182D4454FB21F93FFFFFDB3FFFFF1F3EAB
:1011A000D81E0200B81E0200FFFFF23FFFFFE53F1E
:1011B000FB21F9BFFF7F034008B5064B0648033308
:1011C0001B1A062B00D808BD044B002BFBD09847F8
:1011D000F9E7C046F0000020F00000200000000009
:1011E00008B50748074B1B1A9B10DA0FD318591084
:1011F00000D108BD044A002AFBD09047F9E7C04659
:10120000F0000020F00000200000000010B5074CA6
:101210002378002B09D1FFF7CFFF054B002B02D01D
:10122000044800E000BF0123237010BDF00000203F
:1012300000000000ECBA020008B5094B002B03D0F7
:101240000848094900E000BF08480368002B03D0A4
:10125000074B002B00D09847FFF7C2FF08BDC046E0
:1012600000000000ECBA0200F4000020F0000020B2
:1012700000000000144B002B00D1124B9D46402271
:1012800092029A1A924600218B460F461148124A42
:10129000121A20F034FA0D4B002B00D098470C4B5B
:1012A000002B00D098470020002104000D000B48BF
:1012B00020F0FFF817F046FF200029001EF062FF23
:1012C00017F08CFC00000800004000200000000027
:1012D00000000000F0000020D42F0020F58E010057
:1012E000032210B502400123002A03D109490468F2
:1012F0008C420CD0011C19400123002907D10B1C82
:10130000002A04D10268044BD31A5A425341181CD4
:1013100010BDC046584D0200B027020010B5041C95
:10132000FFF7DEFF012300280AD103222240031C1D
:10133000022A05D1044B054A1C40A3185C1EA34198
:101340000120184010BDC0460400807FFCFF7F8054
:1013500008B51DF0F4FF0349021C034805F0AAFE7E
:101360000FF03DFFCC6F0200D832020010B5041C14
:101370000C201DF079FA034B446003600023836066
:1013800010BDC046A8200200F7B58A18019300924C
:10139000041C0E1C0B1C002200998B420DD21978E4
:1013A000272904D0223948424141C9B201E0002135
:1013B000012201330029EFD002E02225002A00D1CA
:1013C00027251F4F201C391C2A1C1EF093F9009959
:1013D0008E422FD23278AA4203D1201C19492A1CEE
:1013E00024E05C2A02D1201C17491AE01F2A0AD9DE
:1013F0007F2A19D0019B002B02D053B2002B0CDBAB
:10140000201C391C12E00A2A02D1201C0F4908E0D6
:101410000D2A02D1201C0E4903E0092A04D10D49EE
:10142000201C1EF09DF803E00B49201C1EF062F901
:101430000136CCE7391C2A1C201C1EF05BF9F7BDD5
:10144000F96F0200F86F0200FC6F0200FF6F0200EC
:10145000027002000570020008700200184B70B59F
:10146000061C0C1C98420ED1886849680CF0E0FB01
:10147000051E08D0201C1DF0F4FA12480023ED00D0
:10148000236028431AE010201DF0EEF96168051C66
:1014900081600660A0680CF0AFFB616822680131D2
:1014A0006860A068914201D01DF003FAE860E96825
:1014B000AA6800238B54281CA360236070BDC0461B
:1014C000A83402000600807F38B5051C0C1C002AD9
:1014D00002D00CF0E3FB03E00CF0AAFB002803D0E1
:1014E000044BC000184304E00348291C221C19F0D7
:1014F0004EFB38BD0600807FA834020008B5031CEF
:101500000A1C0248191C19F042FB08BD38210200D0
:1015100008B50B4A0B4B02409A4202D14002000B25
:101520000DE0820709D1084B02689A4205D1C368D1
:101530008168181C0CF0B2FB01E0FFF709FF08BD41
:101540000700807F0600807FA834020008B5074AA4
:10155000074B02409A4204D14002000B1DF0CCFD23
:1015600002E08368C0680B6008BDC0460700807F4A
:101570000600807FF0B5002689B00F1C051C1C1CDE
:10158000081C0096111C0323321C05F079F8B742A1
:101590003AD0012F0ED104A802AA10210BF024F991
:1015A000216802A8321C0DF061F9281C04A9FFF77C
:1015B00055FF2AE0206804A982071CD1144B026859
:1015C0009A4218D1FFF7C2FF124A061C124B20683C
:1015D00002409A4205D14002000B1DF07EFD041C22
:1015E00000E044681020049F1DF03EF9056087600C
:1015F000C660446009E001220DF0D4FB059904980F
:101600000022FFF761FF00E0044809B0F0BDC046CA
:10161000382102000700807F0600807F0E00807F57
:10162000F0B58BB0049008680D1C069207930DF07E
:10163000F3F8041C68680DF0EFF8061EA64202D00D
:101640006868FFF785FE08A92868FFF77FFF09A9EA
:10165000041C6868FFF77AFF089A0590A3180393A3
:10166000049B271C022B1BD9AB6820498B4207D057
:1016700001210091301C211C06F046FA071C00E0F5
:10168000271C049B032B0BD0EB68184A934207D00E
:1016900001220092301C211C089A06F035FA0390B2
:1016A000039B381CD91B069B059A0093099B19F0D4
:1016B0004EFA011E0AD1079B01204042002B12D096
:1016C0000B490C481BF0B6FC0FF089FD0A4B9E42FB
:1016D00005D1201C1DF0D4FA0121400002E0011BBD
:1016E0004900012008430BB0F0BDC046A84E0200DF
:1016F0000F700200E82D0200A8340200F0B58DB092
:10170000041C03910DF088F804A9061C201CFFF7A7
:101710001DFF0290039882070BD10368324A93425F
:1017200004D105A906AA1DF00FFD10E02F4A93422F
:1017300008D02E480121C36800220193019C03AB0D
:10174000A0470390039805A906AA1BF051FE0024A8
:10175000251C059B9C4220D2069AA700D0590DF06B
:101760005BF8B04205D0224922481BF063FC0FF021
:1017700036FD002C01D0049BED18069A1E4BD05963
:101780001E4A02409A4204D14002000B1DF0AAFCFE
:1017900000E080682D180134DBE7291C08A81DF043
:1017A0004DF90A9C0025059A954217D2002D06D0C6
:1017B000201C049A02991FF080FF049AA418069A2C
:1017C000AB00985807A9FFF7C1FE079A011C201C1F
:1017D0001FF073FF079B0135E418E4E7301C08A9EC
:1017E000FFF73CFE0DB0F0BDF45B0200483802008C
:1017F00023700200D83202000600807F0700807F3D
:10180000F0B5071C87B008680C1C0DF005F804A99A
:10181000061C2068FFF79AFE05A9051C6068FFF703
:1018200095FE0390281C022F07D901220092A3687D
:10183000301C291C049A06F067F9059A451B049B85
:10184000AD189D4206D803991FF028FF002801D14A
:10185000024800E0024807B0F0BDC046504D02000B
:10186000944D020073B50C1C061C08686946FFF70E
:101870006DFE01A9051C6068FFF768FE011C022EC1
:1018800002D908480AF0A6FF019A009B9A4207D89D
:101890009B1AE8181FF002FF002801D1024800E05F
:1018A000024876BD68700200504D0200944D02005F
:1018B000F0B58FB0079010680C1C171C0CF0ACFF33
:1018C0000690012C10D078680CF0A6FF069A031C35
:1018D0007868934201D0FFF73BFD0DA9FFF736FE74
:1018E0000D9B0890099303E02D4B07220992089362
:1018F00038680DA9FFF72AFE0D9A079B0B900492FA
:10190000012B04D1141C5B42013C0A9302E001222A
:101910000A920024049B0025059303952E1C059A2A
:10192000002A22D00B9B08981A19012300930999C9
:1019300019F00DF9002812D1039A002A0ED1079B45
:10194000002B03D1261C049C013C18E0079A012AB5
:1019500014D00123251C261C039300E0251C059BA5
:101960000A9A013BA4180593D9E7039B002B07D1E2
:101970000C4B069A9A4210D10B480FE0039E251C8F
:10198000049B0135AA1B9A4201D1386806E00B9BE3
:101990000698991919F0FBF800E004480FB0F0BD63
:1019A00067740200A83402000E00807F081F020046
:1019B000F0B589B0049008680D1C0CF02DFF041CD4
:1019C00068680CF029FF071EA74202D06868FFF77D
:1019D000BFFC06A92868FFF7B9FD07A9061C6868BF
:1019E000FFF7B4FD069A049BB11805900391341CCF
:1019F000022B1BD9AB6820498B4207D001210091F3
:101A0000381C311C06F080F8041C00E0341C049AD9
:101A1000032A0BD0EB6818498B4207D001220092B1
:101A2000381C311C069A06F06FF80390079A002ABA
:101A300001D0002510E0039B201C191B1DF02FF97D
:101A400001304000012514E0201C05991FF026FEFE
:101A5000002807D10135341C079A0399A6188E4235
:101A6000F2D904E0201C1DF004F9061CF3E76D0018
:101A70000120284309B0F0BDA84E0200F0B58BB09C
:101A80000E1C071C03920CF0C7FE041C301C0CF04B
:101A9000C3FE844202D0301CFFF75AFC05A9381C53
:101AA000FFF754FD06A9051C301CFFF74FFD069BF0
:101AB000021C002B05D11A491A481BF0BBFA0FF083
:101AC0008EFB19498C4201D1184900E01849079151
:101AD000089109910399002901DD079700E0099712
:101AE0000399281C0091059919F031F8002811D0AC
:101AF000471B3A1C291C201C19F049F8069A059B23
:101B0000B918DF1B07906918BA1A201C089619F03B
:101B10003EF8099007A903200CF0DAF90BB0F0BDEC
:101B20007A700200E82D0200A83402000E00807FC7
:101B3000081F020008B5011C014819F03EF908BD54
:101B4000BFEC010008B5011C014819F036F908BDC9
:101B5000D3EC0100F7B5061C081C01A9FFF7F6FC41
:101B6000019A051C002A01D1144826E0144B041CDC
:101B70009E4201D1002712E0124B9E42FAD0019AF8
:101B8000631B934218D22078B04701340028F6D165
:101B9000EAE720780AF09EFE002805D10134019A78
:101BA000631B9342F5D305E02078B0470028DBD0D3
:101BB0000127F3E7002FD7D00348FEBD944D020064
:101BC0001DC9000035C90000504D020008B5011CB8
:101BD0000148FFF7BFFF08BDBDC8000008B5011CE4
:101BE0000148FFF7B7FF08BDD5C8000008B5011CC4
:101BF0000148FFF7AFFF08BDEDC8000008B5011CA4
:101C00000148FFF7A7FF08BD1DC9000008B5011C6A
:101C10000148FFF79FFF08BD35C90000F0B585B04A
:101C2000051C0C1C171C0CF0F7FD6946061C281C33
:101C3000FFF78CFC051C042F22D10099A20715D1B7
:101C4000114B22689A4211D1081C01AA211C04F0F0
:101C500027FC002802D10D480AF0BCFD019B029A26
:101C6000E918D21A301C18F092FF0AE00023301C49
:101C7000221C0CF0ABFF285C01234000184300E05D
:101C8000002005B0F0BDC046E84E02008A70020098
:101C9000F0B51C1C89B000296AD01868364E374D43
:101CA000031C3340AB4205D082071FD1344B02687E
:101CB0009A421BD10239012954D804A9FFF746FCE6
:101CC000071C20680640AE4205D14002000B1DF003
:101CD00004FA041C00E044681020049D1CF0C4FDBC
:101CE000284B85600360C760446042E0012939D811
:101CF000012210420AD04410211C04A81CF09EFEB0
:101D000006980021221C1FF0FAFC26E001A91DF014
:101D10002CFB002805D0029A01991A4818F037FFC9
:101D200027E020680CF094FF002802D104A81021BD
:101D300001E0411004A81CF06AFE206809F08EFF43
:101D4000041C201C09F0D8FF002806D00CF060FE0F
:101D5000C1B204A81CF001FFF3E704A90948FFF78A
:101D60007DFB06E0084909481BF064F90FF037FADB
:101D7000074809B0F0BDC0460700807F0600807F9D
:101D8000A834020038210200BB700200D8320200E1
:101D9000081F020037B5041C081C01A9FFF7D6FB79
:101DA0000549051C201C1DF0DBFB291C201C019A89
:101DB0000123FFF7E9FA37BDBE9A0200F7B51E4BC3
:101DC0001E4F021C051C0C1C1A40BA420CD10B40C1
:101DD000934203D1401A444260412BE04002000B81
:101DE0001DF07BF9061C00E04668134B2340BB4204
:101DF00004D16002000B1DF070F900E06068002E55
:101E000005D0002803D0864201D0002013E0281C12
:101E10006946FFF79BFB01A9051C201CFFF796FBF9
:101E2000009A019B011C9A42EFD1281C1FF036FC3E
:101E300043425841C0B2FEBD0700807F0600807F4C
:101E400007B5094B094A02409A4206D0830708D1D8
:101E500003689A69064B9A4203D101A9FFF776FB02
:101E60000EBDFFF775FAC0460600807F0700807F31
:101E7000AD1E00000A4A0B4B13B502400C1C9A42DF
:101E800006D083070AD103689A69074B9A4205D1A5
:101E900001A9FFF75BFB019B236016BDFFF758FA12
:101EA0000700807F0600807FAD1E0000F0B5A1B066
:101EB000041C0D1C0D920A2800D0D5E103240792C2
:101EC000144010D11368B64A934206D1079810A95E
:101ED0000FAA1DF039F907940BE0B24A934202D1E0
:101EE0000F94109405E00DAB0F9301231093002382
:101EF00007930F9B109A11A9281C0A930892FFF7C9
:101F000025FB14AA0B90102118A80AF06DFC0B9A5F
:101F1000119B0B9CD21806920027069B9C4200D373
:101F200099E12178252903D018A81CF016FE90E12C
:101F3000069A651C954202D39B489C4916E061783D
:101F4000252904D118A81CF008FE2C1C81E10026CC
:101F5000282919D1A01C051C00E001352B78292B5C
:101F600008D0069B9D42F8D38F4891491BF062F838
:101F70000FF035F9291A0122FFF7A6FA011C07987C
:101F80000BF0E0FC0135061C002220232C1C0992DA
:101F90000593151C069A944211D223782D2B01D15A
:101FA000012306E02B2B01D1022302E0202B02D1DA
:101FB00004231D430FE0232B0BD0302B05D0069AB2
:101FC00000231293944208D31FE040221543059347
:101FD00001E0102309930134DCE723782A2B0FD189
:101FE000089A3B1E934202D372487349BEE70A9A8D
:101FF0009B0098580CF00CFD01371290013404E05E
:10200000201C12A918F08CFD241801235B421393A5
:10201000069B9C4290D223782E2B20D1069B621CDB
:102020000C929A4288D263782A2B0CD1089A3B1ED4
:102030009342D9D20A9A9B0098580CF0E9FC0137D8
:102040001390023407E000230C9813A9139318F09F
:1020500067FD0C9B1C18069A944200D36CE7002E77
:1020600007D1089A3B1E9342BED20A9A9B009E5803
:1020700001372378672B0FD8652B6ED2582B00D1F0
:10208000CEE004D81A1C453A022A66D9D8E0632B60
:1020900012D0642B43D0D3E0732B07D8722B00D31C
:1020A0009AE0692B3BD06F2B67D0C9E0752B36D0F7
:1020B000782B00D1B4E0C3E0404A414B32409A4211
:1020C00005D0B30714D13F4B32689A4210D11CA9F6
:1020D000301CFFF7CFFE1C9A011C012A02D03548A4
:1020E000394943E720230093129B14A801930FE082
:1020F000301CFFF7F5F800280ED0301C0CF088FCDF
:10210000129A1CA9202308700192009314A801229E
:102110002B1C0EF0D5F99CE026482C4926E703221B
:1021200032400023022A05D1294B2A4A33409B180A
:102130005A1E9341311C002B05D00323301C9843B9
:1021400004F09CFB011C059B129A0193139B0292C5
:102150000095039314A80A221FE0301C0CF0BCFC6D
:10216000059B22780093129B011C0193139B14A8DA
:1021700002932B1C1DF070FA6BE0099A002A02D022
:1021800084239B001D43059B129A0193139B02928B
:102190000095039314A8311C082261234DE0C0462A
:1021A000F45B020008520200E82D0200D570020024
:1021B000E7700200D8320200FD7002000700807F45
:1021C0000600807FA8340200247102003D710200E5
:1021D0000400807FFCFF7F801CA8102116AA0AF053
:1021E00003FB227816A8723A53425A41D2B2311CEC
:1021F0000CF03CFB139A1D9B002A00DA1393139AF0
:102200001E999A4200D91A1C20230093129B14A8ED
:1022100001932B1C0EF054F91CA81CF022FC18E0B2
:10222000099A173B1543059A00950192129A14A832
:102230000292139A311C039210220EF0A3F908E0C7
:102240000B9A4949A41A00941A1C484804F032FF1A
:102250008EE6013461E6089A974202D04448454927
:1022600084E6454818A969E0081C0CF0D5FA16A9BF
:10227000061C281CFFF76AF9071C0D98072C1DD1B6
:1022800018A90CF003FC0025A84269D01899A942AE
:1022900004DC394B9E420FD1384D61E0169B1CA8DF
:1022A00059431CF0CBFB1E9A381C00920121169A50
:1022B000189B1AF058FB3FE0314D51E00CF0ACFA9E
:1022C000864206D10D981CA9FFF740F91C9D069087
:1022D0000DE02C4B00259E4242D10D981CA90122F5
:1022E0001DF043F8A8423BD01C9B1D9D06931D2C5E
:1022F00006D8192C26D2052C0DD0122C0BD02EE08E
:102300001F2C2CD101230093381C1699069A2B1CE4
:1023100018F01DFC1DE0169A1CA8A9181CF08EFBD5
:10232000391C169A1E981FF0C8F9169A1E9B06991A
:1023300098182A1C1FF0C1F9301C1CA9FFF78EF851
:10234000051C0DE00095201C391C169A069B1AF0FE
:102350003EFB002801D00C4D02E00C4D00E00025B2
:10236000281C21B0F0BDC0464E710200E82D0200CD
:10237000D832020083710200A83402000E00807F70
:10238000081F020038210200504D0200944D020047
:10239000F0B59FB00D9109680E900591081C10A929
:1023A0000F92FFF7D3F81021079012AA16A80AF08F
:1023B0001BFA079A109B0021D21809920B910799DA
:1023C000099A914200D38FE0079A1178141C0134C6
:1023D0007D2908D1099B9C4202D251787D2910D0D9
:1023E000B348B44934E07B2903D016A81CF0B5FBF0
:1023F00076E00999261E8E4236D2079A51787B29BB
:1024000004D116A81CF0A9FB079469E07D2915D01A
:10241000212913D03A2911D01CF02EFB041C31784D
:102420007D290CD021290AD03A2908D0201C1CF083
:1024300094FB099B01369E42F1D115E000243378CC
:10244000212B57D10999731C994205D898489A496C
:102450001AF0F0FD0EF0C3FE75782B1C723B012BB9
:10246000F4D802368E4246D391489449F0E70A9850
:102470001CF00DFB069A002A00D17EE1002F00D14E
:1024800020270C9A002A00D082E1069B3D2B00D128
:1024900089E15E2B00D188E13C2B01D101231D4352
:1024A000301CFEF71DFF002800D1CAE1632C00D1CB
:1024B00090E100D982E1472C00D878E1582C00D176
:1024C000ACE1622C00D0B5E1119900230291009596
:1024D0000197039312A8311C022261230EF052F8D7
:1024E000079B013307936AE716A97548FEF7B6FF05
:1024F0001FB0F0BD0025337800220A923A2B18D184
:10250000731C079373787D2B0ED01CF0B5FA079ED1
:102510000A9009998E42A7D231787D2909D00A986C
:1025200001361CF01AFBF4E7079A099B9A4201D383
:102530009AE7079607990B787D2B02D05C48614992
:1025400086E7002C48D00023201C1A931CF0F2FAD6
:10255000061C00780AF0CAF9371C00281CD00B9A18
:10256000002A02DD5248584972E7301C1AA918F0B7
:10257000D7FA0E9A1A9B013A3718934237D2013391
:102580000D999B005E5801235B420B931AE02E2BA2
:1025900005D05B2B03D001373B78002BF7D1B91B5B
:1025A000301C0122FEF790FF061C311C0F98002200
:1025B00002F04AFF002804D1311C44481AF033FDD0
:1025C00048E746683B78002B02D041480AF002F900
:1025D000201C1CF05CFA13E00B9A002A02DA344843
:1025E0003C4935E70E9B0B99013B994202D33A488F
:1025F0003A492DE70B9B0D9901339A0056580B93DE
:102600000A9A002A03D1002D00D18AE101E0002DB1
:1026100011D014AA1AA81021733D0AF0E5F86A1E19
:102620009541311CEAB214A80CF020F924481AA9EB
:10263000FEF714FF061C01235B42119314930A9BBF
:10264000002B00D195E0181C1CF074FA0778041CCC
:102650000020874205D02248391C1FF030F9431E64
:102660009841002803D006970134002711E0069016
:10267000002F0ED061780691002904D018481FF071
:102680001EF9431E9841002801D0023401E0069053
:10269000071C22780C922B2A05D02D2A05D0042560
:1026A000202A1FD102E0022500E0002501341BE0B2
:1026B000E82D0200B8710200E0710200F971020019
:1026C000A83402001172020035720200C833020001
:1026D00098720200B5720200442F02007F7202005D
:1026E000FF72020000250C952378232B02D11023C2
:1026F0001D4301342378302B07D1069B002B01D1D9
:102700003D210691002F00D13027201C11A918F07F
:1027100007FA2018037808902C2B04D1021C2023E0
:1027200001321D43089208990B782E2B07D10C1CFF
:102730000134201C14A918F0F3F920180890089A05
:1027400000201478844205D07748211C1FF0B7F888
:10275000431E9841002803D0089B0133089300E0F2
:10276000041C08990B78002B00D180E66F48704953
:102770006EE60A9D2C1C2F1C0C95301CFEF7CEFD1E
:102780003C230693002800D178E63E21069175E6A9
:10279000732C02D1654867495AE6632C00D074E671
:1027A0006248654954E6402379E6802377E6452C64
:1027B00047D2002C19D0252C43D03BE0672C02D8FF
:1027C000652C12D33DE06F2C19D0782C26D06E2CBE
:1027D00030D10AE0301C0CF01BF9119A1AA90870CC
:1027E0000192009712A801228DE0119B009502939F
:1027F00000230197039312A8311C0A226DE6E90613
:1028000002D580239B001D43119A0023029200955C
:102810000197039312A8311C08225EE61199002249
:10282000231C02910392173B0095019712A8311CBB
:10283000102253E6301C1CF082FD4049031C3B482B
:102840006BE0301CFEF76AFD002838D0002C1FD04A
:102850006E2C1DD0472C15D8452C1AD2252C27D1EB
:10286000301C0CF039F9364912F068FD119A8023BA
:102870000192149A5B00011C02922B43009712A84C
:10288000662212E0231C653BDBB2022B10D800E06D
:102890006724301C0CF020F9119A149B011C019242
:1028A0000293009712A8221C2B1C1CF0D5FE17E6E1
:1028B000301C1CF044FD2349031C1C482DE0069BE2
:1028C0003D2B02D119482049C2E5002C02D0732CBF
:1028D00006D01CE012A8311C221C0BF0C7FFFFE53C
:1028E0001AA9301CFFF7C6FA149B011C1A9A002B78
:1028F00000DA1492149B9A4200D91A93119A009705
:1029000001921A9A12A82B1C0DF0DAFDE8E5301C92
:102910001CF015FD0D49031C0448221C04F0CAFBE1
:1029200098E5732575E6C04604730200E82D0200A1
:10293000147302002D730200597302008C7302009D
:102940000000C842BD730200F17302002674020049
:10295000F0B5071C87B008680D1C0BF05DFF0090F8
:10296000012F07D96C68022F05D0A8680CF050F829
:10297000071C02E0444C01277F420020011C1AF092
:102980001FFD04A901902868FEF7E0FD049A3E4B64
:10299000051C86189C4238D1B54229D2287809F006
:1029A0008DFF002824D00135F6E7002F23D02C1C02
:1029B000207809F083FF002802D10134B442F7D116
:1029C000291C621B009818F0E2F8011C019805F020
:1029D00075FEB44254D2207809F070FF002802D06E
:1029E0000134B442F7D1FB17DB1BDB0FFF1A251CA8
:1029F000B542DAD344E0291C721B009818F0C7F8DE
:102A0000011C019805F05AFE3AE0201C0BF004FF6F
:102A1000009A0290904202D0201CFEF799FC201CE4
:102A200005A9FFF727FA059B0390002B22D1174930
:102A300017481AF0FFFA0EF0D2FB201C03991EF083
:102A40002DFE002805D00134009AA3189E42F4D22E
:102A5000341C291C621B029818F099F8011C01987B
:102A600005F02CFEB4420BD2059BE518FB17DB1BCF
:102A7000DB0FFF1A002FEBD0059A2C1C0092E3E726
:102A8000019807B0F0BDC046A84E02007A7002005F
:102A9000E82D0200F0B50C1C8BB0022802D8FFF71D
:102AA00057FF7AE008680BF0B7FE08A90590206888
:102AB0006568FEF74BFD0090A0680BF0A9FF411C74
:102AC0000691041C081C00211AF07AFC344B061CE9
:102AD0009D4202D1334809F07DFE281C09A9FFF769
:102AE000C9F9099A0790002A05D12F492F481AF0F1
:102AF000A1FA0EF074FB009B0899A2005B180293E8
:102B00000392271C099B0193002C0DD00299CD1A2A
:102B1000009A954208D3281C0799019A1EF0BEFD21
:102B2000002821D0013DF3E7F368BC0002991D198C
:102B3000009B0598CA1A191C18F029F82860002F64
:102B400010D00699F068CD1BAF0001193A1C1EF099
:102B5000BDFD7368F1685A1BC819920000211EF070
:102B6000CEFDB560301C18E0039BF2680598D218C2
:102B70000492029B019A013FA9185A1B019BD21A89
:102B800018F005F8E317039A1B1B0499DB0F043AAE
:102B90000860E41A03920295B4E70BB0F0BDC0469A
:102BA000A84E0200587402007A700200E82D02005C
:102BB00010B5041C08201BF057FE024B4460036054
:102BC00010BDC04680210200F8B503780021041C26
:102BD0008B4200D199E0402B01D1012026E04C49E5
:102BE00018F0C6F90028F8D1201C4A4918F0C0F99D
:102BF0000028F2D1201C484918F0BAF90028ECD17D
:102C0000201C464918F0B4F90028E6D1201C44499C
:102C100018F0AEF90028E0D1201C424918F0A8F9BC
:102C20000028DAD1201C404918F0A2F900231D1C0D
:102C30001E1C1F1C2278002A51D0272A10D1002BDD
:102C400001D0032B08D16278272A05D1A278272A40
:102C500002D10234032216E00122012B3DD812E0FA
:102C6000222A12D10422191C914309D16178222908
:102C700004D1A178222901D1023404E0002B01D033
:102C8000022B2AD10222D31A27E05C2A09D16178CB
:102C9000272901D0222904D11A1C511E8A41A418C7
:102CA0001BE0002B19D15B2A12D006D8282A0DD0A0
:102CB000293A51424A41BF1A0FE07B2A0AD07D2AA5
:102CC0000AD05D3A51424A41B61A06E0013704E0A3
:102CD000013602E0013500E0013D0134AAE701219F
:102CE000002F12DC002E10DC002D0EDC033B8B428B
:102CF0000BD9013C23785C2B07D00840111C00281D
:102D000003D00A3B591E8B41D9B2081CF8BDC046FE
:102D1000E09D02006E740200747402007874020078
:102D2000F5910200CCBA02006C850200F0B54118A2
:102D30008BB0051C0592079302910C1C0494013C76
:102D4000A5420FD8207809F0C5FD0028F6D12078DB
:102D500009F0CCFD0028F1D123785F2BEED02E2B8B
:102D6000ECD000E004957A4B1E68049C02988442E3
:102D70000AD3049A029BA21A03929C4209D300240C
:102D8000271C251C029451E023782E2BF1D001340E
:102D9000ECE70025B26895421ED2F268EF00D059E8
:102DA000002803D0031F5A1E934100E0031CDA07DA
:102DB00014D509A9FFF75EF8039B011C099883420B
:102DC0000CD104981A1C1EF097FD002806D1F36858
:102DD000DF197868002803D10020B6E00135D9E773
:102DE00083070AD103685B4A934203D11AF08AF839
:102DF000061C0DE0584A934201D00BF00DFD866B86
:102E0000002EE9D0B007E7D1544B32689A42E3D1A3
:102E100001340494A9E7F268E3009858002809D027
:102E2000031F5A1E9341DA0706D40134B068844266
:102E3000F1D328E0031CF6E709A9FFF71BF8099B6B
:102E40000190039806939842EFD804980199039A49
:102E50001EF052FD0028E8D1002D0CD0039BBB4290
:102E60000DD8069A93420AD80198E95CC25C914257
:102E700004D10133F3E7069F019D00E01F1C029B74
:102E800001330293D1E7029A002AA5D0012A06D085
:102E9000039B9F4203D800200290402413E0039A32
:102EA0000798AB180360B81A4FE0029AD300F26893
:102EB000985800280CD0031F5A1E9341DA0709D4F2
:102EC000029A01320292029BB0688342EDD336E04F
:102ED000031CF3E709A9FEF7CDFF099F039B0190AF
:102EE000BB42EDD8049801991A1C1EF005FD00287C
:102EF000E6D1231C0F33DD172D0FED182D112D01F9
:102F00002D1B012D00DC10356319DF19402F0FD860
:102F100000270598AF4204DA11491CF021FB013764
:102F2000F7E701991CF01CFB099824186419C7E7FE
:102F300005980C49019A1CF0DDFB099CC0E7059837
:102F400009491CF00DFB012040420BB0F0BDC0460A
:102F5000A02E0020342C020030470200085202004C
:102F6000068202007C7402009FB50200F0B5051CC9
:102F700047690C1C0068C96889B0009343182B602E
:102F80002B1C1433AB603B1C03339B00EB180397E3
:102F9000281CBF00161CEB603A1C0021183001975A
:102FA0001EF0ADFB0E9FB300FB18227A039F059322
:102FB000637AB91ACB1A05339B000293EF18E37AB0
:102FC00096420CD9980730D50E9BB01A92009918EA
:102FD0000AF07EFF0299043F4851267A2BE09A07B7
:102FE00003D5834B0298043F43510099002922D115
:102FF000E37ADA071FD4217AA37ACA1A964214D345
:103000005B1A9B00E3180293019BEB180493331C9B
:103010008B4210D204989A00801A84460298013399
:103020008218126960464261F2E77249331C7248A5
:1030300004F040F8BEE00199002349198C46B342E0
:1030400007D00E999A00885861468A1A5061013358
:10305000F5E7009AE37A002A02D1D80700D4A2E06B
:103060000026590704D500981BF0C4FF061C3860E1
:103070002A6807A8079217F098FF2B68059F181871
:10308000049000200437019001980099227A884228
:103090002DD03B1F1968637AD218944600236345EC
:1030A00016D0049A9800105881420FD1039A013A21
:1030B000D31A9B00EB189869002804D049020A0B28
:1030C0004D484E496CE0396899610BE00133E6E701
:1030D000E37A5A0702D44848494969E0301C3A6803
:1030E0001BF0C0FF019B083701330193CCE7039F1E
:1030F000A07ABA1A06329200C61CAA18B600A619FF
:10310000111C0023984209D00F68002F03D19F00A3
:103110007F42F7590F6004310133F3E78000121842
:103120000398063080002818824209D20432131F07
:103130001B68002BF4D1821A92102F4831492FE0DE
:10314000002614E0A17AF318043189000859990087
:10315000049B0430C95802F077F9002817D0237A6D
:103160004068FF1ABF1B0637BF0078510136637AEB
:103170009E4227D2039F237A013FFA1A921B0632FE
:1031800092005259002AF1D1E17AC807DAD4237AA1
:10319000049FF618B600F259174852021A49120B4A
:1031A00003F088FF06E0627A002A05D0124817492A
:1031B00019F040FF0EF013F8580703D500981BF0E4
:1031C00019FF3860E468696864180134631E1B786D
:1031D000FF2B09D0039E013EF61AB600AE19B06966
:1031E000FFF7E6FCB061F0E76C6009B0F0BDC046E7
:1031F0007C5C020080740200D8320200B9740200C4
:10320000E874020011750200437502007375020034
:1032100008B50B1C4179C26A012904D1101C191C84
:1032200019F054FC03E0006B014919F089FC08BD5A
:10323000E865020008B50B1C4179C26A012904D176
:10324000101C191C19F062FC03E0006B014919F015
:1032500077FC08BDD865020008B50B1C4179C26A2D
:10326000012904D1101C191C19F050FC03E0006B5B
:10327000014919F065FC08BDF865020008B53F2258
:10328000014B17F039FF08BDBFBA010008B5912204
:10329000014B17F031FF08BDB1430000F0B587B016
:1032A000041C081C05A9161C19F061FA6279051C9A
:1032B000012A05D10096201C05992B1C17F09FFEB2
:1032C000281C19F076FAE28A0025011CE779A68A03
:1032D0000392201C134BE571A582E5820C2217F0A6
:1032E0000BFFA368281CAB421AD1E18AA94208D07F
:1032F000A38AAB4205D1206B1CF090FD206B1CF023
:103300001DFC059A201C9300A26A9D58A38AE28A9C
:10331000291C17F08EFEE771039B2869A682E382C1
:1033200007B0F0BDE13F000038B58368041C0D1CF8
:10333000002B09D1111C054819F07CFEA060201C4F
:103340000C30291C17F0FDFE38BDC046503302007A
:10335000F0B50123041C4271E16203610B788BB06C
:103360000D1C0092012B02D00021844A88E00099B4
:10337000012906D9836B2A1C1E68231C406B083365
:10338000B047A868029019F014FA63790290032BF1
:103390000FD107900C2107A819F024FAA36B021C87
:1033A0009B68606B07999847A2686883002A00D0E1
:1033B000DDE0029819F0FDF9029019F0FAF95A21AE
:1033C000029002A819F00EFA029D01904CE0281C10
:1033D00003A919F0F8F90378061C912B4DD119F0C7
:1033E000E8F9039B984248D1301C03A919F0EBF986
:1033F0000378071C0A3B0F2B3FD819F0DAF9039921
:10340000061E8E4239D00378A02B36D119F0D1F99F
:10341000039A904231D104A9381C17F0DEFD301C0C
:1034200019F0CCF99B21059005A819F0DBF9011CD6
:10343000059819F0B2F9049B061C2D2B36D10128F2
:1034400021D1059803780A3B0F2B1CD82669731CE1
:103450002361009B012B1AD8A168002900D086E0C7
:10346000281C19F0A6F9051C019A954275D0029501
:103470002B78432BF4D0392BA9D00299404A201C39
:10348000FFF752FF78E0201C02993E4AF8E707A9AF
:1034900017F0A3FDA36B606BDB68311C079A98479C
:1034A0000028D9D1201C0299374AE9E72E2B15D1E3
:1034B000012803D105980378032B03D0201C02991F
:1034C000324ADDE700990129C6D9A36B666B1F69F3
:1034D00019F05DF9011C301CB847BDE72F2B27D12F
:1034E000012803DD05980378032B03D0201C0299E3
:1034F000274AC5E7009A012AAED906A919F037F97B
:1035000001270590B742A7D005980378032B03D075
:10351000201C02991F4AB3E707A919F028F9A36BE9
:1035200005905B69606B0699079A98470137E9E750
:10353000009B012B90D903289FDC0598079019F078
:1035400038F9089019F035F9A36B09909F69606B01
:103550000499321C07ABB8477EE76379012B03D986
:10356000A36B606B5B689847A368002B04D0201C9A
:103570000C30029917F0E5FD0BB0F0BDA575020007
:10358000C9750200EC750200087602001876020088
:10359000347602005976020008B5024AFFF7C4FEED
:1035A00008BDC0467B76020030B50B78041C85B0A0
:1035B0000D1C481C002B78D0032B09D1081C03A933
:1035C00019F0D5F80399051C206B1CF058FA49E056
:1035D000012B07D14978052902D0206B0DF09CFD05
:1035E000A81C62E0042B07D189786B780902206B54
:1035F00019431CF08BFA16E0052B18D16379042BC4
:1036000002D0206B2A490CE088784B7800021843DE
:1036100003A91BF071FD0399246BFDF76FFF011CDB
:10362000201C1CF07FFA281C19F0C3F83DE01A1C7E
:103630000A3A081C0F2A08D803A917F0CEFC0399F0
:10364000051C201CFFF7E4FD0CE0082B0CD103A99E
:1036500019F083F80399236A8A00051CD158206B5E
:103660001CF060FA281C20E002AA03AB01A919F0A3
:10367000D1F80299051C206B0DF004FD019B201C64
:103680009A000C4B291CD358002B03D10A4AFFF790
:103690004BFE09E0039A9847A168002904D0E2682C
:1036A000002A01D1029BE360039805B030BDC046FB
:1036B000A84E0200F021020098760200F0B587B013
:1036C0000593151C0A1C531E9A410291061C05996C
:1036D000281C049219F061F8049B0390029C002BB3
:1036E00009D023780024842B05D1211C306B039A48
:1036F0001CF0F8FB029C039A2F1C013A0192059AD8
:1037000097421DD03B78842B12D1002C0AD104990A
:10371000039B019A0139C918891A306B1CF0E2FB2E
:103720003C1C05E0301C391C1E4AFFF7FDFD36E04D
:10373000381C19F03EF8019B071C013B0193DEE7A2
:10374000002C05D1039B049A306B99181CF0BEFB2A
:10375000049B002B1CD0029AA24205D1201C19F018
:103760002DF8011C301C01E00299301C002200F0F1
:103770001BF80DE0A5420FD1281C19F01FF8011C01
:10378000301C002200F010F8281C19F012F8051C5B
:10379000059B9D42EED102E0301C291CF1E707B0E9
:1037A000F0BDC046B0760200F0B5041C85B00D1C1B
:1037B000161C2B781A1C0A3A0F2A0FD803A9281CAA
:1037C00017F00BFC0399201C002E01D0022E02D111
:1037D000FFF730FDDFE0FFF71BFDDCE0192B03D81E
:1037E000201C291C6D4AD4E01A3B7C2B7CD004D8C9
:1037F000252B75D0772B06D0C8E07E2B00D186E034
:10380000912B6DD0C2E0281C02A918F0DCFF071C28
:10381000022E03D0201C391CFFF7C6FE381C18F0FE
:10382000C8FF0299071C17F0D0FB002800D0ADE0BC
:103830003B78922B14D1381C03A918F0C4FF071C45
:10384000381C18F0B6FF039A0190904208D2022E5D
:1038500001D1019FF4E7201C391CFFF7A5FEF8E712
:103860003B78A12B19D1022E04D1206B1CF0EBF96F
:10387000206B0FE0381C18F0A1FF011C201CFFF783
:1038800093FE206B012E05D11CF0B1F9206B1CF0CA
:1038900081F91CE01CF096F919E0A22B76D1381CB6
:1038A00018F08CFF03A917F098FB206B012E06D1AE
:1038B0001CF093F9206B03991CF04AF907E0022EE3
:1038C00001D11CF0A9F9206B03991CF06EF9381C8A
:1038D00018F06FFF029917F078FB00285BD155E0D4
:1038E000281C002E4ED13AE003A9281C18F06BFFCB
:1038F0000399071C17F069FB002847D13B789A2BE6
:1039000003D1002E3ED13D1C18E03D1C51E7002E96
:1039100038D1281C03A918F056FF0399051C17F08D
:1039200054FB002802D0201C311C04E02B789A2B79
:1039300004D0201C291C321C331C20E003A9281CA5
:1039400018F041FF061C18F034FF03789D2B04D1BA
:103950000022201C311C131C11E09E2B07D103A94F
:1039600018F031FF311C021C039B201C07E0BD2B0B
:103970000CD018F01EFF0021031C321C201CFFF786
:103980009DFE08E0201C291C054A02E0054A201C77
:10399000291CFFF7C9FC05B0F0BDC046CA7602007D
:1039A000FD760200E2760200F0B50B7891B00A3B9A
:1039B000041C019104920F2B00D9DCE0081C18F0C4
:1039C000F8FE0378912B00D0D5E0019818F0F1FEB5
:1039D0000DA918F0F8FE037842780A3B1B02134346
:1039E000892B00D0C7E018F0E4FE0378051CA02B5B
:1039F00000D0C0E018F022FF002800D0BBE0281C57
:103A000018F0D7FE0D9A904200D0B4E0281C18F0B0
:103A1000D5FE9B210E900EA818F0E4FE0E9B061C0E
:103A20000293029801230F9318F0C3FE071C0E9017
:103A3000B04210D018F0BDFE0E90B0420ED0037808
:103A4000032B00D097E00FA918F091FE0E90B04222
:103A500000D090E002E0714A029F02920D9B181C78
:103A6000059318F0A6FE049A051C831A5A1E93416A
:103A70005B421D400F9B26690693638B228B0A9342
:103A8000731C63830793A38B0992E28BE383331D3B
:103A9000268323613B780B92B21C0392033BF21CFA
:103AA00008925A1E9341DBB20493002B03D0201CD2
:103AB000391CFFF779FD0299201CFFF775FD206B7B
:103AC00008991CF0D5F80399206B1BF0A4FF206B1C
:103AD0001CF083F80022201C0199FFF765FE059970
:103AE000201CFFF761FD206B07991BF094FF206BF2
:103AF00006991BF0C4FF206B12211CF06CF9206B9F
:103B000008991BF088FF049B206B002B05D01CF04C
:103B10006EF8206B1CF080F805E01CF05EF8201CAD
:103B2000391CFFF741FD069A206B002A01DB1921A1
:103B300000E01A211CF04FF9039A206B01211CF0C0
:103B4000A3F8099B0A9A23830B9B6283E383002DCE
:103B500003D0201C291CFFF727FD206B311C1BF014
:103B60005AFF206B1CF04DF8049A002A53D0206BAA
:103B70001CF047F84FE0238B25690593E38B628B9C
:103B80000793A38B6E1CE383254B06922B43238361
:103B9000EB1CAA1C236166830198029218F009FEAF
:103BA000011C201CFFF700FD071C206B1CF0C8F84F
:103BB000206B311C1BF02FFF206B02991CF0CAF800
:103BC000201C01990022FFF7EFFD391C201CFFF794
:103BD000EBFC071C206B1BF015FF002803D1206BAA
:103BE000311C1CF045F8206B02991BF014FF206B70
:103BF0001CF0BCF8059B069A23836283079B049AFA
:103C0000E383974203D0201C391CFFF7CDFC206BC7
:103C1000291C1BF000FF11B0F0BDC046D87A02008D
:103C20000080FFFFF0B5041C85B0081C171C0D1C9C
:103C300018F0BFFD391C061C17F0C7F901900028C9
:103C40001CD02379201C002B11D0E36A1E78002E93
:103C50000DD11221FFF7DCFA291C201CFFF7A4FC70
:103C6000206B0121321C331C1CF07DF902E0291C61
:103C7000FFF79AFC206B1BF0C4FF58E033783B2B16
:103C80001BD1291C201C0122FFF78EFD301C18F0CF
:103C900095FD4378811C4E3BDBB218260A2B01D8D8
:103CA000244AD65C201CFFF77FFC206B311C1CF0E3
:103CB00092F8201C291C022237E03C2B2ED1301C0C
:103CC00003A918F080FD061C071C039B9F4205D02A
:103CD000381C18F06EFD0197071CF6E70199201CAF
:103CE000FFF762FC206B1BF078FF201C291C0022D0
:103CF000FFF75AFD019B9E4219D0301C18F059FD68
:103D0000019B051E9D4202D0206B1BF066FF311CFB
:103D1000201C0022FFF748FD2E1CEBE7311C201C65
:103D2000FFF742FC019A201C291CFFF73DFD05B05E
:103D3000F0BDC0469A750200F0B589B0041C0D1C98
:103D4000059104921F1C002924D18379002B27D0D0
:103D5000C16A02950B78012B23D10521FFF758FA90
:103D6000E36AD88C854211DA996AEA008A18567893
:103D700001210E4208D05288206B1BF0C4FD0022A6
:103D8000206B0221131C9AE00135EBE7201C002177
:103D90004D4A22E005A89B2118F024FD029000E086
:103DA00002930022059D00920392161C019208E0E6
:103DB000281C1E4318F002FD0390281C18F0F9FC83
:103DC000051C029A954256D02B78B72B08D10123B7
:103DD0001E42EDD03D4A201C291CFFF7A5FA70E0D9
:103DE000B82B0CD102231E4203D0201C291C384AB8
:103DF000F3E7281C1E4318F0E1FC0090DDE7B92B27
:103E00002CD1281C18F0DAFC051C18F0D2FC037821
:103E1000BD2B09D1201C291C062217F0CFF9281C24
:103E2000013718F0C6FCC9E72B780A3B0F2B03D9E2
:103E3000201C291C274AD0E7281C07A917F0CDF819
:103E40000799051C206B1BF061FE291C201CFFF745
:103E5000ABFB019B051C01330193B2E70199201CC8
:103E6000002902D0291C1C4AB7E7291CFFF79CFB3C
:103E70000137051CA5E7002E15D0039B002B03D1AD
:103E8000206B1BF05BFE03E0201C0399FFF78CFB0B
:103E90000099002903D1206B1BF050FE03E0201C89
:103EA0000099FFF781FB049A206B391C002A04D08B
:103EB000019A331C1CF061F803E0019A331C1CF0DA
:103EC00052F809B0F0BDC0462977020047770200DA
:103ED0005E7702007677020097770200F0B589B02E
:103EE000041C039103A8072118F07CFCE26A0290ED
:103EF0000023567E01930398029B98424BD005A95C
:103F000018F061FC4021039003A818F06BFC06A98F
:103F1000051C039817F061F8069A071C292A18D186
:103F2000A8420CD218F045FCA84208D1381C07A9B9
:103F300017F053F8079B2A2B07D02C2B07D0201CF7
:103F40000021264AFFF7F0F922E0012620E00426AE
:103F50001EE0019B201C013303990193FFF724FB12
:103F600003900398A84208D007A917F036F80799DC
:103F70000390206B1BF0ECFDF3E7281C059917F06C
:103F800024F8002804D1A071291C201CFFF70CFB89
:103F9000059A0392AFE7181C18F010FC029A0390E0
:103FA0001378011C321C201C242B04D1FFF776F956
:103FB000061C019D02E017F02DFBF9E7002D07DD3F
:103FC0000022206B0121131C1BF0CDFF013DF5E702
:103FD000201C311CFFF72EF909B0F0BDB9770200A3
:103FE000F7B50B78041C0E1C292B02D10123C371D9
:103FF00057E02A2B55D00A3B0F1C0F2B13D9081C56
:1040000001A918F0E0FB071C18F0D3FB019A9042BD
:1040100009D018F0CEFB019A051C831A5A1E934151
:104020005B421D4000E00025381C01A916F0D5FFB9
:10403000E379002D02D02A78002A0AD1002B30D152
:10404000E38A002B2DD0201C311C164AFFF76CF997
:1040500027E0002B1ED0A38A01339BB2A382012B41
:104060000CD1E18A206B002902D01BF0D7FE01E0C1
:104070001BF064FD206B00211BF0F7FE291C201CA7
:10408000FFF792FA206B01991BF040FD206B1BF0AB
:10409000F8FE06E0E38A201C0133E382291CFFF7C7
:1040A00083FAF7BDD7770200F0B5056987B00393AF
:1040B0006B1C0293AB1C041C03610E1C006B291CBF
:1040C000171C1BF01AFE201C16F08FFF311C201C41
:1040D000FFF76AFA206B1BF04FFE206B02991BF072
:1040E000C7FD206B291C1BF096FC206B1BF08AFF80
:1040F0002669731C2361039B9F4200D191E0381C09
:1041000018F05CFB002305932369051C0193013320
:1041100023610378002B0FD118F04BFB18F049FBFB
:10412000039B984223D0201C291C4B4AFFF7FCF824
:10413000A38B013BA3838CE0071C6A2B07D118F0EB
:104140003DFB071C18F035FB05A916F046FF206B58
:104150001BF043FD391C201CFFF726FA206B2121A0
:104160001BF039FE206B0021019A1BF08DFD281CED
:1041700018F01FFB071C206B1BF043FD059900295D
:1041800003D1206B1BF03DFD02E0201CFFF752F82D
:10419000206B1BF036FD059B0025AB4209D025693D
:1041A000206B6B1C2361291C1BF0B3FD201C16F037
:1041B0001CFF391C201CFFF7F7F9059B071C002B7F
:1041C00002D0206B1BF0D8FD206B1BF0DFFD059BA0
:1041D000002B19D0206B0F210CF09EFF206B291CA7
:1041E0001BF019FC206B0F210CF096FF201C059989
:1041F000FFF720F8201C0599FFF72EF8A38B206B02
:10420000013BA3831BF091FD206B311C1BF030FDA3
:10421000206B01991BF0FFFB206B03211BF0F7FBC8
:1042200069E7A38B206B013BA3831BF07EFD206B12
:104230001BF0ECFE206B02991BF0EDFB0C9B002B9E
:1042400003D0201C191CFFF7AFF9206B311C1BF0A9
:10425000E2FB07B0F0BDC04605780200F0B585B0BE
:1042600001914379041C012B3FD1C26A0D1C1378C4
:10427000002B03D11E4AFFF757F836E001A843216F
:1042800018F0B0FA00900198009B98422DD003A935
:1042900016F0A3FE039E6A4601900B32E06A311CC1
:1042A00016F009FE6A46D37A071C002B06D1037864
:1042B000042B03D0201C291C0E4A0CE0E06A311CA0
:1042C00016F027FE002803D00378023B022B05D905
:1042D000094A201C291CFFF727F8D4E704233B7068
:1042E000E06A311C16F026FECDE705B0F0BDC046F1
:1042F00024780200497802006A780200F0B585B09F
:1043000001914379041C012B2AD1009101A843217A
:1043100018F068FA071C0198B84221D003A916F0DA
:104320005CFE6D46039E0B350190311CE06A2A1C31
:1043300016F0C1FD2B78002B08D10378012B05D096
:10434000201C0099074AFEF7EFFFE4E701250570FE
:10435000E06A311C16F0D4FD0028DCD00570DAE7E5
:1043600005B0F0BD8878020010B5438B041C002B0B
:1043700002D1054AFEF7D8FFA28BE38B206B618B3D
:10438000D21A0CF0E5FE10BDA778020010B5038B21
:10439000041C002B02D1054AFEF7C6FFA28BE38B5B
:1043A000206B218BD21A0CF0D3FE10BDBF78020017
:1043B000F7B50B78041C1A1C0A3A0D1C0F2A08D8F2
:1043C000081C01A916F009FE201C0199FEF744FF04
:1043D00077E0912B3FD1081C694618F0F4F9011CD5
:1043E000201CFFF7E1F80378061C922B10D101A9DD
:1043F00018F0E9F9061C301C18F0DBF9019B071EC8
:104400009F4205D0311C201CFFF7CEF83E1CF2E77E
:104410003378A12B0BD1301C18F0D0F9011C201CD3
:10442000FFF7C2F8061C206B1BF017FC0CE0A22B58
:1044300042D1301C18F0C2F901A916F0CEFD019945
:10444000061C206B1BF0F2FB301C009916F0BDFD22
:10445000002831D035E0962B2ED1081C18F0AEF98B
:104460000378051C9A2B22D118F0A8F9061C311CE0
:10447000201CFFF79DFF301C18F09BF90378011CEE
:104480009D2B1ED09E2B0ED101A918F09CF9019BEB
:10449000051E9D4215D0201C291CFFF789FF281CF2
:1044A00018F087F9F3E7201CBD2B05D001E0201C94
:1044B000291CFFF77DFF04E0201C291C014AFEF7A0
:1044C00033FFF7BDD4780200F7B50C1C0021019131
:1044D0002178051C081C0A380F2801D8201C05E08B
:1044E0001A32914212D1201C18F068F901A916F075
:1044F00074FDEA79EB6A002A04D15A8B01325A839F
:10450000012633E09A8B01329A83F9E71A339942F4
:1045100020D10127EF71201C18F090F90326002804
:1045200024D1201C18F04AF90278EB6A0A3A0F2AC3
:1045300004D81A7E201C17431F7605E01A7E201C23
:1045400017431F7618F03AF918F038F901A916F058
:1045500044FD0BE0201C18F031F901A916F03DFDD7
:10456000EB6A02211A7E05260A431A760199002970
:1045700011D06F460337E86A3A1C16F09CFC3B7872
:10458000002B05D1281C211C034AFEF7CDFE02E0BA
:10459000022303704670F7BDEC78020038B50D1C9D
:1045A000C16A041C0B78012B04D000210B4AFEF7D2
:1045B000BBFE11E0281C111C16F007FD002804D0DA
:1045C000206B0F210CF0A8FD03E0201C291CFEF736
:1045D000EBFF206B1BF0DCFC38BDC0460579020008
:1045E00038B50D1CC16A041C0B78013B012B04D9A2
:1045F0000021164AFEF798FE26E0281C111C16F032
:10460000E4FC002804D0206B0F210CF085FD18E09D
:104610002B78C12B11D1281C18F0D0F8011C201CBC
:10462000FEF7C2FF206B1BF08BFB206B0F210CF001
:1046300073FD206B1BF0D6FC06E0201C291CFEF746
:10464000B3FF206B1BF0BFFC38BDC0461F790200D2
:10465000F7B5041C0D1C081C111C16F0B6FC002834
:1046600004D0206B00211BF000FC50E02B78AF2B16
:104670000BD1206B01211BF0F8FB201C291CFEF73D
:1046800093FF206B1BF0FDFB41E0AE2B3FD1281CBC
:1046900018F094F8051C18F08CF800900378B12BF2
:1046A00030D101A918F08FF8019B0090984203D0F7
:1046B0006846982118F096F801990098266B18F032
:1046C0006CF8411C301C1BF0D0FB291C201CFEF791
:1046D0006BFF206B1BF0D5FB009E019B9E4216D00A
:1046E000311C201C3778FEF75FFF061CAF2F05D06A
:1046F000201C291C064AFEF717FE08E0206B1BF061
:10470000C0FBEAE7201C291C042216F057FDF7BD68
:1047100038790200F0B50123041C0D1C427187B0EA
:10472000E1620361111C006B2A1C0CF0F7FB63793A
:10473000012B02D100232B846B84AE6833781E2BAF
:1047400007D1301C18F03AF8011C201CFEF72CFF92
:10475000DBE02B78002B04D1201C311CFEF724FF5A
:1047600099E0012B1ED1301C18F023F86379051C49
:10477000012B07D10023E371201C291C0C22674B5D
:1047800016F0BAFC281C18F014F818F012F8011CE6
:10479000201CFEF709FF206B1BF034F9002800D025
:1047A000B6E078E0022B19D16379012B07D1002301
:1047B000E371201C311C1422594B16F09DFC301C57
:1047C00017F0F7FF011C201CFEF7EEFE2B7E5A07A8
:1047D00000D49AE0206B1BF014FA5CE0033B032B3F
:1047E0005BD8301C17F0E5FF05A917F0ECFF17F0B8
:1047F000E0FF67790390012F08D16A46E06A391C0F
:10480000133216F058FB022303706F832B78032BAF
:1048100004D1206B00211BF00EFB05E0042B03D11B
:10482000206B00211BF021FB2769201C7B1C0293BD
:10483000BB1C23610121FEF7EBFC206B02991BF0EE
:10484000EAF8206B391C1BF085FA03990022201C22
:10485000FEF7AAFF039817F0ACFF17F0AAFF059A1E
:10486000011C831A5A1E93415B4219400023321CDB
:104870000093201C029B17F0ECF9206B02991BF0AF
:10488000F7F9206B391C1BF0C6F8206B1BF06EFA91
:104890002B78062B39D1206B2FE06379012B06D1C1
:1048A000281C052105AA16F006FB0223037005A9A2
:1048B000A86816F092FB201C0D21FEF7A9FC201C15
:1048C0000C21FEF7B7FC206B29691BF01FF91021A2
:1048D000201CFEF7AFFCA86817F06BFF17F069FF0C
:1048E000011C201CFEF760FE281C052116F0D3FADF
:1048F0000278031C206B022A03D10F210CF00CFC60
:1049000003E05A8805211AF0FEFF206B1BF040FBE4
:10491000206B0CF079FB07B0F0BDC04639B8010040
:104920002DB80100F0B59BB00BAC071C151C06910F
:104930003C220021201C1E1C1CF0E1FE0698796818
:104940000B9038682162267117F033FF17F01FFFB4
:104950006062800019F09AFF0021A0620095201C7F
:104960000A1C3B6816F04BFB1BF036F8002509903B
:10497000206306950026331C606A864203D3002B11
:10498000F8D105932DE0A1680029F8D1A06AB20002
:104990001558002D16D06969002913D11AF0B2F903
:1049A0006B7E6861291C201C0122042B02D1FEF7BA
:1049B000CFFC01E0FFF7AEFE2369069D9D4200D2C9
:1049C000069301230136D7E70D98002800D0B4E004
:1049D000059C159BA200D358002B07D1059E0136DC
:1049E0000596059814998842EED3A6E01A7ED5075D
:1049F00027D5DC8C021CA04223D08F4E9D6AA119C2
:104A0000091AC90069184D78AE0713D5002A18D0C5
:104A10001078547855880890049403950E1C5068BB
:104A200030CE30C2089E049A039C0E704A704C80AF
:104A3000486006E0002A02D1012D00D10A1C013095
:104A4000D9E70021D983DD8CAC46A9421CDA9D6AE6
:104A50001878CA00AA18072802D15668052E11D066
:104A60000138052804D81078002801D101201070E1
:104A70001078022802D05078C40703D5D88B441C84
:104A8000DC8350800131DEE7002262450EDA9E6A47
:104A9000D10071180878032806D14878C40703D4D8
:104AA000D88B48800130D8830132EEE75C68002C57
:104AB00094D0E58C002107950A1C079DA94220DAB5
:104AC000A06ACE008619307800250338012816D850
:104AD00004950498604512DA049DE8009D6A281840
:104AE00003900078042807D10398756840688542D0
:104AF00002D1039842800132049D0135E8E701317B
:104B0000DBE7002A00D169E7002161450DDA9E6AE2
:104B1000C80030180478042C02D14478E50702D587
:104B20004488141944800131EFE7598B92B251182F
:104B30005983D98B5218DA8350E7099806991AF0ED
:104B400050FF0026351C149B9E420FD30D9C002C59
:104B500049D0169B0EA8996816F0F3FA169B0D988B
:104B60001B690B990E9A02F013FB3CE00D9800288C
:104B7000ECD1159AB3009C58002C32D0637E042BE4
:104B800018D1002D03D1069818F0CDFA051C00238A
:104B900017932A4B0BA8211C032219931895FEF793
:104BA000D7FB0D9B002B1CD10BA8211C0422FEF768
:104BB000CFFB16E00998211C179002220BA8FFF7E3
:104BC000A9FD0D99002904D10BA8211C0322FFF790
:104BD000A1FD0D9A002A04D10BA8211C0422FFF785
:104BE00099FD0136AFE709981AF003FF002D02D0B6
:104BF000281C18F0A9FA381C17F02AFE159B00246F
:104C00001B685D69149915988C4207D2A2008058E0
:104C1000002801D016F036F90134F3E719F05AFEF6
:104C20000D9A002A02D0101C0CF0D9FA281C111C75
:104C30001AF073F81BB0F0BDFFFFFF1F50340200E5
:104C400008B540681BF0D7FD002801D0014800E0FE
:104C5000014808BD504D0200944D020008B540685F
:104C60000DF01CFE004808BDA84E020008B54068C3
:104C70001BF0C5FD002801D0014800E0014808BD37
:104C8000504D0200944D020008B540681BF0BBFD7A
:104C9000004808BDA84E0200F8B5094D2B78002B3E
:104CA0000CD1084C2778FFB2002F07D100680126ED
:104CB000036826705B68984727702E70F8BDC04661
:104CC0002A2E00202B2E00203E2803D0402809D079
:104CD0003C280ED14239C9B22F290AD8084B585C5A
:104CE000012308E0712904D8064B585C064B5B563B
:104CF00001E001230020002A00D013607047C04665
:104D00003F7A02005B790200CD790200F0B587B0EE
:104D1000151C03AA071C0E1C01931C68FFF7D4FF87
:104D20000090402F05D1039B3C275A1EA4185B42DC
:104D30001C40009A3E3FA318019A1360642E09D0CC
:104D4000662E02D04F2E22D141E0281C09F0C4FE6D
:104D5000051C3CE0281C09F0BFFE12F0D7FA7D428A
:104D60007D41EDB204900591AB0006AAD318083B33
:104D70001B68291C221C042017F070FA01235D40D7
:104D8000AD0006AB5D19083D04342D681FE0AA078D
:104D90000CD1154B2A689A4208D179427941C9B29F
:104DA000281C009A231C18F03BF81BE0281C09F073
:104DB0002FFE009B051C042B09D95A2E07D9002869
:104DC00005DA1A1C201D043AFF211CF098FC0098FB
:104DD000042800D9042079427941C9B2221C2B1C35
:104DE00017F03CFA07B0F0BDB027020070B5061C02
:104DF0000D1C141C181C642E0CD0662E04D04F2ED3
:104E000011D19400635127E094000D1909F064FE5C
:104E1000286021E0D4000D1909F05EFE12F076FA48
:104E20002860696018E020233343712B0CD10321E3
:104E3000014009D1094B02689A4205D1E4002B19BF
:104E4000082217F0EDFF07E009F0E2FD291C031C22
:104E5000221C301C17F018FA70BDC046B0270200A3
:104E600008B502480DF058F9014808BDB8280020DF
:104E7000A84E020008B509F0CBFD07F0E9FE014895
:104E800008BDC046A84E020008B509F0C1FD011CCE
:104E900002480DF061F917F0E4FF08BDB8280020C2
:104EA00008B503480DF0E2F901234000184308BD9E
:104EB000B828002010B5031C064C02D1201C191C78
:104EC00004E0086809F0A4FD011C201C0DF0D4F9D1
:104ED000014810BDB8280020A84E020000487047C5
:104EE000A84E020010B588B001AA6946041C02F061
:104EF00087F9009A022A2AD904A8322102AA07F0C7
:104F000073FC019B13495A6802A81AF0F3FB201C9A
:104F100009F082FC104BC2689A4210D1236802A8A3
:104F20005A680E491AF0E6FBE368002B07D05A686E
:104F3000002A04D0996802A8002209F097FC04A86E
:104F400019F0F8FD07F076FE04A819F08AFD08B004
:104F500010BDC0466F7A02009D6F0000787A020093
:104F600070B5031C0A1C90B0191C0B20002305F01F
:104F700063F9051E03D1184814F07EFB29E004A84C
:104F80000CF012F9041E19D12E6801A8291C012267
:104F900000F084FC221C231C311C01A8FFF7C2FC7A
:104FA000041C032007F0C8FD201C19F09BFC012005
:104FB000404207F0C1FD0CF00DF90AE0012040422B
:104FC00007F0BAFD0548059909F074FC0598FFF74C
:104FD00089FF10B070BDC0467C7A0200E464020014
:104FE00013B51E4BE12001AAC0001A6005F0DEFADD
:104FF0001B4B1C48C1180AF03FF806F031FC07F0C3
:1050000079FD00F07DFEF8239B021988164A174CA3
:10501000914204D159881648FFF7A2FF08E0227890
:10502000012A05D11349FC2007F006FB19F084FC86
:105030002378002B0ED10BF047F90028F8D00E484A
:1050400019F0A2FE00210C220C481CF058FB19F0AC
:1050500045FC13BD0BF092F9EFE7C046682700202E
:105060005C2600000C0100204D500000C000002014
:1050700004E003007C5C0200A97A0200042F0020F7
:1050800007B50AF07DF8054B01A81968091A8908C7
:105090000AF034F80AF088F807BDC04668270020F7
:1050A000F0B585B003900526039807F0D1FD0125E2
:1050B000B54224DA0024144F211C381C2A1C08F0A5
:1050C00025FAC3B20190002B13D06A1E381C211C94
:1050D000029208F01BFA031E0BD1381C211C2A1C5B
:1050E00008F0DAF9019A381CD3B2211C029A08F0B0
:1050F000D3F90134052CDED10135EDB2D8E7013EFC
:10510000002ED1D105B0F0BD1800002008B5C82090
:10511000FFF7C6FF004808BDA84E02007FB54B68E8
:105120000E1C5C106846211C19F088FC029D0021B1
:10513000281C221C1CF0E3FA30680121014004D134
:10514000221C2B1C17F06CFE08E0042C00D9042450
:1051500043100021201C2A1C17F080F869460248E1
:10516000FCF77CF904B070BD38210200F0B50026D0
:1051700085B00D1C1F1C081C0096111C0223321C3C
:1051800001F07EFAB5424AD03C68201C012D37D18F
:105190002C4245D103232340B34203D1214A216845
:1051A00091423DD02049214A2140914206D0002B16
:1051B0000CD123689A691E4B9A4207D103A9201C7F
:1051C000FCF758FE00220399131C25E0032222401D
:1051D0000023022A05D1174B174A23409B185A1E59
:1051E0009341002B05D00323201C984301F046FB7C
:1051F00016E0201C09F00CFC0123400018430FE0CE
:1052000003A9FCF737FE051C7868039C09F000FC35
:10521000211C021C331C281C08F02EFC00E001207D
:1052200005B0F0BDB02702000700807F0600807F38
:10523000AD1E00000400807FFCFF7F80F0B58DB0C4
:10524000099214AA1278051C0B9215AA12780E1C4A
:105250000892D90706D5181C09F0DAFB041E1BDBDF
:1052600000221BE0990710D1574A196891420CD1CE
:10527000129A1399009201910B9A08990292039144
:10528000099A311C17F0A3FD9CE02A6800230999B4
:10529000137028680B6095E044422D22129B002178
:1052A000023B079205911E2B1DD8484B129A2020D5
:1052B000995C0FF079FB089BC0B20690059F002B0C
:1052C00004D0013003210FF06FFB071C1399002954
:1052D00003D0081C1CF009FB00E01398069B033365
:1052E000DF193F180597059A33689A4205D9101CB3
:1052F00019F0BAFA0599286031602A68059B069270
:10530000D618771E00233B709C4203D1023E302307
:1053100033702EE00A97201C12990FF0E9FB201C35
:105320000E1C12990FF08EFB331C041C3033092E17
:1053300002DD0B9B0A3BF31808997E1E337000298F
:1053400012D0002C15D0069A964212D90A998B1BBE
:10535000032B01D0371CDEE7089A069BBE1E327075
:105360009E4206D90A96F5E706998E4201D9002C8D
:10537000F0D1139A002A0ED0101C1CF0B6FA069B2E
:10538000301A984207D900231399CA5C002A14D016
:10539000C2540133F8E7079A002A05D0069B9E42C3
:1053A00002D90799013E31702F68059A099BBF18F1
:1053B000BF1B013F1F60301C04E00799061C002939
:1053C000EFD1F1E70DB0F0BDB0270200B77A0200CF
:1053D00038B5131C144A0D1C934201D1012203E07D
:1053E000124A934203D1032206F0C6FC1BE00728B1
:1053F00018D10F490F4A194091420FD000209A0747
:1054000011D11C680C4A944208D00C4A944205D031
:105410000B4A944202D00B4A944204D10720191C33
:105420002A1CE1E7002038BD944D0200504D0200D7
:105430000700807F0600807FA83402003821020028
:10544000F45B020048380200F0B5037887B001929F
:10545000DA07D20FD2B2041C0D1C0392002A10D01E
:105460007349744A294091420BD003222A4003D148
:1054700071492868884203D00199012901D0D1E0FF
:1054800003925A074DD5980703D50199002900D0FA
:10549000C8E02268A668D708FF00F719BE4211D2FB
:1054A0003068A84204D1019B022B00D08FE090E02D
:1054B0000399002904D1291C09F056FA0028F2D1D9
:1054C0000836EBE7019A012A00D0ABE02368606858
:1054D000D908814210D104316160A068C90019F077
:1054E000E8F92168A060CB086168CA1ADB00D20025
:1054F000C01800211CF003F923680721DE08721C84
:10550000D2000B401343A2682360F600484B961963
:1055100035601D40474B9D4259D02378012293436B
:1055200030E06368002B05D1019801287AD1201C56
:1055300000F084F8291C022006F036FA6168401059
:1055400005900FF075FA0027029104910299A26864
:10555000CE0096193068002816D1019B012B61D12D
:1055600023680721DA080132D2000B40134323607D
:105570002F4B35601D402F4B70609D4227D0237804
:1055800001988343237022E0042803D1002F22D105
:10559000371C20E0A84203D10199022917D108E065
:1055A000039A002A17D1291C09F0DEF9002812D02D
:1055B000F2E723680298083B2360013061680FF02E
:1055C00037FAA368C900CB58002B02D13360301CD6
:1055D0002BE00423FAE70298616801300FF028FA03
:1055E000049B02919942B1D1019801281AD1002F50
:1055F0000ED023680833236000237B600C4B3D6092
:105600001D400C4B9D420FD02378834323700BE049
:10561000201C00F013F8059861680FF009FA029158
:10562000049193E7002000E0381C07B0F0BDC046AD
:105630000700807F0600807FA8340200F7B542682B
:105640008768111C041C019201310023164A9A58E4
:105650008A4205D204335C2BF8D10120084300E0D4
:10566000101C22680723134001222360134360604B
:105670002370C00019F00AF93D1CA0600026019AB1
:1056800096420DD02968002907D0042905D0201C96
:105690000122FFF7D9FE6B68436001360835EEE75B
:1056A000381C19F017F9F7BD1028020013B5036A6A
:1056B00009059C6B044B890CCA5800230093211CDC
:1056C00016F061FF13BDC0466C280200F0B587B02C
:1056D00002931B7803921A1C6B3A041C0F1C022ABB
:1056E00029D88568666868180378032B00D0ACE079
:1056F00004A917F03CF8AB19984200D19FE0037859
:10570000032B00D0A1E005A917F031F802990B781E
:105710006B2B03D1049B059A13430AE06C2B03D136
:10572000049B05994B4004E06D2BE4D1059B049A42
:1057300013400493DFE76E2B04D00222191C91431F
:10574000702965D1A2686368D0190193037800922B
:10575000032B7AD104A917F00AF8061C009A0199C4
:1057600053189E426BD0B378B01C7578032B6CD164
:1057700005A916F0FCFF061C372D0FD1059B1F2B2A
:1057800063DC4549049A19418A425EDCC02109065E
:1057900019418A4259DB9A40131C09E0392D09D17D
:1057A00005991F2901DD1F230593049B059A1341C9
:1057B000049328E02F2D03D10499059A8B18F7E75D
:1057C000302D03D10499059A8B1AF1E7312D09D1B7
:1057D0000498059902F0EAFE002836D1059B049949
:1057E0004B43E5E7332D30D00599352D05D1002900
:1057F0002BD0049817F010FD04E0002925D0049860
:1058000017F019FD0490049B5A005340A6D51CE0E4
:10581000752B1AD18268D01983784578032B14D15F
:10582000023016F0B4FF2F2D08D0302D05D14042A4
:1058300043000490584002D507E0C04304906760DD
:10584000201C049916F0CFFE23E06368039DDB1B48
:1058500000930022561CED0901D0321CFAE7009B90
:105860000135DB09FCD102325219201C391C19F018
:1058700089F90299041C0B78039A1A33311C0370BE
:105880000136013016F02BFEA019291C009A16F0E3
:1058900026FE07B0F0BDC046FFFFFF3FF0B597B052
:1058A0000990C0200AAC0025402380000F1C161C64
:1058B00025706360A56018F0E4FF2561E060656114
:1058C000A561E5612762E562A84202D1BF48C049EF
:1058D000C1E1002E04D00423022E02D0012300E0F7
:1058E000331CBC4A00259B0000959A58201CB96BBC
:1058F0002B1C16F048FE102018F0B6FF1021041CD7
:1059000019F085F800260AADAB68002B00D17EE1C6
:105910002A78002A00D07AE1013B0C22AB60534385
:10592000EA68D318D978AB4A1868890089585D6845
:1059300002029B68120A05930391089249780F238B
:10594000069119400491002D01D1626805920698D4
:1059500030230340102B02D0202B39D0F2E0002D51
:1059600011D0002ECED00EE003996E008B195B880B
:105970001A0B012A1AD13A1C403212781B051B0D52
:105980009A4204D00135049A9542EDD31EE00AA84C
:10599000211C16F05EFE0028B4D13B1C40331B785E
:1059A000062B00D04BE18C488C4954E1049A6B1CC7
:1059B000934206D2059808990090039A0AA816F017
:1059C000E2FD03998E193AE0012DE6D801269AE707
:1059D000002E22D003986B001B5A1B0B032BF3D114
:1059E000201C012119F094F80023037015E03B1CE2
:1059F00040331B78D2B2934231D1082B07D1B96C16
:105A0000F86C08F04BF9011C201C16F0B2FD002DBB
:105A10001AD0381C19F08DFC013504998D4221D221
:105A200003996E008E197288130B012BDFD0059835
:105A30006B1C009008990AA8039A16F0A4FD7188BF
:105A40000AA8FFF733FE5DE7039A53787F2BE0D96E
:105A50000E99201C01310E9116F0C5FDD9E7002DDD
:105A6000B4D09AE700231E1C04998B420CD20398F1
:105A70005A0082185288110B012903D1D2B2072A89
:105A800000D901260133EFE7A268059B0021D01859
:105A90000691A36861685A18904206D2069A0121BD
:105AA0000132069216F03BFDF3E7039802781F2AB5
:105AB00001D02E2A00D1012603994A7840211140B5
:105AC00048424141494252B20E40002A00DA0126C2
:105AD000059A002598180495079506998D420FD0D0
